:020000040800F2
:100000000050002029130008411200084312000884
:1000100045120008471200084912000800000000BD
:100020000000000000000000000000004B1200086B
:100030004D120008000000004F1200085112000885
:100040007113000871130008711300087113000880
:100050007113000871130008711300087113000870
:100060007113000871130008711300087113000860
:100070007113000871130008711300087113000850
:100080007113000871130008711300087113000840
:100090007113000871130008711300087113000830
:1000A0007113000871130008711300087113000820
:1000B0007113000871130008711300087113000810
:1000C0007113000871130008711300087113000800
:1000D0007113000871130008591200087113000809
:1000E000711300087113000871130008000000006C
:1000F0000000000000000000000000000000000000
:0C01000000000000000000005FF808F1A3
:10010C0010B5054C237833B9044B13B10448AFF345
:10011C0000800123237010BD0C00002000000000A3
:10012C00CC13000808B5034B1BB103490348AFF3CC
:10013C00008008BD0000000010000020CC13000857
:10014C0082B00A4B9A6942F020029A619A6902F0D5
:10015C0020020092009A9A6942F004029A619B690B
:10016C0003F004030193019B02B07047001002409E
:10017C0072B6FEE700B591B02822002106A801F066
:10018C00F2F8002301930293039304930593022343
:10019C00069301230A9310230B9306A800F096FAFA
:1001AC0068B90F23019300210291039104910591E9
:1001BC0001A800F0BDFC20B911B05DF804FBFFF7FD
:1001CC00D7FFFFF7D5FF08B500F02EF8FFF7D2FFE9
:1001DC00FFF7B6FF01F044F8FEE7000010B5044647
:1001EC000E4B1A784FF47A73B3FBF2F30C4A106887
:1001FC00B0FBF3F000F0A0F868B90F2C01D9012086
:10020C000AE0002221464FF0FF3000F077F8054B52
:10021C001C60002000E0012010BD00BF0000002089
:10022C00080000200400002008B5074A136843F0BA
:10023C0010031360032000F04FF80F20FFF7CEFFE0
:10024C0000F00CFA002008BD00200240034A11689F
:10025C00034B1B780B441360704700BF2800002031
:10026C0000000020014B1868704700BF28000020D8
:10027C00002808DB0901C9B200F1604000F56140BB
:10028C0080F80013704700F00F000901C9B2014B50
:10029C001954704714ED00E000B500F00700C0F1F0
:1002AC00070CBCF1040F28BF4FF0040C031D062BE8
:1002BC000FD9C31E4FF0FF3E0EFA0CF021EA0001DD
:1002CC0099400EFA03FE22EA0E0241EA02005DF8A2
:1002DC0004FB0023EEE70000074AD36823F4E06335
:1002EC001B041B0C000200F4E060034343F0BF63EB
:1002FC0043F40033D360704700ED00E010B50446C2
:10030C00054BD868C0F30220FFF7C6FF0146204614
:10031C00FFF7AEFF10BD00BF00ED00E0002807DBCB
:10032C0000F01F02400901239340024A42F820309A
:10033C00704700BF00E100E00138B0F1807F0BD2C4
:10034C004FF0E0235861054AF02182F82310002079
:10035C00986107221A6170470120704700ED00E098
:10036C00034690F82120D2B2022A06D004228263DE
:10037C00002280F820200120704701680A6822F0D2
:10038C000E020A6001680A6822F001020A60026C1F
:10039C00C06B012101FA02F2426083F821100020A7
:1003AC0083F820007047000008B590F82130DBB2CC
:1003BC00022B03D004238363012008BD0268136859
:1003CC0023F00E0313600268136823F0010313601B
:1003DC000368194A934214D0143293421FD014323A
:1003EC0093421ED0143293421ED0143293421ED02C
:1003FC001432934202D04FF0807203E04FF480121B
:10040C0000E001220D4B5A60012380F821300023BB
:10041C0080F82030436B6BB198470020CDE7102259
:10042C00F0E74FF48072EDE74FF48052EAE74FF4B7
:10043C008032E7E70020C0E70800024000000240DD
:10044C0070B582B00024A446A1E07E4DAB4214D01E
:10045C000CD8A5F58015AB420FD005F57025AB4235
:10046C000BD0A5F58015AB4210D106E0764DAB4212
:10047C0003D005F58035AB4208D18B68002B50D0EA
:10048C00012B49D04261082400E0CC68BEF1FF0F7B
:10049C0049D806464FEA8C0233680F25954023EA6B
:1004AC00050304FA02F2134333604B6813F0805FC8
:1004BC006BD0664B9A6942F001029A619B6903F01A
:1004CC0001030193019B4FEA9C02951C604B53F86E
:1004DC0025600CF00305AD000F23AB4026EA0306A4
:1004EC005C4B984226D003F58063984200F08C80D8
:1004FC0003F58063984200F0898003F5806398428D
:10050C0016D0042317E0CC680434BFE7CC68083459
:10051C00BCE7CC680C34B9E702610824B6E70024C8
:10052C00B4E70424B2E7061DACF108029200B3E76D
:10053C00032300E00023AB4033430232444D45F823
:10054C0022304B6813F4801F62D0434A936843EA0D
:10055C000E0393604B6813F4001F5FD03E4AD368C0
:10056C0043EA0E03D3604B6813F4003F5CD03A4A65
:10057C00536843EA0E0353604B6813F4803F59D021
:10058C00354A136843EA0E0313600CF1010C0B6837
:10059C0033FA0CF254D0012202FA0CF203EA020EE6
:1005AC0032EA0303F1D14B68122B3FF64EAF122BFC
:1005BC003FF66CAF01A555F823F000BF8704000887
:1005CC0097040008190500082B0500089904000879
:1005DC00990400089904000899040008990400087B
:1005EC00990400089904000899040008990400086B
:1005FC00990400089904000899040008990400085B
:10060C00130500081F050008012394E7022392E755
:10061C00114A936823EA0E0393609BE70E4AD36852
:10062C0023EA0E03D3609EE70B4A536823EA0E03BA
:10063C005360A1E7084A136823EA0E031360A4E78A
:10064C0002B070BD000022100000311000100240FA
:10065C0000000140000801400004014082B00E4B34
:10066C009A6942F001029A619A6902F001020092C1
:10067C00009ADA6942F08052DA61DB6903F0805348
:10068C000193019B054A536823F0E06343F0007328
:10069C00536002B0704700BF0010024000000140E0
:1006AC0082B0084B1B68084AA2FB03235B0A00FBC1
:1006BC0003F3019300BF019B5A1E0192002BF9D149
:1006CC0002B0704708000020D34D6210002800F0E3
:1006DC00F18170B582B00446036813F0010F2CD081
:1006EC00994B5B6803F00C03042B1DD0964B5B6895
:1006FC0003F00C03082B12D06368B3F5803F41D094
:10070C00002B55D103F1804303F504331A6822F40E
:10071C0080321A601A6822F480221A6037E08A4B01
:10072C005B6813F4803FE7D0874B1B6813F4003FE2
:10073C0003D06368002B00F0BF81236813F0020F15
:10074C0075D0814B5B6813F00C0F5FD07E4B5B68F0
:10075C0003F00C03082B54D02369002B00F08A8083
:10076C007A4B01221A60FFF77DFD0546764B1B681C
:10077C0013F0020F75D1FFF775FD401B0228F5D958
:10078C0003209EE1704A136843F48033136063685E
:10079C0043B3FFF767FD05466B4B1B6813F4003F33
:1007AC00CBD1FFF75FFD401B6428F5D9032088E10E
:1007BC00B3F5A02F09D0644B1A6822F480321A606A
:1007CC001A6822F480221A60E1E703F18043A3F552
:1007DC003C331A6842F480221A601A6842F4803260
:1007EC001A60D4E7FFF73EFD0546574B1B6813F420
:1007FC00003FA2D0FFF736FD401B6428F5D903203B
:10080C005FE1514B5B6813F4803FA5D14E4B1B68E5
:10081C0013F0020F03D02369012B40F04F814A4A99
:10082C00136823F0F803616943EAC103136023687A
:10083C0013F0080F33D0A369002B5CD0434B01227B
:10084C00C3F88024FFF70EFD05463F4B5B6A13F09F
:10085C00020F21D1FFF706FD401B0228F5D903201A
:10086C002FE1394A136823F0F803616943EAC103A5
:10087C001360DCE7354B00221A60FFF7F3FC0546EA
:10088C00314B1B6813F0020FD1D0FFF7EBFC401B70
:10089C000228F5D9032014E10120FFF701FF23689A
:1008AC0013F0040F00F09680274BDB6913F0805F88
:1008BC0034D1254BDA6942F08052DA61DB6903F0FE
:1008CC0080530193019B0125214B1B6813F4807FFE
:1008DC0026D0E368012B3DD0002B53D103F180438C
:1008EC0003F504331A6A22F001021A621A6A22F022
:1008FC0004021A6233E0154B0022C3F88024FFF780
:10090C00B1FC0546104B5B6A13F0020FC7D0FFF722
:10091C00A9FC401B0228F5D90320D2E00025D3E71F
:10092C000B4A136843F480731360FFF79BFC064675
:10093C00074B1B6813F4807FCBD1FFF793FC801B14
:10094C006428F5D90320BCE00010024000004242AC
:10095C00007000405F4A136A43F001031362E368BE
:10096C0033B3FFF77FFC06465A4B1B6A13F0020F9A
:10097C002FD1FFF777FC801B41F288339842F3D9D3
:10098C0003209EE0052B09D0524B1A6A22F001027B
:10099C001A621A6A22F004021A62E0E74D4B1A6AD4
:1009AC0042F004021A621A6A42F001021A62D6E795
:1009BC00FFF758FC0646474B1B6A13F0020F08D092
:1009CC00FFF750FC801B41F288339842F3D9032087
:1009DC0077E0E5B9E369002B72D03E4A526802F029
:1009EC000C02082A56D0022B17D03B4B00221A6659
:1009FC00FFF738FC0446374B1B6813F0007F47D0D9
:100A0C00FFF730FC001B0228F5D9032059E0314ACE
:100A1C00D36923F08053D361DCE72F4B00221A6695
:100A2C00FFF720FC05462B4B1B6813F0007F06D00C
:100A3C00FFF718FC401B0228F5D9032041E0236A7C
:100A4C00B3F5803F1AD023494B6823F47413226A00
:100A5C00606A024313434B601F4B01221A66FFF777
:100A6C0001FC04461B4B1B6813F0007F0ED1FFF7F3
:100A7C00F9FB001B0228F5D9032022E0154A536824
:100A8C0023F40033A1680B435360DCE7002018E02B
:100A9C00002016E0012B16D00E4B5B6803F480315E
:100AAC00226A914211D103F47013626A93420ED1FF
:100ABC00002006E001207047012002E0012000E048
:100ACC00002002B070BD0120FBE70120F9E70120F6
:100ADC00F7E700BF00100240000042420F4B5B687A
:100AEC0003F00C02082A01D00D487047C3F383426F
:100AFC000C49885C13F4803F0BD0084B5B68C3F344
:100B0C004043094AD35C064A02FB00F0B0FBF3F009
:100B1C007047064B03FB00F0704700BF001002400B
:100B2C0000127A00E8130008E413000800093D00E5
:100B3C00002800F0A08070B50D460446524B1B688F
:100B4C0003F007038B420BD24F4A136823F00703C1
:100B5C000B431360136803F007038B4240F08D8046
:100B6C00236813F0020F17D013F0040F04D0474A78
:100B7C00536843F4E0635360236813F0080F04D008
:100B8C00424A536843F460535360404A536823F01D
:100B9C00F003A1680B435360236813F0010F31D0AD
:100BAC006368012B20D0022B25D0384A126812F032
:100BBC00020F64D035494A6822F0030213434B609C
:100BCC00FFF750FB0646314B5B6803F00C03626881
:100BDC00B3EB820F16D0FFF745FB801B41F2883335
:100BEC009842F0D9032045E0284A126812F4003FDD
:100BFC00E0D101203EE0254A126812F0007FD9D1E5
:100C0C00012037E0204B1B6803F00703AB420AD9E5
:100C1C001D4A136823F007032B431360136803F07A
:100C2C000703AB422DD1236813F0040F06D0174AEB
:100C3C00536823F4E063E1680B435360236813F0BB
:100C4C00080F07D0114A536823F46053216943EA13
:100C5C00C1035360FFF742FF0C4B5B68C3F30313F4
:100C6C000B4AD35CD8400B4B18600B4B1868FFF742
:100C7C00B5FA002070BD012070470120FAE7012071
:100C8C00F8E70120F6E700BF002002400010024008
:100C9C00001400080800002004000020014B186814
:100CAC00704700BF0800002008B5FFF7F7FF044BA2
:100CBC005B68C3F30223034AD35CD84008BD00BF72
:100CCC0000100240F813000808B5FFF7E7FF044BCB
:100CDC005B68C3F3C223034AD35CD84008BD00BF92
:100CEC0000100240F8130008026802F10C0353E8EC
:100CFC00003F23F490730C3242E800310029F3D109
:100D0C00026802F1140353E8003F23F0010314328C
:100D1C0042E800310029F3D1036B012B05D02023CD
:100D2C0080F84230002303637047026802F10C0321
:100D3C0053E8003F23F010030C3242E80031002945
:100D4C00F3D1ECE790F84130DBB2212B01D002203B
:100D5C0070478368B3F5805F17D0036A5A1C026230
:100D6C001A7803685A60C38C9BB2013B9BB2C38454
:100D7C004BB90268D36823F08003D3600268D36850
:100D8C0043F04003D360002070470369002BE4D18B
:100D9C00036A1B880268C3F308035360036A0233B7
:100DAC000362E0E710B504460268136923F440536C
:100DBC00C1680B43136183680269134342691A4388
:100DCC000168CB6823F4B05323F00C031343CB60BE
:100DDC000268536923F4407381690B4353610268C1
:100DEC00134B9A4220D0FFF75FFF024602EB8202C0
:100DFC0002EB820263689B00B2FBF3F20D48A0FB8E
:100E0C0002314909642303FB11231B013233A0FB7C
:100E1C0003035B0903F0F00202EB011203F00F0372
:100E2C00216813448B6010BDFFF74EFF0246DDE7CF
:100E3C00003801401F85EB5160B310B5044690F8A3
:100E4C00413013B3242384F841302268D36823F44F
:100E5C000053D3602046FFF7A5FF2268136923F4E3
:100E6C00904313612268536923F02A03536122686B
:100E7C00D36843F40053D36000206064202384F8CB
:100E8C00413084F84230606310BD80F8403000F08F
:100E9C0001FAD7E701207047704708B50168CA68A6
:100EAC0022F04002CA60202280F84120FFF7F4FFB4
:100EBC00002008BD7047704708B5406A0023C38501
:100ECC00C384FFF7F8FF08BD704790F84230DBB2DF
:100EDC00222B69D18368B3F5805F4FD0826AB3F55A
:100EEC00805F04D0002B56D10369002B53D10368CB
:100EFC005B681370836A01338362C38D9BB2013BC1
:100F0C009BB2C385002B51D100B583B00268D36866
:100F1C0023F02003D3600268D36823F48073D3607A
:100F2C000268536923F001035361202380F8423097
:100F3C0000234363036B012B33D10023036302684B
:100F4C0002F10C0353E8003F23F010030C3242E88B
:100F5C0000310029F3D103681A6812F0100F06D083
:100F6C00002201921A6801925B680193019B818DAA
:100F7C00FFF7AAFF002003B05DF804FB0269002A0A
:100F8C00ACD1826A03685B68C3F308031380836A7D
:100F9C0002338362B1E703685B6803F07F0313706D
:100FAC00A8E7FFF787FFE5E70220704700207047AE
:100FBC0010B582B0044602681368D068516913F00A
:100FCC000F0F09D113F0200F0CD010F0200F09D007
:100FDC002046FFF77AFF16E011F0010115D110F44D
:100FEC00907F12D1216B012979D013F0800F03D09F
:100FFC0010F0800F40F0138113F0400F03D010F06D
:10100C00400F40F0108102B010BD13F0010F06D05C
:10101C0010F4807F03D0626C42F00102626413F022
:10102C00040F04D019B1626C42F00202626413F036
:10103C00020F04D019B1626C42F00402626413F026
:10104C00080F07D010F0200F00D119B1626C42F0DC
:10105C0008026264626C002AD5D013F0200F02D013
:10106C0010F0200F29D123685B6903F04003626CF8
:10107C0012F0080F00D163B32046FFF735FE23684A
:10108C005B6913F0400F20D0226802F1140353E87F
:10109C00003F23F04003143242E800310029F3D121
:1010AC00E36B73B1624A5A63E06BFFF77DF900287A
:1010BC00A9D0E06B436B9847A5E72046FFF705FFE7
:1010CC00D1E72046FFF7F7FE9DE72046FFF7F3FE3A
:1010DC0099E72046FFF7EFFE0023636493E713F0D4
:1010EC00100F82D010F0100F3FF47FAF002301934C
:1010FC001368019353680193019B536913F0400FDC
:10110C0051D0E26B13685B689BB2002B3FF47BAF52
:10111C00A18D99427FF677AFE3859369202B37D069
:10112C00226802F10C0353E8003F23F480730C3265
:10113C0042E800310029F3D1226802F1140353E88C
:10114C00003F23F00103143242E800310029F3D1AF
:10115C00226802F1140353E8003F23F040031432D9
:10116C0042E800310029F3D1202384F842300023D7
:10117C002363226802F10C0353E8003F23F01003B1
:10118C000C3242E800310029F3D1E06BFFF7E8F8AC
:10119C0002236363A18DE38D9BB2C91A89B22046E9
:1011AC00FFF792FE2FE7A18DE38D9BB2C91A89B28E
:1011BC00E38D9BB2002B3FF426AF00293FF423AF05
:1011CC00226802F10C0353E8003F23F490730C32B5
:1011DC0042E800300028F3D1226802F1140353E8EE
:1011EC00003F23F00103143242E800300028F3D111
:1011FC00202384F8423000232363226802F10C037D
:10120C0053E8003F23F010030C3242E80030002872
:10121C00F3D1022363632046FFF756FEF3E6204624
:10122C00FFF790FDEFE62046FFF737FEEBE600BF39
:10123C00C50E0008FEE7FEE7FEE7FEE7FEE7704797
:10124C007047704708B5FFF701F808BD08B50248AC
:10125C00FFF7AEFE08BD00BF2C0000207047000059
:10126C0008B50A480A4B03604FF4E133436000238E
:10127C008360C36003610C2242618361C361FFF729
:10128C00DBFD00B908BDFEF773FFFBE72C00002067
:10129C000044004070B586B000230293039304937E
:1012AC00059302681B4B9A4201D006B070BD03F542
:1012BC00E633DA6942F40032DA61DA6902F40032B8
:1012CC000092009A9A6942F004029A619B6903F0B9
:1012DC0004030193019B042302930225039503232A
:1012EC0005930D4E02A93046FFF7AAF80823029386
:1012FC000024039404940DEB03013046FFF7A0F88F
:10130C00224629462620FEF7F9FF2620FFF706F88D
:10131C00CBE700BF0044004000080140FFF79EFFF0
:10132C000B480C490C4A002302E0D458C450043337
:10133C00C4188C42F9D3094A094C002301E013600C
:10134C000432A242FBD300F017F8FEF73CFF7047C3
:10135C00000000200C000020181400080C000020D5
:10136C0074000020FEE703460244934200D170470C
:10137C0003F8011BF9E7000070B500260C4D0D4C6D
:10138C00641BA410A64209D100F01AF800260A4DDD
:10139C000A4C641BA410A64205D170BD55F8043B41
:1013AC0098470136EEE755F8043B98470136F2E7CB
:1013BC00101400081014000810140008141400086D
:1013CC00F8B500BFF8BC08BC9E467047F8B500BF26
:0813DC00F8BC08BC9E467047F6
:1013E4000102000002030405060708090A0B0C0D9C
:1013F4000E0F1010000000000102030400000000A2
:0C140400000000000102030406070809B4
:04141000310100089E
:041414000D010008BE
:0C141800010000001000000000127A002B
:0400000508001329B3
:00000001FF
