:020000040800F2
:10000000000002205D1D0008311D0008331D00089E
:10001000351D0008371D0008391D000800000000CC
:100020000000000000000000000000003B1D000870
:100030003D1D0008000000003F1D0008411D000894
:10004000AD1D0008AD1D0008AD1D0008AD1D000868
:10005000AD1D0008AD1D0008AD1D0008AD1D000858
:10006000AD1D0008AD1D0008AD1D0008AD1D000848
:10007000AD1D0008AD1D0008AD1D0008AD1D000838
:10008000AD1D0008AD1D0008AD1D0008AD1D000828
:10009000AD1D0008AD1D0008AD1D0008AD1D000818
:1000A000AD1D0008AD1D0008AD1D0008AD1D000808
:1000B000AD1D0008AD1D0008AD1D0008AD1D0008F8
:1000C000AD1D0008AD1D0008AD1D0008AD1D0008E8
:1000D000AD1D0008AD1D0008AD1D0008AD1D0008D8
:1000E000AD1D0008AD1D0008AD1D0008AD1D0008C8
:1000F000AD1D0008AD1D0008AD1D0008AD1D0008B8
:10010000AD1D0008AD1D0008AD1D0008AD1D0008A7
:10011000AD1D0008AD1D0008AD1D0008AD1D000897
:10012000AD1D0008AD1D0008AD1D0008AD1D000887
:10013000AD1D0008AD1D0008AD1D0008AD1D000877
:10014000AD1D0008AD1D0008AD1D0008AD1D000867
:10015000AD1D0008AD1D0008AD1D0008AD1D000857
:10016000AD1D0008AD1D0008AD1D0008AD1D000847
:10017000AD1D0008AD1D0008AD1D00080000000009
:08018000AD1D0008AD1D0008D3
:1001880010B5054C237833B9044B13B10448AFF3C9
:1001980000800123237010BD0C0000200000000027
:1001A800081E000808B5034B1BB103490348AFF309
:1001B800008008BD0000000010000020081E000894
:1001C80053B94AB9002908BF00281CBF4FF0FF31B6
:1001D8004FF0FF3000F088B9ADF1080C6DE904CE9E
:1001E80000F006F8DDF804E0DDE9022304B070470A
:1001F8002DE9F047089D8E4604468846002B4AD1D3
:100208008A42174662D9B2FA82F64EB1C6F1200385
:1002180001FA06F820FA03F3B74043EA0808B440A5
:100228004FEA174E1FFA87FCB8FBFEF1230C0EFBB2
:10023800118843EA084301FB0CF29A4209D9FB18DA
:1002480001F1FF3080F0EA809A4240F2E7800239FB
:100258003B449A1AA3B2B2FBFEF00EFB102243EA0B
:10026800024300FB0CFC9C4509D9FB1800F1FF3246
:1002780080F0D6809C4540F2D3803B44023840EA67
:100288000140A3EB0C0300211DB1F3400022C5E996
:100298000032BDE8F0878B4205D90DB1C5E90001F0
:1002A80000210846F5E7B3FA83F1002946D17345E2
:1002B80002D3824200F20581841A6EEB0302012008
:1002C8009046002DE5D0C5E90048E2E7002A00F095
:1002D8009080B2FA82F6002E40F0A4808A1A030CAD
:1002E8004FEA174E80B2BCB20121B2FBFEFC0EFBF6
:1002F8001C2243EA024304FB0CF29A4207D9FB187A
:100308000CF1FF3802D29A4200F2E080C4469B1AF0
:10031800B3FBFEF20EFB123340EA034302FB04F484
:100328009C4207D9FB1802F1FF3002D29C4200F22E
:10033800CA8002461B1B42EA0C40A5E7C1F1200611
:100348008B4022FA06F71F430EFA01F420FA06F34F
:100358002EFA06FE4FEA1749234300FA01F81FFA5E
:1003680087FCBEFBF9F01C0C09FB10EE44EA0E44B6
:1003780000FB0CFEA64502FA01F209D93C1900F16E
:10038800FF3A80F09C80A64540F2998002383C44B0
:10039800A4EB0E041FFA83FEB4FBF9F309FB134424
:1003A8004EEA044403FB0CFCA44508D93C1903F1AC
:1003B800FF3E80F08280A4457FD9023B3C4443EA5B
:1003C8000040A4EB0C04A0FB02EC64457346E14634
:1003D80062D35FD05DB1B8EB030264EB090404FAA1
:1003E80006F622FA01F31E43CC40C5E90064002159
:1003F8004FE7B1FBF2FC010C41EA0E4180B240EA42
:1004080001423B4638463C46B846BE462026B1FB2C
:10041800F7F1A2EB080241EA0C4166E7014618E74A
:1004280010462CE7C6F120022EFA02F3B740B1407D
:1004380020FA02F24FEA174E0A43B3FBFEF8BCB2A9
:100448000EFB1833110C41EA034108FB04F9B040D4
:1004580089454FEA104380B23ED9791808F1FF3C2C
:1004680001D289451FD8A1EB0901B1FBFEF909FBAF
:1004780004F80EFB191192B242EA0142424529D210
:10048800BA1809F1FF31C4D24245C2D2A9F102011A
:100498003A44BEE7F0459DD2BEEB02036CEB070C75
:1004A8000138E14696E7A7EB09094944A8F1020C8F
:1004B800B1FBFEF909FB04F8DBE773467FE750461A
:1004C80066E70846FDE63B44023A33E7ACF1020C26
:1004D8003B441CE749469CE7A1EB0901C446B1FB34
:1004E800FEF909FB04F8C4E7704700BF82B0002199
:1004F80000910B4B1A6B42F001021A631A6B02F05F
:1005080001020092009A01911A6B42F002021A63EA
:100518001B6B03F002030193019B02B0704700BFFD
:100528000038024000B587B000238DF817304FF42B
:100538007A730293012301930DF1170200926B2243
:10054800D021034800F058FE07B05DF804FB00BF57
:100558004800002000B587B000238DF817304FF40D
:100568007A730293012301930DF1170200926B2213
:10057800D021034800F040FE07B05DF804FB00BF3F
:1005880048000020F0B587B000238DF817300D4DD6
:100598004FF47A770297012401940DF1170600961B
:1005A80023461B22D021284600F026FE02970194FC
:1005B800009623461C22D021284600F01DFE07B0D5
:1005C800F0BD00BF4800002000B587B04FF47A7333
:1005D8000293012301930DF1170200927522D02195
:1005E800084800F0BBFE9DF81730682B02D007B012
:1005F8005DF804FBFFF796FFFFF7ACFFFFF7C2FFBC
:10060800F5E700BF4800002010B584B04FF47A73B6
:100618000293062301931E4C009401234322D02108
:100628001C4800F09BFE2388618841EA032189B2B7
:10063800194B1980A388E28842EA032292B2174B29
:100648001A802089638943EA00239BB214480380F7
:1006580007EE901AF8EE677A9FED127AC7EE876A6E
:100668001149C1ED006A07EE902AF8EE677AC7EEE5
:10067800876A0E4AC2ED006A07EE903AF8EE677A8A
:10068800C7EE876A0A4BC3ED006A04B010BD00BF0D
:1006980028000020480000204400002042000020DC
:1006A80040000020000003433C00002038000020E8
:1006B8003400002072B6FEE708B50A480A4B03600A
:1006C8000A4B436000238360C3604FF48042026199
:1006D80043618361C361036200F0B0FC00B908BDE7
:1006E800FFF7E8FF4800002000540040A086010002
:1006F80000B595B03022002108A801F054FB002372
:10070800039304930593069307930193184A116C76
:1007180041F080511164126C02F080520192019AEA
:100728000293144A116841F480411160126802F47E
:1007380080420292029A0222089201220B9210220F
:100748000C920E9308A800F0D9FF68B90F23039301
:100758000021049105910691079103A801F01EFA62
:1007680020B915B05DF804FBFFF7A4FFFFF7A2FF5F
:10077800003802400070004008B500F035F8FFF777
:10078800B7FFFFF7B3FEFFF797FFFFF71DFFFFF770
:100798003BFF642000F054F8F9E7000010B5044668
:1007A8000E4B1A784FF47A73B3FBF2F30C4A1068C5
:1007B800B0FBF3F000F0AEF868B90F2C01D90120B6
:1007C8000AE0002221464FF0FF3000F093F8054B75
:1007D8001C60002000E0012010BD00BF00000020C8
:1007E800080000200400002008B50B4B1A6842F4EA
:1007F80000721A601A6842F480621A601A6842F439
:1008080080721A60032000F063F80F20FFF7C6FF1C
:1008180000F020FF002008BD003C0240034A116898
:10082800034B1B780B441360704700BF9C000020EB
:1008380000000020014B1868704700BF9C00002092
:1008480038B50446FFF7F6FF0546B4F1FF3F02D07E
:10085800044B1B781C44FFF7EDFF401BA042FAD362
:1008680038BD00BF00000020002808DB0901C9B21C
:1008780000F1604000F5614080F80013704700F017
:100888000F000901C9B2014B1954704714ED00E07B
:1008980000B500F00700C0F1070CBCF1040F28BF39
:1008A8004FF0040C031D062B0FD9C31E4FF0FF3E5B
:1008B8000EFA0CF021EA000199400EFA03FE22EA32
:1008C8000E0241EA02005DF804FB0023EEE7000097
:1008D800074AD36823F4E0631B041B0C000200F4EE
:1008E800E060034343F0BF6343F40033D3607047D1
:1008F80000ED00E010B50446054BD868C0F30220AF
:10090800FFF7C6FF01462046FFF7AEFF10BD00BF48
:1009180000ED00E00138B0F1807F0BD24FF0E0230A
:100928005861054AF02182F82310002098610722B7
:100938001A6170470120704700ED00E000230F2B7B
:1009480000F2E98070B582B065E085684FEA430E31
:10095800032404FA0EF425EA0405CC6804FA0EF41C
:100968002C438460446824EA02044A68C2F30012F3
:100978009A40224342605CE0DC08083450F82420A6
:1009880003F00705AD004FF00F0E0EFA05FE22EA40
:100998000E0E0A69AA4042EA0E0240F824205CE0E2
:1009A800072200E0002202FA0EF22A4302345A4DCE
:1009B80045F82420594A94686FEA0C0224EA0C0589
:1009C8004E6816F4801F01D04CEA0405534CA5600C
:1009D800E46802EA04054E6816F4001F01D04CEAE8
:1009E80004054E4CE560646802EA04054E6816F496
:1009F800003F01D04CEA0405484C65602468224059
:100A08004D6815F4803F01D04CEA0402434C226043
:100A180001330F2B7DD801229A400C6804EA020C9E
:100A280032EA0404F4D14C6804F00304013C012CBC
:100A38008BD94A6802F00302032A09D0C4685D0012
:100A48000322AA4024EA02048A68AA402243C26018
:100A58004A6802F00302022A8ED004684FEA430E65
:100A6800032202FA0EF224EA02044A6802F00302A0
:100A780002FA0EF2224302604A6812F4403FC7D0DD
:100A880000220192264A546C44F480445464526C07
:100A980002F480420192019A9C08A51C1E4A52F851
:100AA800255003F0030E4FEA8E0E0F2202FA0EF2C3
:100AB80025EA02051B4A90423FF474AF02F58062B2
:100AC80090421AD002F58062904218D002F58062F6
:100AD800904216D002F58062904214D002F58062EE
:100AE800904212D002F58062904210D002F58062E6
:100AF80090423FF455AF082255E7012253E70222FE
:100B080051E703224FE704224DE705224BE706226F
:100B180049E702B070BD704700380140003C014011
:100B2800003802400000024003685A6912F4806FDE
:100B380001D1002070476FF480625A61002303637B
:100B4800202280F83D2080F83E30026C42F00402FA
:100B5800026480F83C30012070472DE9F0410646D8
:100B68000C46174698463BE0FFF764FE069BC01A02
:100B7800404502D8B8F1000F32D1012D18D03368A2
:100B88009B6924EA03039BB2B3FA83F35B099F4290
:100B980026D100233363202286F83D2086F83E3094
:100BA800326C42F02002326486F83C30012027E0A3
:100BB80033685B6924EA03039BB2B3FA83F35B09E6
:100BC800E5E733685B6924EA030C1FFA8CFCBCFA7E
:100BD8008CFC4FEA5C1C674511D1B8F1FF3FC3D1CB
:100BE800C4F30745012DECD033689B6924EA030C54
:100BF8001FFA8CFCBCFA8CFC4FEA5C1CEBE700206B
:100C0800BDE8F0812DE9F84305460E469046994621
:100C180053E01A6842F400721A602B686FF480621D
:100C28005A6100232B63202285F83D2085F83E3049
:100C38002A6C42F004022A6485F83C3001204AE01C
:100C4800FFF7F8FDA0EB0900404502D8B8F1000F06
:100C580033D1012F17D02B689B6926EA03039BB277
:100C6800003B18BF012343B300232B63202285F8E0
:100C78003D2085F83E302A6C42F020022A6485F82F
:100C88003C30012027E02B685B6926EA03039BB20E
:100C9800003B18BF0123E6E72B689C6926EA040499
:100CA800A4B2003C18BF0124A4B12B685A6912F4FD
:100CB800806FAED1B8F1FF3FC2D1C6F30747012F0D
:100CC800EAD12B685C6926EA0404A4B2003C18BF88
:100CD8000124E9E70020BDE8F88370B504460D4615
:100CE800164623685B6913F0800F21D12046FFF771
:100CF8001BFFF8B9B5F1FF3FF3D0FFF79BFD801B51
:100D0800A84201D8002DECD123685B6913F0800F4D
:100D1800E7D100232363202284F83D2084F83E3065
:100D2800226C42F02002226484F83C30012000E06A
:100D3800002070BD0120FCE72DE9F04385B0044692
:100D48000D4691461F46DDF830800D9E03681968F0
:100D580041F4807119600096434600224FF001115A
:100D6800FFF7FBFE60B9236805F0FE051D613346F9
:100D7800424626492046FFF745FF68B1012008E0B2
:100D880023681B6813F4807F02D04FF40073236438
:100D9800032005B0BDE8F0830023039323685A6954
:100DA80003929B690393039B324641462046FFF713
:100DB80094FF30B9012F0FD123685FFA89F61E61BD
:100DC800E7E7236C042B01D00120E2E722681368CF
:100DD80043F400731360F7E723684FEA19221A6196
:100DE800324641462046FFF778FF20B923685FFA6C
:100DF80089F61E61CDE7236C042B01D00120C8E7DA
:100E08002268136843F400731360F7E702000100D7
:100E18002DE9F04784B004460D46164699460C9FC6
:100E2800DDF834800268136843F480631360036854
:100E3800196841F480711960CDF800803B460022A2
:100E48004FF00111FFF789FE70B95FFA85FA236840
:100E580005F0FE051D6143463A4641492046FFF725
:100E6800D1FE68B1012008E023681B6813F4807F75
:100E780002D04FF400732364032004B0BDE8F08768
:100E88000023039323685A6903929B690393039B86
:100E9800424639462046FFF720FF80B9B9F1010FD5
:100EA80018D12368F6B21E61424639462046FFF73C
:100EB80014FF68B3236C042B24D00120DDE7236CD6
:100EC800042B01D00120D8E72268136843F400738B
:100ED8001360F7E72368320A1A614246394620460A
:100EE800FFF7FBFE18B92368F6B21E61DCE7236C36
:100EF800042B01D00120C0E72268136843F4007373
:100F08001360F7E72268136843F400731360D4E7AB
:100F18002268136843F480731360CDF800803B4661
:100F280000224FF001112046FFF717FE68B922682A
:100F38004AF00103136143463A4609492046FFF740
:100F480061FE002899D0012097E723681B6813F4F5
:100F5800807F02D04FF40073236403208DE700BF25
:100F68000200010070B504460D46164623685B6909
:100F780013F0040F21D12046FFF7D6FDF8B9B5F1DB
:100F8800FF3FF3D0FFF756FC801BA84201D8002D85
:100F9800ECD123685B6913F0040FE7D100232363C6
:100FA800202284F83D2084F83E30226C42F0200252
:100FB800226484F83C30012000E0002070BD01204C
:100FC800FCE770B504460D46164614E06FF01002B3
:100FD8005A6100232363202284F83D2084F83E30A0
:100FE800226C226484F83C30012025E023685B6988
:100FF80013F0400F10D02368586910F0400F1AD131
:10100800586910F0100FE1D1FFF714FC801BA842BB
:10101800ECD8002DEFD1E9E700232363202284F8E0
:101028003D2084F83E30226C42F02002226484F88D
:101038003C30012000E0002070BD0000002800F0D6
:10104800CC8070B5044690F83D30002B77D024232F
:1010580084F83D302268136823F001031360226886
:10106800136843F4004313602268136823F40043B1
:10107800136000F049FE62685A4B9A4264D85A4B92
:1010880098428CBF00230123002B40F0A8805749C9
:10109800A1FB00318B0C25686A6822F03F0242EA06
:1010A80091426A6021680A6A22F03F0266684D4DE3
:1010B800AE424FD8013313430B622168CA6922F448
:1010C8004F4222F0FF026568464B9D424CD8431EB2
:1010D8006D00B3FBF5F3013340F6FC70034278D0A2
:1010E800C3F30B031A43CA6121680B6823F0C003DA
:1010F800E269206A024313430B6021688B6823F47A
:10110800034323F0FF032269E068024313438B6023
:101118002168CB6823F0FF036269A0690243134387
:10112800CB602268136843F0010313600020206439
:10113800202384F83D30206384F83E0070BD80F899
:101148003C3000F0A3FA82E7294B98428CBF002379
:10115800012399E74FF4967505FB03F3254DA5FB8D
:1011680003539B090133A6E7A668BEB9431E05EBE6
:10117800450CB3FBFCF30133C3F30B03B3FA83F35E
:101188005B0943BBC6B9431E05EB4505B3FBF5F345
:101198000133C3F30B0343F40043A3E7431E05EBFA
:1011A800850C0CEB8C0CB3FBFCF30133C3F30B0382
:1011B800B3FA83F35B09E4E7431E05EB850505EB0A
:1011C8008505B3FBF5F30133C3F30B0343F4404345
:1011D80088E7042386E7012384E70120704701207C
:1011E800ACE700BFA08601007F841E0083DE1B439E
:1011F800FF083D00D34D62102DE9F04383B004464B
:101208000F46904699460C9EFFF714FB054694F846
:101218003D00C0B2202803D0022003B0BDE8F0830F
:101228000095192301224B492046FFF796FC002818
:1012380040F0898094F83C30012B00F0868001232F
:1012480084F83C3023681A6812F0010F03D11A6839
:1012580042F001021A602268136823F400631360E5
:10126800212384F83D30402384F83E300023236452
:101278000A9B6362BDF82C306385638D2385364BEA
:10128800E362019500964B46424639462046FFF7F1
:1012980053FD00285BD1238D002B35D02A463146DB
:1012A8002046FFF71AFD20BB626A236812781A618C
:1012B800626A531C6362218D013989B22185638D6D
:1012C8009BB2013B9BB263852368586910F0040FF9
:1012D800E1D00029DFD052781A61636A0133636272
:1012E800238D013B2385638D9BB2013B9BB26385B4
:1012F800D1E7236C042B01D001208EE72268136804
:1013080043F400731360F7E72A4631462046FFF797
:1013180029FE50B1236C042B01D001207DE72268FF
:10132800136843F400731360F7E72268136843F403
:1013380000731360202384F83D30002384F83E3086
:1013480084F83C3069E7022067E7022065E701205E
:1013580063E700BF020010000000FFFF2DE9F04323
:1013680087B004460F4690469946109EFFF762FAEA
:10137800054694F83D00C0B2202804D0022738461C
:1013880007B0BDE8F083009519230122884920465B
:10139800FFF7E3FB002840F04D8194F83C30012B27
:1013A80000F04A81012384F83C3023681A6812F05F
:1013B800010F03D11A6842F001021A60226813680B
:1013C80023F400631360222384F83D30402384F81B
:1013D8003E30002323640E9B6362BDF83C30638576
:1013E800638D2385734BE362019500964B46424615
:1013F80039462046FFF70CFD0746002840F01E81BD
:10140800238D5BB9029323685A6902929A69029202
:10141800029A1A6842F400721A6075E0012B0AD029
:10142800022B1AD00023059323685A6905929B69F9
:101438000593059B68E02268136823F480631360B2
:101448000023039323685A6903929A690392039AC3
:101458001A6842F400721A6056E02268136823F48E
:10146800806313602268136843F4006313600023E9
:10147800049323685A6904929B690493049B43E08C
:101488002A4631462046FFF79CFD002840F0D880C8
:1014980023681A69636A1A70636A01336362238D69
:1014A800013B2385638D9BB2013B9BB263852BE097
:1014B80000953346002240492046FFF74EFB00289E
:1014C80040F0C0802268136843F4007313602368F7
:1014D8001A69636A1A70626A531C6362238D013B3E
:1014E8002385638D9BB2013B9BB2638523681B698F
:1014F8005370636A01336362238D013B2385638DD7
:101508009BB2013B9BB26385238D002B00F0898041
:10151800032B53D8012BB3D0022BC9D000953346E7
:10152800002225492046FFF718FB002840F08C8050
:101538002268136823F48063136023681A69636A56
:101548001A70636A01336362238D013B2385638DBF
:101558009BB2013B9BB26385009533460022164936
:101568002046FFF7FAFA002870D12268136843F47E
:101578000073136023681A69636A1A70626A531CDD
:101588006362238D013B2385638D9BB2013B9BB234
:10159800638523681B695370636A01336362238D13
:1015A800013B2385638D9BB2013B9BB26385ABE70F
:1015B800020010000000FFFF040001002A46314627
:1015C8002046FFF7FEFC002842D123681A69636AA7
:1015D8001A70636A01336362228D013A92B22285DE
:1015E800638D9BB2013B9BB263852368596911F0F7
:1015F800040F89D0032A0FD023681A69636A1A7006
:10160800636A01336362238D013B2385638D9BB23B
:10161800013B9BB2638577E71A6822F480621A60FF
:10162800EAE7202384F83D30002384F83E3084F82C
:101638003C30A4E60227A2E60227A0E601279EE6A0
:1016480001279CE601279AE6012798E6012796E6F6
:10165800012794E682B0002100910B4B5A6C42F4AA
:1016680080425A645A6C02F480420092009A0191B6
:101678001A6C42F080521A641B6C03F08053019379
:10168800019B02B0704700BF0038024030B589B0F6
:101698000023039304930593069307930268144B5E
:1016A8009A4201D009B030BD00250195114C236B39
:1016B80043F002032363236B03F002030193019BAE
:1016C800C02303931223049303230693042307934D
:1016D80003A90948FFF732F90295236C43F4001374
:1016E8002364236C03F400130293029BDAE700BF20
:1016F800005400400038024000040240002800F076
:10170800E08170B582B00446036813F0010F3BD046
:101718009F4B9B6803F00C03042B2CD09C4B9B68BD
:1017280003F00C03082B21D06368B3F5803F4FD03A
:10173800B3F5A02F52D0964B1A6822F480321A6063
:101748001A6822F480221A606368002B50D0FFF7D1
:1017580071F805468E4B1B6813F4003F14D1FFF750
:1017680069F8401B6428F5D90320B1E1884B5B6810
:1017780013F4800FD8D0864B1B6813F4003F03D0B6
:101788006368002B00F09F81236813F0020F54D088
:101798007F4B9B6813F00C0F3ED07D4B9B6803F08A
:1017A8000C03082B33D0E368002B68D0794B012257
:1017B8001A60FFF73FF80546754B1B6813F0020FD8
:1017C80054D1FFF737F8401B0228F5D903207FE1F1
:1017D8006F4A136843F480331360B5E76C4B1A689B
:1017E80042F480221A601A6842F480321A60ABE729
:1017F800FFF720F80546664B1B6813F4003FC3D07B
:10180800FFF718F8401B6428F5D9032060E1604B06
:101818005B6813F4800FC6D15D4B1B6813F0020F91
:1018280003D0E368012B40F05081594A136823F034
:10183800F803216943EAC1031360236813F0080F12
:1018480042D063696BB3534B0122C3F8802EFEF775
:10185800F1FF05464E4B5B6F13F0020F34D1FEF7D4
:10186800E9FF401B0228F5D9032031E1484A1368F3
:1018780023F0F803216943EAC1031360DDE7454B10
:1018880000221A60FEF7D6FF0546414B1B6813F08D
:10189800020FD2D0FEF7CEFF401B0228F5D9032055
:1018A80016E13C4B0022C3F8802EFEF7C3FF054625
:1018B800374B5B6F13F0020F06D0FEF7BBFF401BE0
:1018C8000228F5D9032003E1236813F0040F77D029
:1018D8002F4B1B6C13F0805F33D1002301932C4BEB
:1018E8001A6C42F080521A641B6C03F08053019307
:1018F800019B0125284B1B6813F4807F23D0A36824
:10190800012B34D0052B38D0214B1A6F22F001025D
:101918001A671A6F22F004021A67A368002B3DD0D9
:10192800FEF788FF06461A4B1B6F13F0020F46D1CD
:10193800FEF780FF801B41F288339842F3D90320D9
:10194800C6E00025D6E7144A136843F48073136091
:10195800FEF770FF0646104B1B6813F4807FCED14C
:10196800FEF768FF801B0228F5D90320B0E0084A7B
:10197800136F43F001031367CFE7054B1A6F42F06B
:1019880004021A671A6F42F001021A67C5E700BF1E
:10199800003802400000474200700040FEF74AFF4E
:1019A8000646524B1B6F13F0020F08D0FEF742FF9A
:1019B800801B41F288339842F3D9032088E0EDB9BF
:1019C800A369002B00F08380484A926802F00C0259
:1019D800082A51D0022B17D0454B00221A66FEF771
:1019E80029FF0446414B1B6813F0007F42D0FEF7E5
:1019F80021FF001B0228F5D9032069E03B4A136C3C
:101A080023F080531364DBE7394B00221A66FEF794
:101A180011FF0546354B1B6813F0007F06D0FEF713
:101A280009FF401B0228F5D9032051E0E369226A27
:101A38001343626A43EA8213A26A5208013A43EAEC
:101A48000243E26A43EA0263284A5360284B0122B0
:101A58001A66FEF7EFFE0446244B1B6813F0007F5E
:101A680006D1FEF7E7FE001B0228F5D903202FE078
:101A780000202DE000202BE0012B2BD01B4B5B68B6
:101A880003F48001E269914226D103F03F02216A02
:101A98008A4223D1616A47F6C0721A40B2EB811FAD
:101AA8001ED103F44031A26A5208013AB1EB024F49
:101AB80018D103F07063E26AB3EB026F14D100200F
:101AC80006E001207047012002E0012000E000202C
:101AD80002B070BD0120FBE70120F9E70120F7E71C
:101AE8000120F5E70120F3E70120F1E70038024083
:101AF8000000474208B5264B9B6803F00C03042BF3
:101B080041D0082B41D1224B5A6802F03F025B6852
:101B180013F4800F12D01E4B5968C1F388111D4869
:101B28000023A1FB0001FEF74BFB194B5B68C3F3D5
:101B3800014301335B00B0FBF3F008BD144B586858
:101B4800C0F388104FEA401CBCEB000C6EEB0E0E85
:101B58004FEA8E1343EA9C634FEA8C11B1EB0C01F8
:101B680063EB0E03DB0043EA5173C90011EB000C71
:101B780043F10003990200234FEA8C2041EA9C516B
:101B8800FEF71EFBD1E70348D7E70348D5E700BFB8
:101B98000038024040787D010024F400002800F05D
:101BA8009B8070B50D4604464F4B1B6803F0070336
:101BB8008B4208D2CBB24C4A1370136803F0070368
:101BC8008B4240F08B80236813F0020F17D013F07C
:101BD800040F04D0454A936843F4E05393602368A4
:101BE80013F0080F04D0414A936843F460439360AC
:101BF8003E4A936823F0F003A1680B43936023687F
:101C080013F0010F32D06368012B21D09A1E012AEC
:101C180025D9364A126812F0020F61D033498A6812
:101C280022F0030213438B60FEF704FE06462F4B97
:101C38009B6803F00C036268B3EB820F16D0FEF7C3
:101C4800F9FD801B41F288339842F0D9032042E025
:101C5800264A126812F4003FE0D101203BE0234AF3
:101C6800126812F0007FD9D1012034E01E4B1B68A6
:101C780003F00703AB4207D9EAB21B4B1A701B6883
:101C880003F00703AB422DD1236813F0040F06D0ED
:101C9800164A936823F4E053E1680B439360236882
:101CA80013F0080F07D0114A936823F460432169A1
:101CB80043EAC1039360FFF71DFF0C4B9B68C3F316
:101CC80003130B4AD35CD8400A4B18600A4B1868B8
:101CD800FEF764FD002070BD012070470120FAE77F
:101CE8000120F8E70120F6E7003C024000380240F6
:101CF800281E00080800002004000020014B186876
:101D0800704700BF0800002008B5FFF7F7FF044B35
:101D18009B68C3F38223034AD35CD84008BD00BF45
:101D280000380240201E0008FEE7FEE7FEE7FEE757
:101D3800FEE770477047704708B5FEF76FFD08BDAE
:101D4800034AD2F8883043F47003C2F888307047E9
:101D580000ED00E0DFF834D0FFF7F2FF0C480D4942
:101D68000D4A002302E0D458C4500433C4188C42EE
:101D7800F9D30A4A0A4C002301E013600432A24254
:101D8800FBD300F019F8FEF7F7FC704700000220BB
:101D9800000000200C000020481E00080C00002055
:101DA800A0000020FEE702440346934200D170479A
:101DB80003F8011BF9E7000070B50D4D0D4C641BCD
:101DC800A4100026A64209D10B4D0C4C00F018F8BF
:101DD800641BA4100026A64205D170BD55F8043B2B
:101DE80098470136EEE755F8043B98470136F2E785
:101DF800401E0008401E0008401E0008441E00083F
:101E0800F8B500BFF8BC08BC9E467047F8B500BFDF
:081E1800F8BC08BC9E467047AF
:101E200000000000010203040000000000000000A8
:081E3000010203040607080982
:081E3800C0E3FF7F0100000080
:041E4000AD010008E8
:041E44008901000808
:0C1E480001000000100000000024F40065
:0400000508001D5D75
:00000001FF
