:020000040800F2
:1000000000500020A9210008231900082519000824
:1000100027190008291900082B1900080000000002
:100020000000000000000000000000003107000890
:100030002D19000800000000D1070008150800086D
:10004000F1210008F1210008F1210008F121000848
:10005000F1210008F1210008F1210008F121000838
:10006000F1210008F1210008F1210008F121000828
:10007000F1210008F1210008F1210008F121000818
:10008000F1210008F1210008F1210008F121000808
:10009000F1210008F1210008F1210008F1210008F8
:1000A000F1210008F1210008F1210008F1210008E8
:1000B000F1210008F121000831190008F1210008A0
:1000C000F1210008F1210008F1210008F1210008C8
:1000D000F1210008F1210008F1210008F1210008B8
:1000E000F1210008F1210008F121000800000000C2
:1000F0000000000000000000000000000000000000
:0C01000000000000000000005FF808F1A3
:1001100010B5054C237833B9044B13B10448AFF341
:1001200000800123237010BD60000020000000004B
:10013000882B000808B5034B1BB103490348AFF3F4
:10014000008008BD0000000064000020882B00082B
:10015000034613F8012B002AFBD1181A0138704707
:10016000842801D0033070470020704708B501F0A3
:1001700009FE002008BD2DE9F04387B00E46446912
:10018000C4B18569B5B14768D0F80080D0F8109047
:10019000B0F90800FFF7E4FF0295019400903346A0
:1001A0004A464146384601F07FFD0590059807B064
:1001B000BDE8F083446805680769B0F90800FFF7F7
:1001C000CFFF05AB019300903346BAB229462046D3
:1001D00001F0A5FD0128E9D00020E8E708B500B945
:1001E000012001F019FF002008BD000008B50448F7
:1001F00000F0ECF94FF47A70FFF7F0FFF7E700BF7B
:10020000F42B000808B5044800F0E0F94FF47A70C8
:10021000FFF7E4FFF7E700BFFC2B000808B5044830
:1002200000F0D4F94FF47A70FFF7D8FFF7E700BF7A
:10023000042C0008034B0360034B0B608023136006
:10024000704700BF7C0200207C00002030B597B0D2
:100250001B4C0DF13C0CA646BEE80F00ACE80F00AD
:100260009EE807008CE8070000210FA8FFF783FF36
:10027000144B18600DF1200C04F11C0EBEE80F00A9
:10028000ACE80F009EE807008CE80700002108A8F2
:10029000FFF771FF0C4D28600DF1040E04F1380CCE
:1002A000BCE80F00AEE80F009CE807008EE80700EE
:1002B000002101A8FFF75FFF286017B030BD00BF25
:1002C000A02B0008D0020020D402002082B00A4BEC
:1002D0009A6942F020029A619A6902F02002009223
:1002E000009A9A6942F004029A619B6903F0040340
:1002F0000193019B02B0704700100240124A12F0B5
:10030000070F1ED0D11D21F00701C1F54063134432
:100310000A460E480260002141601344083B23F066
:1003200007030B48036059601960991A5160136004
:10033000084B1960084B1960084B4FF000421A60D7
:1003400070474FF44063E4E7F8020020F002002019
:10035000EC020020E4020020E8020020D802002085
:10036000154B1A461B688342FBD3516802EB010C04
:10037000844509D0416800EB010C634509D0036056
:10038000904218D010607047406801445160104698
:10039000F0E710B4094C2468A3420AD05B68194402
:1003A000416013681B680360904200D0106010BC6D
:1003B00070470460F8E77047F0020020EC0200206C
:1003C00038B5044601F018FD384B1B68B3B1384B03
:1003D0001B681C4250D1002C50D004F1080214F0CC
:1003E000070F02D022F007020832002A55D0314B05
:1003F0001B68934253D330490C6804E0FFF77EFF3B
:10040000E5E721461C466368934202D22368002B2D
:10041000F7D1264B1B68A34243D00D6808352368EB
:100420000B6063689B1A102B10D9A01810F0070FEF
:1004300008D04FF0500383F31188BFF36F8FBFF3E1
:100440004F8FFEE743606260FFF78AFF62681949D9
:100450000B689B1A0B60194909688B4201D2174936
:100460000B60134B1B681343636000232360144A23
:1004700013680133136002E0002500E0002501F05D
:100480004FFD15F0070F0ED04FF0500383F3118886
:10049000BFF36F8FBFF34F8FFEE70025EFE7002517
:1004A000EDE70025EBE7284638BD00BFEC02002051
:1004B000D8020020E8020020F0020020E402002020
:1004C000E0020020002834D038B50446A0F1080529
:1004D00050F8043C174A1268134208D14FF05003F9
:1004E00083F31188BFF36F8FBFF34F8FFEE750F890
:1004F000081C41B14FF0500383F31188BFF36F8F95
:10050000BFF34F8FFEE723EA020340F8043C01F0FB
:1005100073FC54F8041C084A13680B441360284603
:10052000FFF71EFF054A13680133136001F0F8FC62
:1005300038BD7047D8020020E8020020DC0200200D
:1005400000F1080343604FF0FF328260C360036133
:1005500000230360704700230361704743684B60CA
:100560009A688A605160996008610368013303608A
:10057000704730B40D68B5F1FF3F11D000F10803AA
:100580001C465B681A68AA42FAD963684B60996096
:100590008C606160086103680133036030BC7047A0
:1005A0000469F2E70369416882688A6041685160C2
:1005B0005A68824206D0002202611A68013A1A6023
:1005C0001868704782685A60F5E700000FB400B5FC
:1005D0008DB00EAB53F8042B0193282102A801F033
:1005E00037FE02A8FFF7B4FD4FF47A7382B202A976
:1005F000034801F030F90DB05DF804EB04B070472A
:100600007C10002008B50268034B9A4200D008BD58
:1006100000F09CF9FBE700BF0008004072B6FEE75F
:1006200000B591B02822002106A801F01FFE00238A
:1006300001930293039304930593022306930122EB
:100640000A9210220B920D9306A800F043FB70B99A
:100650000F2301930223029300210391049105913A
:1006600001A800F069FD20B911B05DF804FBFFF7A7
:10067000D5FFFFF7D3FF000008B500F055F9FFF7ED
:10068000CFFFFFF723FE01F039FDFFF7DFFDFFF796
:100690006DFD20210148FFF799FFFAE7142C0008AF
:1006A00082B0002301930D4B1B68B3F1FF3F08D0CC
:1006B0004FF0500383F31188BFF36F8FBFF34F8F59
:1006C000FEE74FF0500383F31188BFF36F8FBFF342
:1006D0004F8F019B002BFCD002B070470000002020
:1006E00006480068006880F3088862B661B6BFF308
:1006F0004F8FBFF36F8F00DF00BF000008ED00E0F9
:100700004FF0807340F8043C21F0010140F8081CD0
:10071000034B40F80C3C40F8202C4038704700BF99
:10072000A10600080000000000000000000000001A
:10073000074B19680868B0E8F00F80F30988BFF329
:100740006F8F4FF0000080F311884EF00D0E704750
:10075000781000204FF0500383F31188BFF36F8FA0
:10076000BFF34F8F0B4A136801331360012B00D086
:1007700070474FF0E023D3F8043D13F0FF0FF7D09C
:100780004FF0500383F31188BFF36F8FBFF34F8F88
:10079000FEE700BF00000020094B1B6843B94FF083
:1007A000500383F31188BFF36F8FBFF34F8FFEE7C2
:1007B000013B034A13600BB983F31188704700BFF4
:1007C0000000002000000000000000000000000009
:1007D000EFF30980BFF36F8F0D4B1A6820E9F00F1C
:1007E00010602DE908404FF0500080F3118801F0AF
:1007F00039FC4FF0000080F31188BDE8084019680B
:100800000868B0E8F00F80F30988BFF36F8F704776
:100810007810002008B54FF0500383F31188BFF320
:100820006F8FBFF34F8F01F0EFFA28B14FF0E02345
:100830004FF08052C3F8042D002383F3118808BDC4
:100840004FF0E022002313619361054B1B680549BB
:10085000A1FB03139B09013B5361072313617047FD
:100860000C000020D34D621010B582B02A4B1A78CC
:10087000D2B20192FF221A701B78DBB28DF80330DE
:100880009DF8033003F05003244A1370244B0722D1
:100890001A6009E0224A1368013B13609DF8033097
:1008A0005B00DBB28DF803309DF8033013F0800F4E
:1008B000F0D11B4B1B68032B08D04FF0500383F380
:1008C0001188BFF36F8FBFF34F8FFEE71B02144AEF
:1008D000136003F4E0631360019BDBB20E4A1370F4
:1008E0004FF0E023D3F8202D42F47002C3F8202DFE
:1008F000D3F8202D42F07042C3F8202DFFF7A0FF5F
:100900000024084B1C60FFF7EBFE01F0ABFBFFF788
:10091000C7FE204602B010BD00E400E0FC0E00203F
:10092000F80E00200000002008B5074A136843F0C5
:1009300010031360032000F04FF80F2000F050FE6A
:1009400000F088F9002008BD00200240034A116829
:10095000034B1B780B441360704700BF000F00204F
:1009600004000020014B1868704700BF000F0020F2
:10097000002808DB0901C9B200F1604000F56140C0
:1009800080F80013704700F00F000901C9B2014B55
:100990001954704714ED00E000B500F00700C0F1F5
:1009A000070CBCF1040F28BF4FF0040C031D062BED
:1009B0000FD9C31E4FF0FF3E0EFA0CF021EA0001E2
:1009C00099400EFA03FE22EA0E0241EA02005DF8A7
:1009D00004FB0023EEE70000074AD36823F4E0633A
:1009E0001B041B0C000200F4E060034343F0BF63F0
:1009F00043F40033D360704700ED00E010B50446C7
:100A0000054BD868C0F30220FFF7C6FF0146204619
:100A1000FFF7AEFF10BD00BF00ED00E0002807DBD0
:100A200000F01F02400901239340024A42F820309F
:100A3000704700BF00E100E070B582B00024A4461A
:100A4000A1E07E4DAB4214D00CD8A5F58015AB4289
:100A50000FD005F57025AB420BD0A5F58015AB4244
:100A600010D106E0764DAB4203D005F58035AB42A0
:100A700008D18B68002B50D0012B49D0426108244B
:100A800000E0CC68BEF1FF0F49D806464FEA8C0261
:100A900033680F25954023EA050304FA02F2134355
:100AA00033604B6813F0805F6BD0664B9A6942F0FD
:100AB00001029A619B6903F001030193019B4FEAD4
:100AC0009C02951C604B53F825600CF00305AD00AB
:100AD0000F23AB4026EA03065C4B984226D003F571
:100AE0008063984200F08C8003F58063984200F0A8
:100AF000898003F58063984216D0042317E0CC6800
:100B00000434BFE7CC680834BCE7CC680C34B9E7E0
:100B100002610824B6E70024B4E70424B2E7061D06
:100B2000ACF108029200B3E7032300E00023AB40DE
:100B300033430232444D45F822304B6813F4801F92
:100B400062D0434A936843EA0E0393604B6813F400
:100B5000001F5FD03E4AD36843EA0E03D3604B6860
:100B600013F4003F5CD03A4A536843EA0E035360E3
:100B70004B6813F4803F59D0354A136843EA0E039B
:100B800013600CF1010C0B6833FA0CF254D0012203
:100B900002FA0CF203EA020E32EA0303F1D14B68C7
:100BA000122B3FF64EAF122B3FF66CAF01A555F856
:100BB00023F000BF730A0008830A0008050B000831
:100BC000170B0008850A0008850A0008850A000836
:100BD000850A0008850A0008850A0008850A0008B9
:100BE000850A0008850A0008850A0008850A0008A9
:100BF000850A0008850A0008FF0A00080B0B000898
:100C0000012394E7022392E7114A936823EA0E0333
:100C100093609BE70E4AD36823EA0E03D3609EE7F6
:100C20000B4A536823EA0E035360A1E7084A13688E
:100C300023EA0E031360A4E702B070BD0000221087
:100C40000000311000100240000001400008014087
:100C50000004014000B583B0114B9A6942F00102D3
:100C60009A619A6902F001020092009ADA6942F0F0
:100C70008052DA61DB6903F080530193019B00220B
:100C80000F216FF00100FFF7B9FE064A536823F009
:100C9000E06343F00073536003B05DF804FB00BFF2
:100CA000001002400000014082B0084B1B68084A57
:100CB000A2FB03235B0A00FB03F3019300BF019B2C
:100CC0005A1E0192002BF9D102B070470C0000208F
:100CD000D34D6210002800F0F18170B582B0044657
:100CE000036813F0010F2CD0994B5B6803F00C03E1
:100CF000042B1DD0964B5B6803F00C03082B12D01D
:100D00006368B3F5803F41D0002B55D103F1804398
:100D100003F504331A6822F480321A601A6822F448
:100D200080221A6037E08A4B5B6813F4803FE7D07B
:100D3000874B1B6813F4003F03D06368002B00F05F
:100D4000BF81236813F0020F75D0814B5B6813F0ED
:100D50000C0F5FD07E4B5B6803F00C03082B54D064
:100D60002369002B00F08A807A4B01221A60FFF77A
:100D7000F9FD0546764B1B6813F0020F75D1FFF79E
:100D8000F1FD401B0228F5D903209EE1704A13684B
:100D900043F480331360636843B3FFF7E3FD054614
:100DA0006B4B1B6813F4003FCBD1FFF7DBFD401BFF
:100DB0006428F5D9032088E1B3F5A02F09D0644B4E
:100DC0001A6822F480321A601A6822F480221A60AB
:100DD000E1E703F18043A3F53C331A6842F4802233
:100DE0001A601A6842F480321A60D4E7FFF7BAFD3D
:100DF0000546574B1B6813F4003FA2D0FFF7B2FD26
:100E0000401B6428F5D903205FE1514B5B6813F464
:100E1000803FA5D14E4B1B6813F0020F03D023690E
:100E2000012B40F04F814A4A136823F0F8036169AF
:100E300043EAC1031360236813F0080F33D0A3699A
:100E4000002B5CD0434B0122C3F88024FFF78AFDBE
:100E500005463F4B5B6A13F0020F21D1FFF782FD7D
:100E6000401B0228F5D903202FE1394A136823F0EB
:100E7000F803616943EAC1031360DCE7354B0022E4
:100E80001A60FFF76FFD0546314B1B6813F0020F28
:100E9000D1D0FFF767FD401B0228F5D9032014E1EC
:100EA0000120FFF701FF236813F0040F00F0968084
:100EB000274BDB6913F0805F34D1254BDA6942F0B0
:100EC0008052DA61DB6903F080530193019B0125B5
:100ED000214B1B6813F4807F26D0E368012B3DD0A3
:100EE000002B53D103F1804303F504331A6A22F037
:100EF00001021A621A6A22F004021A6233E0154BE8
:100F00000022C3F88024FFF72DFD0546104B5B6AD5
:100F100013F0020FC7D0FFF725FD401B0228F5D9BB
:100F20000320D2E00025D3E70B4A136843F4807313
:100F30001360FFF717FD0646074B1B6813F4807F0D
:100F4000CBD1FFF70FFD801B6428F5D90320BCE04F
:100F50000010024000004242007000405F4A136AE5
:100F600043F001031362E36833B3FFF7FBFC06466B
:100F70005A4B1B6A13F0020F2FD1FFF7F3FC801BB3
:100F800041F288339842F3D903209EE0052B09D023
:100F9000524B1A6A22F001021A621A6A22F0040203
:100FA0001A62E0E74D4B1A6A42F004021A621A6AAA
:100FB00042F001021A62D6E7FFF7D4FC0646474B1F
:100FC0001B6A13F0020F08D0FFF7CCFC801B41F224
:100FD00088339842F3D9032077E0E5B9E369002B21
:100FE00072D03E4A526802F00C02082A56D0022BF8
:100FF00017D03B4B00221A66FFF7B4FC0446374B70
:101000001B6813F0007F47D0FFF7ACFC001B0228E1
:10101000F5D9032059E0314AD36923F08053D361D5
:10102000DCE72F4B00221A66FFF79CFC05462B4B92
:101030001B6813F0007F06D0FFF794FC401B0228CA
:10104000F5D9032041E0236AB3F5803F1AD0234944
:101050004B6823F47413226A606A024313434B60A3
:101060001F4B01221A66FFF77DFC04461B4B1B68D1
:1010700013F0007F0ED1FFF775FC001B0228F5D995
:10108000032022E0154A536823F40033A1680B4380
:101090005360DCE7002018E0002016E0012B16D09A
:1010A0000E4B5B6803F48031226A914211D103F444
:1010B0007013626A93420ED1002006E0012070474F
:1010C000012002E0012000E0002002B070BD0120FC
:1010D000FBE70120F9E70120F7E700BF001002401D
:1010E000000042420F4B5B6803F00C02082A01D05B
:1010F0000D487047C3F383420C49885C13F4803F6A
:101100000BD0084B5B68C3F34043094AD35C064AE3
:1011100002FB00F0B0FBF3F07047064B03FB00F05E
:10112000704700BF0010024000127A002C2C00080B
:10113000282C000800093D00002800F0A08070B5B0
:101140000D460446524B1B6803F007038B420BD23B
:101150004F4A136823F007030B431360136803F02F
:1011600007038B4240F08D80236813F0020F17D0E5
:1011700013F0040F04D0474A536843F4E06353600C
:10118000236813F0080F04D0424A536843F46053B5
:101190005360404A536823F0F003A1680B43536047
:1011A000236813F0010F31D06368012B20D0022B8C
:1011B00025D0384A126812F0020F64D035494A68C7
:1011C00022F0030213434B60FFF7CCFB0646314B82
:1011D0005B6803F00C036268B3EB820F16D0FFF775
:1011E000C1FB801B41F288339842F0D9032045E0CF
:1011F000284A126812F4003FE0D101203EE0254A5F
:10120000126812F0007FD9D1012037E0204B1B6813
:1012100003F00703AB420AD91D4A136823F0070302
:101220002B431360136803F00703AB422DD12368EF
:1012300013F0040F06D0174A536823F4E063E16803
:101240000B435360236813F0080F07D0114A53680B
:1012500023F46053216943EAC1035360FFF742FF5F
:101260000C4B5B68C3F303130B4AD35CD8400B4BA6
:1012700018600B4B186800F0B3F9002070BD012016
:1012800070470120FAE70120F8E70120F6E700BFE8
:101290000020024000100240442C00080C000020F6
:1012A00008000020014B1868704700BF0C000020A8
:1012B00008B5FFF7F7FF044B5B68C3F30223034A4B
:1012C000D35CD84008BD00BF001002403C2C000891
:1012D00008B5FFF7E7FF044B5B68C3F3C223034A7B
:1012E000D35CD84008BD00BF001002403C2C000871
:1012F0000F2303600B4B5A6802F0030242605A68E6
:1013000002F0F00282605A6802F4E062C2605B6838
:10131000DB0803F4E0630361034B1B6803F007037E
:101320000B60704700100240002002407047000030
:1013300090F83D30DBB2012B27D1022380F83D30FD
:101340000268D36843F00103D3600368114A9342F3
:1013500010D0B3F1804F0DD0A2F59432934209D052
:1013600002F58062934205D01A6842F001021A60C9
:10137000002070479A6802F00702062A07D01A6810
:1013800042F001021A6000207047012070470020DF
:10139000704700BF002C014070477047704770478E
:1013A00070B504460368DE681D6915F0020F10D0A1
:1013B00016F0020F0DD06FF002021A6101230377BD
:1013C00003689B6913F0030F5ED0FFF7E6FF00236D
:1013D000237715F0040F12D016F0040F0FD02368F6
:1013E0006FF004021A610223237723689B6913F4C8
:1013F000407F4FD02046FFF7D0FF0023237715F022
:10140000080F12D016F0080F0FD023686FF00802F3
:101410001A61042323772368DB6913F0030F40D09C
:101420002046FFF7BAFF0023237715F0100F12D0E4
:1014300016F0100F0FD023686FF010021A61082306
:1014400023772368DB6913F4407F31D02046FFF710
:10145000A4FF0023237715F0010F02D016F0010F2F
:101460002DD115F0800F02D016F0800F2FD115F07E
:10147000400F02D016F0400F31D115F0200F02D0EE
:1014800016F0200F33D170BDFFF786FF2046FFF71F
:1014900085FF9CE72046FFF77FFF2046FFF77EFF92
:1014A000ABE72046FFF778FF2046FFF777FFBAE764
:1014B0002046FFF771FF2046FFF770FFC9E723685A
:1014C0006FF001021A612046FFF79CF8C9E7236814
:1014D0006FF080021A61204600F081F8C7E72368A8
:1014E0006FF040021A612046FFF759FFC5E72368F5
:1014F0006FF020021A61204600F070F8C3E7000088
:1015000003681F4A90420AD0B0F1804F07D0A2F57D
:101510009432904203D002F58062904203D123F0CE
:1015200070034A681343164A90420AD0B0F1804FC4
:1015300007D0A2F59432904203D002F58062904227
:1015400003D123F44073CA68134323F080034A692C
:10155000134303608B68C3620B688362084B984235
:101560000AD001234361036913F0010F03D003691B
:1015700023F00103036170470B690363F1E700BFC8
:10158000002C014040B310B5044690F83D30F3B153
:10159000022384F83D30214651F8040BFFF7B0FFD9
:1015A000012384F8463084F83E3084F83F3084F8D4
:1015B000403084F8413084F8423084F8433084F875
:1015C000443084F8453084F83D30002010BD80F868
:1015D0003C30FFF7ABFEDBE70120704770477047F8
:1015E00030B589B00446214BDA6942F00402DA6171
:1015F000DB6903F004030193019B02A903A8FFF731
:1016000077FE069BCBB9FFF753FE0346184AA2FBB1
:1016100003239B0C013B1748174A026040F2E73254
:10162000C26043600023036183608361FFF7AAFF08
:10163000054630B1284609B030BDFFF739FE4300FA
:10164000E4E70C48FFF774FE05460028F2D11E209F
:10165000FFF7E4F90F2C01D90125EBE70022214621
:101660001E20FFF7CBF9054B1C60E3E7001002409A
:1016700083DE1B43040F0020000800400800002008
:10168000026802F10C0353E8003F23F490730C321C
:1016900042E800310029F3D1026802F1140353E853
:1016A000003F23F00103143242E800310029F3D156
:1016B000036B012B05D0202380F842300023036305
:1016C0007047026802F10C0353E8003F23F0100357
:1016D0000C3242E800310029F3D1ECE710B50446A2
:1016E0000268136923F44053C1680B431361836894
:1016F0000269134342691A430168CB6823F4B0536B
:1017000023F00C031343CB600268536923F4407346
:1017100081690B4353610268134B9A4220D0FFF753
:10172000C7FD024602EB820202EB820263689B0065
:10173000B2FBF3F20D48A0FB02314909642303FB1D
:1017400011231B013233A0FB03035B0903F0F002FA
:1017500002EB011203F00F03216813448B6010BDEC
:10176000FFF7B6FD0246DDE7003801401F85EB516B
:101770002DE9F04383B005460E4617469946DDF83D
:1017800028802B681C6836EA04040CBF012400245E
:10179000BC4228D1B8F1FF3FF3D0FFF7E3F8A0EB4C
:1017A0000900404523D8B8F1000F22D02B68DA6831
:1017B00012F0040FE5D0802EE3D0402EE1D01A685D
:1017C00012F0080FDDD0002401941A6801925B68C2
:1017D0000193019B2846FFF753FF08236B6485F8AC
:1017E0004040012000E0002003B0BDE8F08303206A
:1017F000FAE70320F8E760B310B5044690F84130EB
:1018000013B3242384F841302268D36823F40053AF
:10181000D3602046FFF762FF2268136923F49043E8
:1018200013612268536923F02A0353612268D36845
:1018300043F40053D36000206064202384F84130D7
:1018400084F84230606310BD80F8403000F070FCD6
:10185000D7E7012070472DE9F04182B01E4690F88D
:101860004130DBB2202B56D104460D46904600296C
:1018700055D00AB901204FE000234364212380F8AA
:101880004130FFF76FF80746A4F82480A4F82680BB
:10189000A368B3F5805F02D04FF0000814E023691D
:1018A0002BB34FF000080FE0202384F841300320D1
:1018B00032E038F8023B2268C3F308035360E28C3D
:1018C00092B2013A92B2E284E38C9BB293B1009659
:1018D0003B46002280212046FFF74AFF0028E3D143
:1018E000002DE6D015F8012B23685A60E7E7A846DB
:1018F0000025E9E700963B46002240212046FFF7FD
:1019000037FF18B9202384F8413005E0202384F8FC
:101910004130032000E0022002B0BDE8F081012048
:10192000FAE7FEE7FEE7FEE7FEE7FEE770470000A6
:1019300008B50248FFF734FD08BD00BF040F0020C2
:1019400010B503460C4A0D490D48006840B10C48DB
:1019500000680344521A934206D8094A136010BD26
:101960000748084C0460F2E700F088FC0C23036091
:101970004FF0FF30F3E700BF0050002000040000EC
:101980004C0F00201012002070470000084B1B680D
:101990001B6823B9074B4FF0FF321A607047044BA6
:1019A0001B68DB68DB685A68024B1A60704700BF2F
:1019B000C00F0020580F00202DE9F0470746984639
:1019C000089DDDF824900A9C266B02F18042013AC2
:1019D00006EB820626F00706C1B308464FF0000C5E
:1019E000BCF10F0F09D810F80C2004EB0C0383F89E
:1019F000342012B10CF1010CF2E7002384F84330DB
:101A0000062D00D90625E56265644FF0000AC4F88A
:101A100048A0201DFEF79FFD04F11800FEF79BFD76
:101A20002461C5F10705A5616462C4F84CA084F87F
:101A300050A0424639463046FEF762FE2060B9F1BA
:101A4000000F01D0C9F80040BDE8F087002384F8FA
:101A50003430D5E738B5002407E004EB8402930066
:101A60000E481844FEF76CFD0134062CF5D90C4DD8
:101A70002846FEF765FD0B4C2046FEF761FD0A483F
:101A8000FEF75EFD0948FEF75BFD0948FEF758FDCD
:101A9000084B1D60084B1C6038BD00BFEC0F0020D8
:101AA000D80F0020C40F0020A80F0020940F0020A2
:101AB0007C0F0020C00F0020BC0F002010B5044692
:101AC000FEF748FE214A136801331360204B1B6860
:101AD0005BB1204B1B686BB91D4B1B68DA6AE36A6C
:101AE0009A4207D81A4B1C6004E0194B1C6013681B
:101AF000012B28D0184A136801331360E06A0123D0
:101B00008340164A11680B43136000EB8000211DCF
:101B1000134B03EB8000FEF721FDFEF73DFE0D4B5E
:101B20001B687BB10A4B1B68DA6AE36A9A4209D2E6
:101B30004FF0E0234FF08052C3F8042DBFF34F8FD6
:101B4000BFF36F8F10BDFFF785FFD3E7780F00203D
:101B5000781000206C0F00205C0F0020700F002018
:101B6000EC0F002010B5044690F8513063B1012B02
:101B700011D0022B0ED04FF0500383F31188BFF326
:101B80006F8FBFF34F8FFEE7006BFEF79BFC204685
:101B9000FEF798FC10BDFEF795FCFBE70F4B1B68AA
:101BA000D3B110B5FEF7D6FD0D4BDB68DC68201D08
:101BB000FEF7F8FC0B4A1368013B1360074A1368F1
:101BC000013B1360FEF7E8FD2046FFF7CBFF034B18
:101BD0001B68002BE6D110BD704700BF900F00209E
:101BE000940F0020780F002008B5FFF7D7FF074BB0
:101BF0001B68012BF9D94FF0E0234FF08052C3F856
:101C0000042DBFF34F8FBFF36F8FEEE7EC0F002073
:101C100070B504460D461D4B1E681D4B18680430F8
:101C2000FEF7C0FC48B91A4B1B68DB6A01229A40D8
:101C300018490B6823EA02030B60B4F1FF3F0DD093
:101C40003444134B1B685C60A64210D9124B1868D1
:101C50000F4B19680431FEF78CFC70BD002DEFD0DE
:101C60000B4B196804310D48FEF778FCF5E70C4B77
:101C70001868074B19680431FEF77BFC094B1B6899
:101C8000A342EAD9074B1C60E7E700BF740F0020AE
:101C900078100020700F0020BC0F00207C0F002067
:101CA000C00F0020580F002030B587B00B9C7CB1CE
:101CB0000C9DB5B154250495049D542D1AD04FF0B8
:101CC000500383F31188BFF36F8FBFF34F8FFEE78D
:101CD0004FF0500383F31188BFF36F8FBFF34F8F23
:101CE000FEE74FF0500383F31188BFF36F8FBFF30C
:101CF0004F8FFEE7049D0C9D2C63022485F8514014
:101D000000240394029505AC01940A9C0094FFF70B
:101D100053FE0C98FFF7D2FE059807B030BD2DE9B1
:101D2000F04385B00746884614461E469000FEF7ED
:101D300047FB08B381465420FEF742FB0546A8B195
:101D4000C0F83090002380F85130039302900D9B2F
:101D500001930C9B00933346224641463846FFF7D9
:101D60002BFE2846FFF7AAFE012007E04846FEF7B3
:101D7000A9FB4FF0FF3001E04FF0FF3005B0BDE8A8
:101D8000F083000010B588B000240594069407AADB
:101D900006A905A8FEF74EFA059B0293069B019340
:101DA00000942346079A0E490E48FFF77DFF0E4B1D
:101DB000186090B14FF0500383F31188BFF36F8F19
:101DC000BFF34F8F094B4FF0FF321A60084B0122CF
:101DD0001A60084B1C60FEF747FD08B010BD00BF3D
:101DE000202C0008E91B0008540F0020580F002089
:101DF0006C0F0020740F0020024A13680133136037
:101E0000704700BF500F0020F8B53A4B1B68002BFD
:101E100069D1394B1D6801351D60C5B9374B1B6849
:101E20001B6843B14FF0500383F31188BFF36F8FEA
:101E3000BFF34F8FFEE7314A1168314B18681060CD
:101E40001960304A136801331360FFF79FFD2E4B72
:101E50001B68AB423DD900272C4B1B68DB6A03EBA8
:101E600083039A002A4B9B58012B00D90127294B49
:101E70001B68002B3CD001273AE001271F4B1B6851
:101E80001B6843B31D4B1B68DB68DC6863689D42BD
:101E900026D3261D3046FEF785FBA36A1BB104F14D
:101EA0001800FEF77FFBE36A01229A401A4908688E
:101EB00002430A6003EB83039A003146144810443E
:101EC000FEF74CFBE26A114B1B68DB6A9A42D4D2E4
:101ED000D4E70027D2E70C4B4FF0FF321A60BBE784
:101EE000094A1360B8E70D4A1368013313600027ED
:101EF0003846F8BD500F0020740F0020C00F00209E
:101F0000BC0F0020600F0020580F00207810002028
:101F1000EC0F0020640F0020700F0020680F0020DD
:101F200038B5354B1B6843B94FF0500383F3118824
:101F3000BFF36F8FBFF34F8FFEE7FEF70BFC2E4B07
:101F40001A68013A1A601B68002B4FD12B4B1B6893
:101F50000BB900244BE00024294B1B681BB3284B12
:101F6000DB68DC6804F11800FEF71CFB251D284621
:101F7000FEF718FBE06A01238340224A11680B43F5
:101F8000136000EB800029461F4B03EB8000FEF737
:101F9000E5FAE26A1D4B1B68DB6A9A42DCD31C4BF4
:101FA00001221A60D8E70CB1FFF7F0FC194B1C684E
:101FB00084B9174B1C68D4B14FF0E0234FF0805226
:101FC000C3F8042DBFF34F8FBFF36F8F01240EE0D2
:101FD000013C07D0FFF718FF0028F9D00C4B012275
:101FE0001A60F5E70B4B00221A60E2E70024FEF7C7
:101FF000D3FB204638BD00BF500F0020780F0020D3
:10200000A80F0020700F0020EC0F00207810002097
:10201000640F0020680F002010B5A8B10446104BD3
:102020001B6843B14FF0500383F31188BFF36F8FE8
:10203000BFF34F8FFEE7FFF7DFFE00212046FFF7DB
:10204000E7FDFFF76DFF48B94FF0E0234FF08052F6
:10205000C3F8042DBFF34F8FBFF36F8F10BD00BFC8
:10206000500F0020204B1B681BB1204B01221A602F
:1020700070471E4B00221A601D4B1B68B3FA83F396
:10208000DBB2C3F11F0303EB83018A0019498A58AD
:1020900042B94FF0500383F31188BFF36F8FBFF342
:1020A0004F8FFEE7134803EB83018A000244516817
:1020B0004968516003EB830C4FEA8C0208320244FA
:1020C000914209D003EB83039A000A4B13445B68E7
:1020D000DA68094B1A607047486862469100054A01
:1020E0000A445060EEE700BF500F0020640F00204C
:1020F000700F0020EC0F00207810002008B50A486F
:102100000A4B03604FF4E133436000238360C360F4
:1021100003610C2242618361C361FFF76CFB00B96C
:1021200008BDFEF77BFAFBE77C1000200038014079
:1021300010B586B0002302930393049305930268BD
:10214000174B9A4201D006B010BD03F558439A6967
:1021500042F480429A619A6902F480420092009AA5
:102160009A6942F004029A619B6903F004030193A7
:10217000019B4FF4007302930223039303230593FF
:10218000084C02A92046FEF757FC4FF480630293E7
:1021900000230393049302A92046FEF74DFCD2E7E7
:1021A0000038014000080140FFF7EEFB0B480C49E6
:1021B0000C4A002302E0D458C4500433C4188C42A3
:1021C000F9D3094A094C002301E013600432A2420A
:1021D000FBD300F059F8FEF74FFA704700000020DB
:1021E00060000020982C0008600000200C120020E5
:1021F000FEE730B51446002C05461A469BB005DABA
:102200008B2303604FF0FF301BB030BD4FF40273DF
:10221000ADF80C304FF0000319930CBF234604F1C6
:10222000FF33029305934FF6FF7300910491ADF8CD
:102230000E3069461E9B00F0ADF9431CBCBF8B23DA
:102240002B60002CE0D00022009B1A70DCE700001D
:1022500007B5009313460A46014603480068FFF796
:10226000C8FF03B05DF804FB1000002003460244E1
:10227000934200D1704703F8011BF9E7014B18683E
:10228000704700BF1000002070B500260C4D0D4CAB
:10229000641BA410A64209D100F076FC00260A4D6A
:1022A0000A4C641BA410A64205D170BD55F8043B2E
:1022B00098470136EEE755F8043B98470136F2E7B8
:1022C000902C0008902C0008902C0008942C0008FA
:1022D000704770470A44914200F1FF3300D17047C4
:1022E00010B511F8014B914203F8014FF9D110BD1F
:1022F00038B50546002940D051F8043C0C1F002B8E
:10230000B8BFE41800F0DEF81C4A136833B9636004
:1023100014602846BDE8384000F0DAB8A34208D976
:10232000206821188B4201BF19685B680918216079
:10233000EDE71A465B680BB1A342FAD91168501851
:10234000A0420BD120680144501883421160E0D1B3
:1023500018685B68084410605360DAE702D90C2300
:102360002B60D6E7206821188B4201BF19685B6893
:102370000918216063605460CBE738BD0812002063
:1023800070B50F4E0C463168054611B900F0A8FB38
:1023900030602146284600F0A3FB431C03D14FF0D8
:1023A000FF34204670BDC41C24F00304A042F8D0C2
:1023B000211A284600F094FB0130F2D1EFE700BF6C
:1023C000041200202DE9F843CD1C25F00305083543
:1023D0000C2D38BF0C25002D064601DBA94204D97F
:1023E0000C2333600020BDE8F883DFF8D48000F0D0
:1023F00069F8D8F800301C4644BB29463046FFF740
:10240000BFFF431C044658D1D8F800402746002F90
:1024100043D1002C4BD023683946304604EB0309E6
:1024200000F05EFB814542D1216830466D1A294695
:10243000FFF7A6FF01303AD023682B442360D8F879
:1024400000305A6862BBC8F800700FE02268521B67
:1024500020D40B2A17D96119A342256018BF5960EF
:10246000636808BFC8F8001062514B60304600F046
:102470002FF804F10B00231D20F00700C21A1CBF27
:102480001B1AA350AFE76268A3420CBFC8F8002034
:102490005A60EBE723466468AEE73C467F68B6E7E0
:1024A0001A465B68A342FBD100235360DEE70C238E
:1024B0003046336000F00CF894E70560D6E700BFC3
:1024C000081200200148FFF703BF00BF00120020E0
:1024D0000148FFF7FEBE00BF001200202DE9F047C3
:1024E0001F468E688246BE420C4690460B682DD829
:1024F000B1F90C2012F4906F26D06569096905EBDB
:102500004505A3EB010905EBD5757B1C4B446D100C
:102510009D4238BF1D46530527D52946FFF752FF78
:10252000064660B34A462169FFF7D4FEA38923F427
:10253000906343F08003A38126614E4426603E46AB
:102540006561A5EB0905A560BE4200D93E4632464D
:102550004146206800F0AAFA0020A3689B1BA360F4
:10256000236833442360BDE8F0872A4600F0D6FA9A
:1025700006460028E0D150462169FFF7B9FE0C233A
:10258000CAF80030A3894FF0FF3043F04003A38125
:10259000E9E700002DE9F04F98468B8907461B06B6
:1025A0000D4614469DB010D50B6973B94021FFF755
:1025B00009FF2860286130B90C233B604FF0FF30E1
:1025C0001DB0BDE8F08F40236B61002309932023E9
:1025D0008DF8293030234FF00109CDF80C80DFF859
:1025E00098818DF82A3023469A4613F8012B0AB1B8
:1025F000252AF9D1BAEB040B0BD05B4622462946BB
:102600003846FFF76BFF013000F0A780099A5A4463
:1026100009929AF80030002B00F09F8000234FF0C1
:10262000FF32CDE905230AF1010A049307938DF8DF
:1026300053301A935446052214F8011B4E4800F0FB
:102640005FFA049AD8B9D00644BF20238DF85330DE
:10265000110744BF2B238DF853309AF800302A2BF2
:1026600015D0544600204FF00A0C079A214611F865
:10267000013B303B092B4BD9B0B1079214E0A0EBE2
:10268000080309FA03F31343A2460493D2E7039B1A
:10269000191D1B680391002BBBBF5B4242F0020275
:1026A00007930793B8BF049223782E2B0AD163783F
:1026B0002A2B32D1039B02341A1D1B68039243EA72
:1026C000E3730593DFF8B4A003225046217800F0AD
:1026D00017FA38B14022049BA0EB0A008240134352
:1026E0000134049314F8011B062225488DF82810A4
:1026F00000F006FA002836D0224B1BBB039B0733A1
:1027000023F0070308330393099B334409936AE7D3
:102710000C4601200CFB0232A8E700234FF00A0C04
:10272000194601340593204610F8012B303A092A46
:1027300003D9002BC6D00591C4E7044601230CFB46
:102740000121F0E703AB00932A4638460E4B04A95B
:10275000AFF30080421C0646D6D1AB895B063FF53D
:102760002DAF09982CE703AB00932A463846064B59
:1027700004A900F07DF8EDE7542C00085A2C00085D
:102780005E2C000800000000DD2400082DE9F04761
:10279000164698468A680B6907469342B8BF1346A7
:1027A000336091F843200C46DDF820900AB10133E4
:1027B00033602368990642BF33680233336025686B
:1027C00015F0060506D104F1190AE36832689B1A70
:1027D000AB422BDC94F843302268003B18BF012346
:1027E000920630D44146384604F14302C8470130CE
:1027F00023D02368226903F00603042B14BF0025AD
:1028000033684FF0000608BFE56804F11A0408BFFA
:10281000ED1A54F8123C08BF25EAE5759342C4BF8F
:102820009B1AED18B5421AD1002008E00123524648
:1028300041463846C847013003D14FF0FF30BDE86C
:10284000F0870135C1E73020E11881F843005A1CB8
:1028500094F845102244023382F84310C2E7012362
:10286000224641463846C8470130E6D00136D9E70E
:102870002DE9FF470F7E9146782F80460C469A46F9
:102880000C9E01F1430207D8622F0AD8002F00F0F6
:10289000D180582F00F0B88004F1420684F84270CD
:1028A0003AE0A7F16303152BF6D801A151F823F004
:1028B000092900081D2900089928000899280008FE
:1028C00099280008992800081D290008992800085F
:1028D0009928000899280008992800081B2A000850
:1028E00047290008D52900089928000899280008D8
:1028F0003D2A00089928000847290008992800085F
:1029000099280008DD29000833681A1D1B68326009
:1029100004F1420684F8423001239CE033682068C9
:10292000191D3160060601D51D6803E04506FBD57B
:10293000B3F90050002D03DA2D236D4284F84330A3
:102940000A23584811E021683368080653F8045BED
:1029500002D4490648BFADB26F2F336014BF0A23BB
:1029600008235048002184F843106668002EA660B2
:1029700005DB21682E4321F0040121604BD016466F
:10298000B5FBF3F103FB1157C75D06F8017D2F4638
:10299000BB420D46F4D9082B0BD12368DF0708D5BD
:1029A000236961689942DEBF302306F8013C06F1D5
:1029B000FF36921B22614B4621464046CDF800A0CF
:1029C00003AAFFF7E3FE01304AD14FF0FF3004B015
:1029D000BDE8F087236843F020032360782732485E
:1029E00084F84570236831681F0651F8045B02D4EF
:1029F0005F0648BFADB23160D90744BF43F0200342
:102A000023601DB11023ADE72648E9E7236823F0D2
:102A100020032360F6E71646BDE733682568181DD6
:102A2000616930602E061B6801D5196002E06806F6
:102A3000FBD51980002316462361BCE733680021CB
:102A40001A1D32601E686268304600F059F808B1FD
:102A5000801B606063682361002384F84330AAE729
:102A60003246494640462369D0470130ADD02368FD
:102A70009B0713D4E068039B9842B8BF1846A6E7AB
:102A80000123324649464046D04701309DD00135AA
:102A9000E36803995B1AAB42F2DCEBE7002504F133
:102AA0001906F5E7652C0008762C0008884210B559
:102AB00001EB020402D98442234607D8431EA142F7
:102AC00008D011F8012B03F8012FF8E70146024462
:102AD0008A4200D110BD13F8014D02F8014DF7E70D
:102AE00038B50023054D044608462B60FEF728FF45
:102AF000431C02D12B6803B1236038BDFC110020B8
:102B0000034610B5C9B202449342184601D10020D1
:102B100003E0047801338C42F6D110BD2DE9F04179
:102B2000074614460D4621B91146BDE8F041FFF7AE
:102B300049BC2AB9FFF7DCFB25462846BDE8F081F1
:102B400000F01AF88442064602D8B4EB500FF4D8CD
:102B500021463846FFF736FC804608B94546ECE783
:102B6000B4422246294628BF3246FFF7B3FB294626
:102B70003846FFF7BDFBF1E751F8043C181F002B66
:102B8000BCBF0B58C0187047F8B500BFF8BC08BCF4
:102B90009E467047F8B500BFF8BC08BC9E4670471B
:102BA000F42B0008ED010008000000000000000008
:102BB000800000000000000000000000FC2B000866
:102BC00005020008FFFF0000000000008000000078
:102BD00000000000000000000C2C00081D0200088E
:102BE000FEFF000000000000800000000000000068
:102BF000000000005461736B310000005461736B7E
:102C0000320000005461736B332000005461736B19
:102C1000330000005068616E2064617420256400F8
:102C200049444C4500000000010200000203040575
:102C3000060708090A0B0C0D0E0F1010000000000B
:102C40000102030400000000000000000102030470
:102C500006070809232D302B2000686C4C006566A0
:102C600067454647003031323334353637383941DD
:102C700042434445460030313233343536373839F3
:082C80006162636465660000F7
:082C8800C8D4FF7F0100000029
:042C90003501000802
:042C94001101000822
:102C9800AAAAAAAA010000001000000000127A00E7
:102CA8001400002000000000C41000202C11002097
:102CB8009411002000000000000000000000000047
:102CC80000000000000000000000000000000000FC
:102CD80000000000000000000000000000000000EC
:102CE80000000000000000000000000000000000DC
:04000005080021A925
:00000001FF
