:020000040800F2
:1000000000000220A5120008C5050008C705000869
:10001000C9050008CB050008CD0500080000000058
:10002000000000000000000000000000CF050008F4
:10003000D105000800000000D3050008D505000820
:10004000F5120008F5120008F5120008F512000874
:10005000F5120008F5120008F5120008F512000864
:10006000F5120008F5120008F5120008F512000854
:10007000F5120008F5120008F5120008F512000844
:10008000F5120008F5120008F5120008F512000834
:10009000F5120008F5120008F5120008F512000824
:1000A000F5120008F5120008F5120008F512000814
:1000B000F5120008F5120008F5120008F512000804
:1000C000F5120008F5120008F5120008F5120008F4
:1000D000F5120008F5120008F5120008F5120008E4
:1000E000F5120008F5120008F5120008F5120008D4
:1000F000F5120008F5120008F5120008F5120008C4
:10010000F5120008F5120008F5120008F5120008B3
:10011000F5120008F5120008F5120008F5120008A3
:10012000F5120008F5120008F5120008F512000893
:10013000F5120008F5120008F5120008F512000883
:10014000F5120008F5120008F5120008F512000873
:10015000F5120008F5120008F5120008F512000863
:10016000F5120008F5120008F5120008F512000853
:10017000F5120008F5120008F51200080000000052
:08018000F5120008F512000859
:1001880010B5054C237833B9044B13B10448AFF3C9
:1001980000800123237010BD0C0000200000000027
:1001A8005013000808B5034B1BB103490348AFF3CC
:1001B800008008BD00000000100000205013000857
:1001C80053B94AB9002908BF00281CBF4FF0FF31B6
:1001D8004FF0FF3000F088B9ADF1080C6DE904CE9E
:1001E80000F006F8DDF804E0DDE9022304B070470A
:1001F8002DE9F047089D8E4604468846002B4AD1D3
:100208008A42174662D9B2FA82F64EB1C6F1200385
:1002180001FA06F820FA03F3B74043EA0808B440A5
:100228004FEA174E1FFA87FCB8FBFEF1230C0EFBB2
:10023800118843EA084301FB0CF29A4209D9FB18DA
:1002480001F1FF3080F0EA809A4240F2E7800239FB
:100258003B449A1AA3B2B2FBFEF00EFB102243EA0B
:10026800024300FB0CFC9C4509D9FB1800F1FF3246
:1002780080F0D6809C4540F2D3803B44023840EA67
:100288000140A3EB0C0300211DB1F3400022C5E996
:100298000032BDE8F0878B4205D90DB1C5E90001F0
:1002A80000210846F5E7B3FA83F1002946D17345E2
:1002B80002D3824200F20581841A6EEB0302012008
:1002C8009046002DE5D0C5E90048E2E7002A00F095
:1002D8009080B2FA82F6002E40F0A4808A1A030CAD
:1002E8004FEA174E80B2BCB20121B2FBFEFC0EFBF6
:1002F8001C2243EA024304FB0CF29A4207D9FB187A
:100308000CF1FF3802D29A4200F2E080C4469B1AF0
:10031800B3FBFEF20EFB123340EA034302FB04F484
:100328009C4207D9FB1802F1FF3002D29C4200F22E
:10033800CA8002461B1B42EA0C40A5E7C1F1200611
:100348008B4022FA06F71F430EFA01F420FA06F34F
:100358002EFA06FE4FEA1749234300FA01F81FFA5E
:1003680087FCBEFBF9F01C0C09FB10EE44EA0E44B6
:1003780000FB0CFEA64502FA01F209D93C1900F16E
:10038800FF3A80F09C80A64540F2998002383C44B0
:10039800A4EB0E041FFA83FEB4FBF9F309FB134424
:1003A8004EEA044403FB0CFCA44508D93C1903F1AC
:1003B800FF3E80F08280A4457FD9023B3C4443EA5B
:1003C8000040A4EB0C04A0FB02EC64457346E14634
:1003D80062D35FD05DB1B8EB030264EB090404FAA1
:1003E80006F622FA01F31E43CC40C5E90064002159
:1003F8004FE7B1FBF2FC010C41EA0E4180B240EA42
:1004080001423B4638463C46B846BE462026B1FB2C
:10041800F7F1A2EB080241EA0C4166E7014618E74A
:1004280010462CE7C6F120022EFA02F3B740B1407D
:1004380020FA02F24FEA174E0A43B3FBFEF8BCB2A9
:100448000EFB1833110C41EA034108FB04F9B040D4
:1004580089454FEA104380B23ED9791808F1FF3C2C
:1004680001D289451FD8A1EB0901B1FBFEF909FBAF
:1004780004F80EFB191192B242EA0142424529D210
:10048800BA1809F1FF31C4D24245C2D2A9F102011A
:100498003A44BEE7F0459DD2BEEB02036CEB070C75
:1004A8000138E14696E7A7EB09094944A8F1020C8F
:1004B800B1FBFEF909FB04F8DBE773467FE750461A
:1004C80066E70846FDE63B44023A33E7ACF1020C26
:1004D8003B441CE749469CE7A1EB0901C446B1FB34
:1004E800FEF909FB04F8C4E7704700BF72B6FEE7DF
:1004F80000B595B03022002108A800F0F8FE0023CE
:10050800039304930593069307930193184A116C78
:1005180041F080511164126C02F080520192019AEC
:100528000293144A116841F480411160126802F480
:1005380080420292029A0222089201220B92102211
:100548000C920E9308A800F061F868B90F23039382
:100558000021049105910691079103A800F0A6FADD
:1005680020B915B05DF804FBFFF7C0FFFFF7BEFF29
:10057800003802400070004010B500F0F9FCFFF7A9
:10058800B7FF00F03FFD00F07DFD0B4C01224FF45A
:100598008051204600F056FC4FF47A7000F014FDAC
:1005A80000224FF48051204600F04CFC4FF47A7042
:1005B80000F00AFDE9E700BF000C0240FEE7FEE795
:1005C800FEE7FEE7FEE770477047704708B500F0A2
:1005D800E9FC08BD82B0002100910B4B5A6C42F433
:1005E80080425A645A6C02F480420092009A019147
:1005F8001A6C42F080521A641B6C03F0805301930A
:10060800019B02B0704700BF00380240002800F08C
:10061800E08170B582B00446036813F0010F3BD047
:100628009F4B9B6803F00C03042B2CD09C4B9B68BE
:1006380003F00C03082B21D06368B3F5803F4FD03B
:10064800B3F5A02F52D0964B1A6822F480321A6064
:100658001A6822F480221A606368002B50D000F0D8
:10066800ADFC05468E4B1B6813F4003F14D100F017
:10067800A5FC401B6428F5D90320B1E1884B5B68D1
:1006880013F4800FD8D0864B1B6813F4003F03D0B7
:100698006368002B00F09F81236813F0020F54D089
:1006A8007F4B9B6813F00C0F3ED07D4B9B6803F08B
:1006B8000C03082B33D0E368002B68D0794B012258
:1006C8001A6000F07BFC0546754B1B6813F0020F9F
:1006D80054D100F073FC401B0228F5D903207FE1B8
:1006E8006F4A136843F480331360B5E76C4B1A689C
:1006F80042F480221A601A6842F480321A60ABE72A
:1007080000F05CFC0546664B1B6813F4003FC3D041
:1007180000F054FC401B6428F5D9032060E1604BCD
:100728005B6813F4800FC6D15D4B1B6813F0020F92
:1007380003D0E368012B40F05081594A136823F035
:10074800F803216943EAC1031360236813F0080F13
:1007580042D063696BB3534B0122C3F8802E00F07B
:100768002DFC05464E4B5B6F13F0020F34D100F0A1
:1007780025FC401B0228F5D9032031E1484A1368BB
:1007880023F0F803216943EAC1031360DDE7454B11
:1007980000221A6000F012FC0546414B1B6813F05A
:1007A800020FD2D000F00AFC401B0228F5D9032022
:1007B80016E13C4B0022C3F8802E00F0FFFB0546F3
:1007C800374B5B6F13F0020F06D000F0F7FB401BAE
:1007D8000228F5D9032003E1236813F0040F77D02A
:1007E8002F4B1B6C13F0805F33D1002301932C4BEC
:1007F8001A6C42F080521A641B6C03F08053019308
:10080800019B0125284B1B6813F4807F23D0A36824
:10081800012B34D0052B38D0214B1A6F22F001025E
:100828001A671A6F22F004021A67A368002B3DD0DA
:1008380000F0C4FB06461A4B1B6F13F0020F46D19B
:1008480000F0BCFB801B41F288339842F3D90320A7
:10085800C6E00025D6E7144A136843F48073136092
:1008680000F0ACFB0646104B1B6813F4807FCED11A
:1008780000F0A4FB801B0228F5D90320B0E0084A49
:10088800136F43F001031367CFE7054B1A6F42F06C
:1008980004021A671A6F42F001021A67C5E700BF1F
:1008A80000380240000047420070004000F086FB1C
:1008B8000646524B1B6F13F0020F08D000F07EFB68
:1008C800801B41F288339842F3D9032088E0EDB9C0
:1008D800A369002B00F08380484A926802F00C025A
:1008E800082A51D0022B17D0454B00221A6600F077
:1008F80065FB0446414B1B6813F0007F42D000F0B3
:100908005DFB001B0228F5D9032069E03B4A136C04
:1009180023F080531364DBE7394B00221A6600F09A
:100928004DFB0546354B1B6813F0007F06D000F0E1
:1009380045FB401B0228F5D9032051E0E369226AF0
:100948001343626A43EA8213A26A5208013A43EAED
:100958000243E26A43EA0263284A5360284B0122B1
:100968001A6600F02BFB0446244B1B6813F0007F2B
:1009780006D100F023FB001B0228F5D903202FE045
:1009880000202DE000202BE0012B2BD01B4B5B68B7
:1009980003F48001E269914226D103F03F02216A03
:1009A8008A4223D1616A47F6C0721A40B2EB811FAE
:1009B8001ED103F44031A26A5208013AB1EB024F4A
:1009C80018D103F07063E26AB3EB026F14D1002010
:1009D80006E001207047012002E0012000E000202D
:1009E80002B070BD0120FBE70120F9E70120F7E71D
:1009F8000120F5E70120F3E70120F1E70038024084
:100A08000000474208B5264B9B6803F00C03042BF3
:100A180041D0082B41D1224B5A6802F03F025B6853
:100A280013F4800F12D01E4B5968C1F388111D486A
:100A38000023A1FB0001FFF7C3FB194B5B68C3F35D
:100A4800014301335B00B0FBF3F008BD144B586859
:100A5800C0F388104FEA401CBCEB000C6EEB0E0E86
:100A68004FEA8E1343EA9C634FEA8C11B1EB0C01F9
:100A780063EB0E03DB0043EA5173C90011EB000C72
:100A880043F10003990200234FEA8C2041EA9C516C
:100A9800FFF796FBD1E70348D7E70348D5E700BF40
:100AA8000038024040787D010024F400002800F05E
:100AB8009B8070B50D4604464F4B1B6803F0070337
:100AC8008B4208D2CBB24C4A1370136803F0070369
:100AD8008B4240F08B80236813F0020F17D013F07D
:100AE800040F04D0454A936843F4E05393602368A5
:100AF80013F0080F04D0414A936843F460439360AD
:100B08003E4A936823F0F003A1680B43936023687F
:100B180013F0010F32D06368012B21D09A1E012AED
:100B280025D9364A126812F0020F61D033498A6813
:100B380022F0030213438B6000F040FA06462F4B65
:100B48009B6803F00C036268B3EB820F16D000F0C9
:100B580035FA801B41F288339842F0D9032042E0ED
:100B6800264A126812F4003FE0D101203BE0234AF4
:100B7800126812F0007FD9D1012034E01E4B1B68A7
:100B880003F00703AB4207D9EAB21B4B1A701B6884
:100B980003F00703AB422DD1236813F0040F06D0EE
:100BA800164A936823F4E053E1680B439360236883
:100BB80013F0080F07D0114A936823F460432169A2
:100BC80043EAC1039360FFF71DFF0C4B9B68C3F317
:100BD80003130B4AD35CD8400A4B18600A4B1868B9
:100BE80000F0A0F9002070BD012070470120FAE74D
:100BF8000120F8E70120F6E7003C024000380240F7
:100C0800701300080800002004000020014B186839
:100C1800704700BF0800002008B5FFF7F7FF044B36
:100C28009B68C3F38223034AD35CD84008BD00BF46
:100C3800003802406813000808B5FFF7E7FF044BC7
:100C48009B68C3F34233034AD35CD84008BD00BF56
:100C5800003802406813000800230F2B00F2E980D7
:100C680070B582B065E085684FEA430E032404FA44
:100C78000EF425EA0405CC6804FA0EF42C438460CB
:100C8800446824EA02044A68C2F300129A402243E4
:100C980042605CE0DC08083450F8242003F00705C3
:100CA800AD004FF00F0E0EFA05FE22EA0E0E0A698D
:100CB800AA4042EA0E0240F824205CE0072200E045
:100CC800002202FA0EF22A4302345A4D45F8242033
:100CD800594A94686FEA0C0224EA0C054E6816F427
:100CE800801F01D04CEA0405534CA560E46802EA71
:100CF80004054E6816F4001F01D04CEA04054E4C5A
:100D0800E560646802EA04054E6816F4003F01D005
:100D18004CEA0405484C6560246822404D6815F487
:100D2800803F01D04CEA0402434C226001330F2B70
:100D38007DD801229A400C6804EA020C32EA0404C5
:100D4800F4D14C6804F00304013C012C8BD94A68A7
:100D580002F00302032A09D0C4685D000322AA40F6
:100D680024EA02048A68AA402243C2604A6802F060
:100D78000302022A8ED004684FEA430E032202FAC5
:100D88000EF224EA02044A6802F0030202FA0EF2A2
:100D9800224302604A6812F4403FC7D00022019201
:100DA800264A546C44F480445464526C02F48042E1
:100DB8000192019A9C08A51C1E4A52F8255003F07E
:100DC800030E4FEA8E0E0F2202FA0EF225EA0205F2
:100DD8001B4A90423FF474AF02F5806290421AD0E9
:100DE80002F58062904218D002F58062904216D0D7
:100DF80002F58062904214D002F58062904212D0CF
:100E080002F58062904210D002F5806290423FF471
:100E180055AF082255E7012253E7022251E7032282
:100E28004FE704224DE705224BE7062249E702B0C7
:100E380070BD704700380140003C01400038024056
:100E4800000002400AB1816170470904816170475E
:100E5800002808DB0901C9B200F1604000F56140D3
:100E680080F80013704700F00F000901C9B2014B68
:100E78001954704714ED00E000B500F00700C0F108
:100E8800070CBCF1040F28BF4FF0040C031D062B00
:100E98000FD9C31E4FF0FF3E0EFA0CF021EA0001F5
:100EA80099400EFA03FE22EA0E0241EA02005DF8BA
:100EB80004FB0023EEE70000074AD36823F4E0634D
:100EC8001B041B0C000200F4E060034343F0BF6303
:100ED80043F40033D360704700ED00E010B50446DA
:100EE800054BD868C0F30220FFF7C6FF014620462D
:100EF800FFF7AEFF10BD00BF00ED00E00138B0F114
:100F0800807F0BD24FF0E0235861054AF02182F828
:100F180023100020986107221A617047012070474A
:100F280000ED00E010B504460E4B1A784FF47A73C2
:100F3800B3FBF2F30C4A1068B0FBF3F0FFF7DEFFE7
:100F480068B90F2C01D901200AE0002221464FF090
:100F5800FF30FFF7C3FF054B1C60002000E00120B5
:100F680010BD00BF00000020080000200400002081
:100F780008B50B4B1A6842F400721A601A6842F4FA
:100F880080621A601A6842F480721A600320FFF7C0
:100F980093FF0F20FFF7C6FFFFF71CFB002008BDDB
:100FA800003C0240034A1168034B1B780B44136052
:100FB800704700BF2800002000000020014B18687F
:100FC800704700BF2800002038B50446FFF7F6FF39
:100FD8000546B4F1FF3F02D0044B1B781C44FFF7D1
:100FE800EDFF401BA042FAD338BD00BF000000202F
:100FF800034AD2F8883043F47003C2F88830704747
:1010080000ED00E030B589B0002403940494059401
:10101800069407940094194B1A6B42F080021A63E5
:101028001A6B02F080020092009A01941A6B42F047
:1010380008021A631A6B02F008020192019A0294DC
:101048001A6B42F001021A631B6B03F0010302934F
:10105800029B0B4D22464FF4A0412846FFF7F2FEB3
:101068004FF4A0430393012304930594069403A922
:101078002846FFF7F1FD09B030BD00BF0038024037
:10108800000C024008B50A480A4B03604FF4E133EC
:10109800436000238360C36003610C224261836163
:1010A800C36100F0CBF800B908BDFFF71FFAFBE7F2
:1010B8002C0000200010014000B589B000230393E4
:1010C8000493059306930793026803F1804303F59D
:1010D80088339A4202D009B05DF804FB00210191DF
:1010E80003F594335A6C42F010025A645A6C02F0B9
:1010F80010020192019A02911A6B42F001021A63DE
:101108001B6B03F001030293029B4FF4C06303932C
:1011180002230493032306930723079303A9024892
:10112800FFF79AFDD7E700BF0000024010B504465C
:101138000268136923F44053C1680B431361836841
:1011480002691A4343691A43C3691A430168CB68A1
:1011580023F4164323F00C031343CB60026853694E
:1011680023F4407381690B4353610368314A934206
:1011780006D002F58062934202D0FFF74DFD01E0F0
:10118800FFF75AFDE369B3F5004F29D00021031892
:1011980049411B1841F10001C90041EA5371DB00C4
:1011A800181863684FEA83024FEA937341F100010C
:1011B800FFF706F8204AA2FB00314909642303FB24
:1011C80011031B013233A2FB03235B0903F0F00276
:1011D80002EB011203F00F03216813448B6010BD6A
:1011E8000023021843EB0301121841F10001C90062
:1011F80041EA5271D200101841F100016268921858
:101208005B41FEF7DDFF0C4AA2FB0031490964236C
:1012180003FB1103DB003233A2FB03235B095A00F3
:1012280002F4F87202EB011203F007032168134479
:101238008B60D4E7001001401F85EB5160B310B5F7
:10124800044690F8413013B3242384F841302268CF
:10125800D36823F40053D3602046FFF767FF226862
:10126800136923F4904313612268536923F02A0316
:1012780053612268D36843F40053D360002060644C
:10128800202384F8413084F84230606310BD80F830
:101298004030FFF711FFD7E701207047DFF834D05F
:1012A800FFF7A6FE0C480D490D4A002302E0D4586A
:1012B800C4500433C4188C42F9D30A4A0A4C002398
:1012C80001E013600432A242FBD300F019F8FFF7E3
:1012D80053F9704700000220000000200C00002095
:1012E800901300080C00002074000020FEE7024460
:1012F8000346934200D1704703F8011BF9E7000049
:1013080070B50D4D0D4C641BA4100026A64209D1E2
:101318000B4D0C4C00F018F8641BA4100026A642D4
:1013280005D170BD55F8043B98470136EEE755F8EE
:10133800043B98470136F2E7881300088813000831
:10134800881300088C130008F8B500BFF8BC08BC67
:101358009E467047F8B500BFF8BC08BC9E4670476B
:10136800000000000102030400000000000000006B
:08137800010203040607080945
:0813800078EEFF7F0100000080
:04138800AD010008AB
:04138C0089010008CB
:0C13900001000000100000000024F40028
:04000005080012A538
:00000001FF
