:020000040800F2
:1000000000500020BD150008911500089315000848
:1000100095150008971500089915000800000000C4
:100020000000000000000000000000009B15000818
:100030009D150008000000009F150008A11500088C
:100040000516000805160008051600080516000824
:100050000516000805160008051600080516000814
:10006000051600080516000805160008A915000861
:1000700005160008051600080516000805160008F4
:1000800005160008051600080516000805160008E4
:1000900005160008051600080516000805160008D4
:1000A00005160008051600080516000805160008C4
:1000B00005160008051600080516000805160008B4
:1000C00005160008051600080516000805160008A4
:1000D0000516000805160008051600080516000894
:1000E00005160008051600080516000800000000A7
:1000F0000000000000000000000000000000000000
:0C01000000000000000000005FF808F1A3
:10010C0010B5054C237833B9044B13B10448AFF345
:10011C0000800123237010BD0C00002000000000A3
:10012C006016000808B5034B1BB103490348AFF335
:10013C00008008BD000000001000002060160008C0
:10014C0000B585B000230193029303931848194A14
:10015C0002604FF4807282600122027303754FF4C7
:10016C006022C26143600223036100F02DFBB0B931
:10017C0000230193012302930723039301A90C4845
:10018C0000F07AF970B9012301930223029301A9BB
:10019C00074800F071F940B905B05DF804FB00F0B8
:1001AC0089F8E5E700F086F8EDE700F083F8F3E76F
:1001BC006C0000200024014010B586B0002302938F
:1001CC0003930493059302681D4B9A4201D006B029
:1001DC0010BD044603F56C439A6942F400729A61AF
:1001EC009A6902F400720092009A9A6942F0040231
:1001FC009A619B6903F004030193019B032302930F
:10020C00039302A90F4800F003FD0F480F4B036046
:10021C000023436083608022C2604FF480720261CD
:10022C004FF48062426120228261C36100F0DEFBE8
:10023C0018B9054B23625C62C9E700F03BF8F8E79C
:10024C000024014000080140280000200800024062
:10025C0000B583B00A4B5A6942F001025A615B69DE
:10026C0003F001030193019B002211460B2000F0C7
:10027C0075FB0B2000F082FB03B05DF804FB00BFA4
:10028C000010024082B00A4B9A6942F020029A6137
:10029C009A6902F020020092009A9A6942F00402D4
:1002AC009A619B6903F004030193019B02B07047B0
:1002BC000010024072B6FEE700B595B0282200216E
:1002CC000DEB020001F099F90023059306930793B7
:1002DC0008930993019302930393049301220A92C6
:1002EC004FF480330B930E920222119212934FF41F
:1002FC00E01313930AA800F0D1FDC8B90F2305939E
:10030C0002210691002307934FF48062089209930F
:10031C0005A800F0F5FF68B9022301934FF40043E0
:10032C00039301A801F0A2F830B915B05DF804FBF5
:10033C00FFF7C0FFFFF7BEFFFFF7BCFF08B500F0EB
:10034C0039F8FFF7B9FFFFF79DFFFFF781FFFFF7C4
:10035C00F7FE02220249034800F072F9FEE700BFE3
:10036C009C0000206C00002010B504460E4B1A783F
:10037C004FF47A73B3FBF2F30C4A1068B0FBF3F052
:10038C0000F00AFB68B90F2C01D901200AE0002209
:10039C0021464FF0FF3000F0E1FA054B1C600020C5
:1003AC0000E0012010BD00BF00000020080000206C
:1003BC000400002008B5074A136843F010031360CB
:1003CC00032000F0B9FA0F20FFF7CEFF00F02EFD4E
:1003DC00002008BD00200240034A1168034B1B7823
:1003EC000B441360704700BFA000002000000020E9
:1003FC00014B1868704700BFA0000020704708B57B
:10040C00436A9A6A12F0500F1ED19A6A42F4007233
:10041C009A621A68926802F46022B2F5602F03D0D7
:10042C001846FFF7EBFF08BD1A7B002AF8D19A6A31
:10043C0022F480729A629A6A12F4805FF0D19A6AFE
:10044C0042F001029A62EBE71B6A1B6B9847EAE7E2
:10045C00704708B5406AFFF7FBFF08BD704708B549
:10046C00406A836A43F040038362C36A43F0040327
:10047C00C362FFF7F3FF08BD30B482B000220192D3
:10048C0090F82420012A00F08F800346012280F886
:10049C0024204A68062A2DD80468606B02EB82027D
:1004AC00053A4FF01F0C0CFA02FC20EA0C000D6808
:1004BC0005FA02F2024362630A68092A38D91C68F9
:1004CC00E06802EB42021E3A4FF0070C0CFA02FCF9
:1004DC0020EA0C008D6805FA02F20243E2600A6819
:1004EC00103A012A34D90020002283F8242002B0CB
:1004FC0030BC70470C2A0DD80568286B02EB8202C1
:10050C00233A1F24944020EA04000C6894402043B2
:10051C002863D1E70568E86A02EB8202413A1F249E
:10052C00944020EA04000C6894402043E862C3E73E
:10053C001C68206902EB42024FF0070C0CFA02FC1B
:10054C0020EA0C008D6805FA02F202432261C6E72C
:10055C001A681648824205D09A6A42F020029A62C2
:10056C000120C1E7906810F4000F1BD1906840F493
:10057C00000090600A68102A01D00020B4E70C4AF1
:10058C0012680C49A1FB0212920C02EB820252007F
:10059C00019202E0019A013A0192019A002AF9D1E2
:1005AC000020A1E700209FE70220A0E700240140E3
:1005BC000800002083DE1B4330B583B00023019379
:1005CC0003689A6812F0010F33D104469A6842F01E
:1005DC0001029A60184B1B68184AA2FB03239B0C60
:1005EC00019302E0019B013B0193019B002BF9D18C
:1005FC00FFF7FEFE054623689B6813F0010F16D12A
:10060C00FFF7F6FE431B022BF5D923689B6813F00A
:10061C00010FF0D1A36A43F01003A362E36A43F025
:10062C000103E362002384F82430012002E000205F
:10063C0000E0002003B030BD0800002083DE1B4327
:10064C00F8B504460D46164601684448814259D017
:10065C00434B994256D094F82430012B7CD0012383
:10066C0084F824302046FFF7A7FF074600286ED1F8
:10067C00A16A21F4706121F0010141F48071A16241
:10068C002268374B9A4244D0A36A23F48013A362A6
:10069C00536813F4806F05D0A36A23F4405343F4DA
:1006AC008053A362A36A13F4805F48D0E36A23F0FB
:1006BC000603E362002384F82430236A294A9A62F1
:1006CC00236A294ADA62236A284A1A6323686FF07C
:1006DC0002021A602268936843F480739360216865
:1006EC0033462A464C31206A00F0B4F923689A68E4
:1006FC0002F46022B2F5602F24D09A6842F4801282
:10070C009A6027E0154B5B6813F4702FA3D0012778
:10071C0020E0A3F580635B6813F4702FB4D0A36A58
:10072C0043F48013A3620D4B5B6813F4806FB9D054
:10073C00A36A23F4405343F48053A362B2E700232B
:10074C00E362B7E79A6842F4A0029A6002E00023E1
:10075C0084F824303846F8BD0227FBE7002401401A
:10076C00002801400B0400085F0400086B0400081B
:10077C0038B503689A6812F0010F01D1002038BD1A
:10078C0004469A6822F001029A60FFF731FE054692
:10079C0023689B6813F0010F13D0FFF729FE431B4E
:1007AC00022BF5D923689B6813F0010FF0D0A36AD4
:1007BC0043F01003A362E36A43F00103E3620120F8
:1007CC00DDE70020DBE7000000287BD070B5044695
:1007DC00836A002B4DD02046FFF7CAFFA36A13F0A3
:1007EC00100369D1002867D1A26A22F4885222F042
:1007FC00020242F00202A2626268E1690A43217BB2
:10080C0042EA4102A568B5F5807F02D0012D36D0B1
:10081C001D46267D012E35D02668716821F469416C
:10082C00294371602568AE68274931401143A9609E
:10083C00A168B1F5807F01D0012902D12369013B68
:10084C001B052568E96A21F470010B43EB622368F0
:10085C0099681E4B0B409A4225D0A36A23F01203D1
:10086C0043F01003A362E36A43F00103E362012047
:10087C0027E0C36280F82430FFF79EFCABE74FF40F
:10088C008075C6E731B9A169013945EA413141F4B6
:10089C000065C1E7A16A41F02001A162E16A41F063
:1008AC000101E162B8E70023E362A36A23F00303CA
:1008BC0043F00103A36204E0A36A43F01003A362B4
:1008CC00012070BD01207047FDF7E1FFFE0E1FFFF8
:1008DC00002808DB0901C9B200F1604000F5614055
:1008EC0080F80013704700F00F000901C9B2014BEA
:1008FC001954704714ED00E000B500F00700C0F18A
:10090C00070CBCF1040F28BF4FF0040C031D062B81
:10091C000FD9C31E4FF0FF3E0EFA0CF021EA000176
:10092C0099400EFA03FE22EA0E0241EA02005DF83B
:10093C0004FB0023EEE70000074AD36823F4E063CE
:10094C001B041B0C000200F4E060034343F0BF6384
:10095C0043F40033D360704700ED00E010B504465B
:10096C00054BD868C0F30220FFF7C6FF01462046AE
:10097C00FFF7AEFF10BD00BF00ED00E0002807DB65
:10098C0000F01F02400901239340024A42F8203034
:10099C00704700BF00E100E00138B0F1807F0BD25E
:1009AC004FF0E0235861054AF02182F82310002013
:1009BC00986107221A6170470120704700ED00E032
:1009CC0030B40124056CAC40C56B6C60046863608A
:1009DC004368102B05D0036899600368DA6030BC5B
:1009EC00704703689A600368D960F8E750B310B495
:1009FC0002460168144B0B441448A0FB03031B096B
:100A0C009B001364124BD363022382F821300868D5
:100A1C006FF30D10536894682343D468234314690F
:100A2C0023435469234394692343D46923430343E5
:100A3C000B6000209063012382F8213082F82000A3
:100A4C0010BC704701207047F8FFFDBFCDCCCCCC5B
:100A5C000000024038B5044690F82000012832D03E
:100A6C00012084F8200094F82100C0B2012804D0A1
:100A7C00002384F82030022038BD022084F82100A5
:100A8C000020A0632568286820F00100286020461B
:100A9C00FFF796FFE36A5BB12268136843F00E031D
:100AAC0013602268136843F0010313600020E3E72E
:100ABC002268136823F0040313602268136843F060
:100ACC000A031360EDE70220D6E7000038B5C36BCC
:100ADC001A6804682568016C04238B40134235D0D6
:100AEC0015F0040F32D0236813F0200F03D12368C4
:100AFC0023F0040323600368434A934214D0143256
:100B0C00934218D01432934217D01432934217D018
:100B1C001432934217D01432934202D04FF08062B9
:100B2C0003E04FF4800200E00422384B5A60C36AA1
:100B3C0003B1984738BD4022F7E74FF48062F4E7E1
:100B4C004FF48042F1E74FF48022EEE702238B4012
:100B5C0013423CD015F0020F39D0236813F0200F4C
:100B6C0006D1236823F00A032360012380F8213087
:100B7C000368254A934214D0143293421CD0143289
:100B8C0093421BD0143293421BD0143293421BD08D
:100B9C001432934202D04FF0007203E04FF4001273
:100BAC0000E00222194B5A60002380F82030836A3F
:100BBC00002BBFD09847BDE72022F3E74FF400721B
:100BCC00F0E74FF40052EDE74FF40032EAE7082368
:100BDC008B401342AED015F0080FABD0236823F036
:100BEC000E032360026CC16B012303FA02F24A600C
:100BFC00836380F82130002380F82030036B002BB6
:100C0C0098D0984796E700BF0800024000000240C9
:100C1C0070B582B00024A446A1E07E4DAB4214D046
:100C2C000CD8A5F58015AB420FD005F57025AB425D
:100C3C000BD0A5F58015AB4210D106E0764DAB423A
:100C4C0003D005F58035AB4208D18B68002B50D012
:100C5C00012B49D04261082400E0CC68BEF1FF0FA3
:100C6C0049D806464FEA8C0233680F25954023EA93
:100C7C00050304FA02F2134333604B6813F0805FF0
:100C8C006BD0664B9A6942F001029A619B6903F042
:100C9C0001030193019B4FEA9C02951C604B53F896
:100CAC0025600CF00305AD000F23AB4026EA0306CC
:100CBC005C4B984226D003F58063984200F08C8000
:100CCC0003F58063984200F0898003F580639842B5
:100CDC0016D0042317E0CC680434BFE7CC68083482
:100CEC00BCE7CC680C34B9E702610824B6E70024F1
:100CFC00B4E70424B2E7061DACF108029200B3E796
:100D0C00032300E00023AB4033430232444D45F84B
:100D1C0022304B6813F4801F62D0434A936843EA35
:100D2C000E0393604B6813F4001F5FD03E4AD368E8
:100D3C0043EA0E03D3604B6813F4003F5CD03A4A8D
:100D4C00536843EA0E0353604B6813F4803F59D049
:100D5C00354A136843EA0E0313600CF1010C0B685F
:100D6C0033FA0CF254D0012202FA0CF203EA020E0E
:100D7C0032EA0303F1D14B68122B3FF64EAF122B24
:100D8C003FF66CAF01A555F823F000BF570C0008D7
:100D9C00670C0008E90C0008FB0C0008690C000843
:100DAC00690C0008690C0008690C0008690C000843
:100DBC00690C0008690C0008690C0008690C000833
:100DCC00690C0008690C0008690C0008690C000823
:100DDC00E30C0008EF0C0008012394E7022392E7D0
:100DEC00114A936823EA0E0393609BE70E4AD3687B
:100DFC0023EA0E03D3609EE70B4A536823EA0E03E3
:100E0C005360A1E7084A136823EA0E031360A4E7B2
:100E1C0002B070BD00002210000031100010024022
:100E2C0000000140000801400004014082B00E4B5C
:100E3C009A6942F001029A619A6902F001020092E9
:100E4C00009ADA6942F08052DA61DB6903F0805370
:100E5C000193019B054A536823F0E06343F0007350
:100E6C00536002B0704700BF001002400000014008
:100E7C0082B0084B1B68084AA2FB03235B0A00FBE9
:100E8C0003F3019300BF019B5A1E0192002BF9D171
:100E9C0002B0704708000020D34D6210002800F00B
:100EAC00F18170B582B00446036813F0010F2CD0A9
:100EBC00994B5B6803F00C03042B1DD0964B5B68BD
:100ECC0003F00C03082B12D06368B3F5803F41D0BC
:100EDC00002B55D103F1804303F504331A6822F437
:100EEC0080321A601A6822F480221A6037E08A4B2A
:100EFC005B6813F4803FE7D0874B1B6813F4003F0B
:100F0C0003D06368002B00F0BF81236813F0020F3D
:100F1C0075D0814B5B6813F00C0F5FD07E4B5B6818
:100F2C0003F00C03082B54D02369002B00F08A80AB
:100F3C007A4B01221A60FFF75BFA0546764B1B6869
:100F4C0013F0020F75D1FFF753FA401B0228F5D9A5
:100F5C0003209EE1704A136843F480331360636886
:100F6C0043B3FFF745FA05466B4B1B6813F4003F80
:100F7C00CBD1FFF73DFA401B6428F5D9032088E15B
:100F8C00B3F5A02F09D0644B1A6822F480321A6092
:100F9C001A6822F480221A60E1E703F18043A3F57A
:100FAC003C331A6842F480221A601A6842F4803288
:100FBC001A60D4E7FFF71CFA0546574B1B6813F46D
:100FCC00003FA2D0FFF714FA401B6428F5D9032088
:100FDC005FE1514B5B6813F4803FA5D14E4B1B680E
:100FEC0013F0020F03D02369012B40F04F814A4AC2
:100FFC00136823F0F803616943EAC10313602368A3
:10100C0013F0080F33D0A369002B5CD0434B0122A3
:10101C00C3F88024FFF7ECF905463F4B5B6A13F0ED
:10102C00020F21D1FFF7E4F9401B0228F5D9032068
:10103C002FE1394A136823F0F803616943EAC103CD
:10104C001360DCE7354B00221A60FFF7D1F9054637
:10105C00314B1B6813F0020FD1D0FFF7C9F9401BBD
:10106C000228F5D9032014E10120FFF701FF2368C2
:10107C0013F0040F00F09680274BDB6913F0805FB0
:10108C0034D1254BDA6942F08052DA61DB6903F026
:10109C0080530193019B0125214B1B6813F4807F26
:1010AC0026D0E368012B3DD0002B53D103F18043B4
:1010BC0003F504331A6A22F001021A621A6A22F04A
:1010CC0004021A6233E0154B0022C3F88024FFF7A8
:1010DC008FF90546104B5B6A13F0020FC7D0FFF770
:1010EC0087F9401B0228F5D90320D2E00025D3E76D
:1010FC000B4A136843F480731360FFF779F90646C3
:10110C00074B1B6813F4807FCBD1FFF771F9801B61
:10111C006428F5D90320BCE00010024000004242D4
:10112C00007000405F4A136A43F001031362E368E6
:10113C0033B3FFF75DF906465A4B1B6A13F0020FE7
:10114C002FD1FFF755F9801B41F288339842F3D920
:10115C0003209EE0052B09D0524B1A6A22F00102A3
:10116C001A621A6A22F004021A62E0E74D4B1A6AFC
:10117C0042F004021A621A6A42F001021A62D6E7BD
:10118C00FFF736F90646474B1B6A13F0020F08D0DF
:10119C00FFF72EF9801B41F288339842F3D90320D4
:1011AC0077E0E5B9E369002B72D03E4A526802F051
:1011BC000C02082A56D0022B17D03B4B00221A6681
:1011CC00FFF716F90446374B1B6813F0007F47D026
:1011DC00FFF70EF9001B0228F5D9032059E0314A1C
:1011EC00D36923F08053D361DCE72F4B00221A66BE
:1011FC00FFF7FEF805462B4B1B6813F0007F06D05B
:10120C00FFF7F6F8401B0228F5D9032041E0236ACA
:10121C00B3F5803F1AD023494B6823F47413226A28
:10122C00606A024313434B601F4B01221A66FFF79F
:10123C00DFF804461B4B1B6813F0007F0ED1FFF741
:10124C00D7F8001B0228F5D9032022E0154A536871
:10125C0023F40033A1680B435360DCE7002018E053
:10126C00002016E0012B16D00E4B5B6803F4803186
:10127C00226A914211D103F47013626A93420ED127
:10128C00002006E001207047012002E0012000E070
:10129C00002002B070BD0120FBE70120F9E701201E
:1012AC00F7E700BF00100240000042420F4B5B68A2
:1012BC0003F00C02082A01D00D487047C3F3834297
:1012CC000C49885C13F4803F0BD0084B5B68C3F36C
:1012DC004043094AD35C064A02FB00F0B0FBF3F032
:1012EC007047064B03FB00F0704700BF0010024034
:1012FC0000127A007C1600087816000800093D00E0
:10130C00002800F0A08070B50D460446524B1B68B7
:10131C0003F007038B420BD24F4A136823F00703E9
:10132C000B431360136803F007038B4240F08D806E
:10133C00236813F0020F17D013F0040F04D0474AA0
:10134C00536843F4E0635360236813F0080F04D030
:10135C00424A536843F460535360404A536823F045
:10136C00F003A1680B435360236813F0010F31D0D5
:10137C006368012B20D0022B25D0384A126812F05A
:10138C00020F64D035494A6822F0030213434B60C4
:10139C00FFF72EF80646314B5B6803F00C036268CE
:1013AC00B3EB820F16D0FFF723F8801B41F2883382
:1013BC009842F0D9032045E0284A126812F4003F05
:1013CC00E0D101203EE0254A126812F0007FD9D10D
:1013DC00012037E0204B1B6803F00703AB420AD90E
:1013EC001D4A136823F007032B431360136803F0A3
:1013FC000703AB422DD1236813F0040F06D0174A14
:10140C00536823F4E063E1680B435360236813F0E3
:10141C00080F07D0114A536823F46053216943EA3B
:10142C00C1035360FFF742FF0C4B5B68C3F303131C
:10143C000B4AD35CD8400B4B18600B4B1868FEF76B
:10144C0093FF002070BD012070470120FAE70120B6
:10145C00F8E70120F6E700BF002002400010024030
:10146C008C160008080000200400002070B582B023
:10147C000446036813F0010F36D03F4BDB6913F0C1
:10148C00805F49D13C4BDA6942F08052DA61DB690A
:10149C0003F080530193019B0125384B1B6813F417
:1014AC00807F3BD0344B1B6A13F4407313D06268BB
:1014BC0002F440729A420ED02F4A136A23F4407001
:1014CC002F490126C1F840640026C1F8406410621F
:1014DC0013F0010F36D1284A136A23F44073616864
:1014EC000B431362002D3ED1236813F0020F06D07C
:1014FC00214A536823F44043A1680B43536023688B
:10150C0013F0100F34D01C4A536823F48003E168A5
:10151C000B43536000202CE00025BEE7174A1368EC
:10152C0043F480731360FEF763FF0646134B1B688E
:10153C0013F4807FB6D1FEF75BFF801B6428F5D9CE
:10154C00032016E0FEF754FF06460B4B1B6A13F004
:10155C00020FC0D1FEF74CFF801B41F2883398423A
:10156C00F3D9032005E0D36923F08053D361BBE7A3
:10157C00002002B070BD00BF00100240007000409F
:10158C0000004242FEE7FEE7FEE7FEE7FEE770479B
:10159C007047704708B5FEF71FFF08BD08B5024835
:1015AC00FFF794FA08BD00BF280000207047000028
:1015BC00FFF7FCFF0B480C490C4A002302E0D458FF
:1015CC00C4500433C4188C42F9D3094A094C002383
:1015DC0001E013600432A242FBD300F017F8FEF7CF
:1015EC00ADFE7047000000200C000020A41600087F
:1015FC000C000020A4000020FEE7034602449342A6
:10160C0000D1704703F8011BF9E7000070B5002604
:10161C000C4D0D4C641BA410A64209D100F01AF815
:10162C0000260A4D0A4C641BA410A64205D170BDBD
:10163C0055F8043B98470136EEE755F8043B9847BC
:10164C000136F2E79C1600089C1600089C16000850
:10165C00A0160008F8B500BFF8BC08BC9E46704741
:0C166C00F8B500BFF8BC08BC9E467047F3
:101678000102000002030405060708090A0B0C0D05
:101688000E0F10100000000000000000010203040B
:041698000607080930
:04169C003101000810
:0416A0000D01000830
:0C16A400010000001000000000127A009D
:04000005080015BD1D
:00000001FF
