:020000040800F2
:10000000005000201D0B0008010B0008030B000826
:10001000050B0008070B0008090B00080000000092
:100020000000000000000000000000000B0B0008B2
:100030000D0B0008000000000F0B0008110B00085A
:10004000650B0008650B0008650B0008650B0008D0
:10005000650B0008650B0008650B0008650B0008C0
:10006000650B0008650B0008650B0008650B0008B0
:10007000650B0008650B0008650B0008650B0008A0
:10008000650B0008650B0008650B0008650B000890
:10009000650B0008650B0008650B0008650B000880
:1000A000650B0008650B0008650B0008650B000870
:1000B000650B0008650B0008650B0008650B000860
:1000C000650B0008650B0008650B0008650B000850
:1000D000650B0008650B0008650B0008650B000840
:1000E000650B0008650B0008650B000800000000A8
:1000F0000000000000000000000000000000000000
:0C01000000000000000000005FF808F1A3
:10010C0010B5054C237833B9044B13B10448AFF345
:10011C0000800123237010BD14000020000000009B
:10012C00C00B000808B5034B1BB103490348AFF3E0
:10013C00008008BD0000000018000020C00B000863
:10014C0000B583B0104B5A6942F001025A615B69E9
:10015C0003F001030193019B0C480D4B03604FF41A
:10016C0080434360402383608023C360002303618A
:10017C0043618361C36100F03FF910B903B05DF8CE
:10018C0004FB00F01FF8F9E70010024030000020DB
:10019C000800024082B00A4B9A6942F020029A6130
:1001AC009A6902F020020092009A9A6942F00402C5
:1001BC009A619B6903F004030193019B02B07047A1
:1001CC000010024072B6FEE700B591B02822002163
:1001DC0006A800F0C2FC002301930293039304933E
:1001EC000593012206924FF4803307930A92022260
:1001FC000D920E934FF4E0130F9306A800F092F9B2
:10020C0080B90F23019302210291002303934FF431
:10021C0080620492059301A800F0B6FB20B911B0DE
:10022C005DF804FBFFF7CEFFFFF7CCFF08B500F03D
:10023C003FF8FFF7C9FFFFF7ADFFFFF781FF05237D
:10024C00044A0549054800F00BF9054A13780133B7
:10025C001370FAE778000020000000203000002026
:10026C007400002010B504460E4B1A784FF47A73C4
:10027C00B3FBF2F30C4A1068B0FBF3F000F092F809
:10028C0068B90F2C01D901200AE0002221464FF059
:10029C00FF3000F077F8054B1C60002000E00120D7
:1002AC0010BD00BF0A000020100000200C00002030
:1002BC0008B5074A136843F010031360032000F0DD
:1002CC004FF80F20FFF7CEFF00F0F4F8002008BD28
:1002DC0000200240034A1168034B1B780B44136047
:1002EC00704700BF840000200A000020014B1868F2
:1002FC00704700BF84000020002808DB0901C9B248
:10030C0000F1604000F5614080F80013704700F088
:10031C000F000901C9B2014B1954704714ED00E0EC
:10032C0000B500F00700C0F1070CBCF1040F28BFAA
:10033C004FF0040C031D062B0FD9C31E4FF0FF3ECC
:10034C000EFA0CF021EA000199400EFA03FE22EAA3
:10035C000E0241EA02005DF804FB0023EEE7000008
:10036C00074AD36823F4E0631B041B0C000200F45F
:10037C00E060034343F0BF6343F40033D360704742
:10038C0000ED00E010B50446054BD868C0F3022020
:10039C00FFF7C6FF01462046FFF7AEFF10BD00BFBA
:1003AC0000ED00E00138B0F1807F0BD24FF0E0237C
:1003BC005861054AF02182F8231000209861072229
:1003CC001A6170470120704700ED00E030B4012441
:1003DC00056CAC40C56B6C60046863604368102BA3
:1003EC0005D0036899600368DA6030BC7047036815
:1003FC009A600368D960F8E750B310B402460168FC
:10040C00144B0B441448A0FB03031B099B001364FF
:10041C00124BD363022382F8213008686FF30D105E
:10042C00536894682343D468234314692343546961
:10043C00234394692343D469234303430B60002073
:10044C009063012382F8213082F8200010BC7047A1
:10045C0001207047F8FFFDBFCDCCCCCC0000024092
:10046C0070B5044690F82000012820D0012084F8B3
:10047C00200094F82100C0B2012804D0002384F895
:10048C002030022070BD022084F821000025A563D5
:10049C002668306820F0010030602046FFF796FF98
:1004AC002268136843F0010313602846EAE7022030
:1004BC00E8E7000082B00E4B9A6942F001029A61A3
:1004CC009A6902F001020092009ADA6942F08052B5
:1004DC00DA61DB6903F080530193019B054A536891
:1004EC0023F0E06343F00073536002B0704700BF29
:1004FC00001002400000014082B0084B1B68084A03
:10050C00A2FB03235B0A00FB03F3019300BF019BD7
:10051C005A1E0192002BF9D102B070471000002036
:10052C00D34D6210002800F0F18170B582B0044602
:10053C00036813F0010F2CD0994B5B6803F00C038C
:10054C00042B1DD0964B5B6803F00C03082B12D0C8
:10055C006368B3F5803F41D0002B55D103F1804344
:10056C0003F504331A6822F480321A601A6822F4F4
:10057C0080221A6037E08A4B5B6813F4803FE7D027
:10058C00874B1B6813F4003F03D06368002B00F00B
:10059C00BF81236813F0020F75D0814B5B6813F099
:1005AC000C0F5FD07E4B5B6803F00C03082B54D010
:1005BC002369002B00F08A807A4B01221A60FFF726
:1005CC0095FE0546764B1B6813F0020F75D1FFF7AD
:1005DC008DFE401B0228F5D903209EE1704A13685A
:1005EC0043F480331360636843B3FFF77FFE054623
:1005FC006B4B1B6813F4003FCBD1FFF777FE401B0E
:10060C006428F5D9032088E1B3F5A02F09D0644BF9
:10061C001A6822F480321A601A6822F480221A6056
:10062C00E1E703F18043A3F53C331A6842F48022DE
:10063C001A601A6842F480321A60D4E7FFF756FE4B
:10064C000546574B1B6813F4003FA2D0FFF74EFE34
:10065C00401B6428F5D903205FE1514B5B6813F410
:10066C00803FA5D14E4B1B6813F0020F03D02369BA
:10067C00012B40F04F814A4A136823F0F80361695B
:10068C0043EAC1031360236813F0080F33D0A36946
:10069C00002B5CD0434B0122C3F88024FFF726FECD
:1006AC0005463F4B5B6A13F0020F21D1FFF71EFE8C
:1006BC00401B0228F5D903202FE1394A136823F097
:1006CC00F803616943EAC1031360DCE7354B002290
:1006DC001A60FFF70BFE0546314B1B6813F0020F37
:1006EC00D1D0FFF703FE401B0228F5D9032014E1FB
:1006FC000120FFF701FF236813F0040F00F0968030
:10070C00274BDB6913F0805F34D1254BDA6942F05B
:10071C008052DA61DB6903F080530193019B012560
:10072C00214B1B6813F4807F26D0E368012B3DD04E
:10073C00002B53D103F1804303F504331A6A22F0E2
:10074C0001021A621A6A22F004021A6233E0154B93
:10075C000022C3F88024FFF7C9FD0546104B5B6AE5
:10076C0013F0020FC7D0FFF7C1FD401B0228F5D9CB
:10077C000320D2E00025D3E70B4A136843F48073BF
:10078C001360FFF7B3FD0646074B1B6813F4807F1D
:10079C00CBD1FFF7ABFD801B6428F5D90320BCE05F
:1007AC000010024000004242007000405F4A136A91
:1007BC0043F001031362E36833B3FFF797FD06467A
:1007CC005A4B1B6A13F0020F2FD1FFF78FFD801BC2
:1007DC0041F288339842F3D903209EE0052B09D0CF
:1007EC00524B1A6A22F001021A621A6A22F00402AF
:1007FC001A62E0E74D4B1A6A42F004021A621A6A56
:10080C0042F001021A62D6E7FFF770FD0646474B2D
:10081C001B6A13F0020F08D0FFF768FD801B41F232
:10082C0088339842F3D9032077E0E5B9E369002BCC
:10083C0072D03E4A526802F00C02082A56D0022BA3
:10084C0017D03B4B00221A66FFF750FD0446374B7E
:10085C001B6813F0007F47D0FFF748FD001B0228F0
:10086C00F5D9032059E0314AD36923F08053D36181
:10087C00DCE72F4B00221A66FFF738FD05462B4BA1
:10088C001B6813F0007F06D0FFF730FD401B0228D9
:10089C00F5D9032041E0236AB3F5803F1AD02349F0
:1008AC004B6823F47413226A606A024313434B604F
:1008BC001F4B01221A66FFF719FD04461B4B1B68E0
:1008CC0013F0007F0ED1FFF711FD001B0228F5D9A4
:1008DC00032022E0154A536823F40033A1680B432C
:1008EC005360DCE7002018E0002016E0012B16D046
:1008FC000E4B5B6803F48031226A914211D103F4F0
:10090C007013626A93420ED1002006E001207047FA
:10091C00012002E0012000E0002002B070BD0120A7
:10092C00FBE70120F9E70120F7E700BF00100240C8
:10093C00000042420F4B5B6803F00C02082A01D006
:10094C000D487047C3F383420C49885C13F4803F15
:10095C000BD0084B5B68C3F34043094AD35C064A8F
:10096C0002FB00F0B0FBF3F07047064B03FB00F00A
:10097C00704700BF0010024000127A00DC0B000828
:10098C00D80B000800093D00002800F0A08070B5CD
:10099C000D460446524B1B6803F007038B420BD2E7
:1009AC004F4A136823F007030B431360136803F0DB
:1009BC0007038B4240F08D80236813F0020F17D091
:1009CC0013F0040F04D0474A536843F4E0635360B8
:1009DC00236813F0080F04D0424A536843F4605361
:1009EC005360404A536823F0F003A1680B435360F3
:1009FC00236813F0010F31D06368012B20D0022B38
:100A0C0025D0384A126812F0020F64D035494A6872
:100A1C0022F0030213434B60FFF768FC0646314B90
:100A2C005B6803F00C036268B3EB820F16D0FFF720
:100A3C005DFC801B41F288339842F0D9032045E0DD
:100A4C00284A126812F4003FE0D101203EE0254A0A
:100A5C00126812F0007FD9D1012037E0204B1B68BF
:100A6C0003F00703AB420AD91D4A136823F00703AE
:100A7C002B431360136803F00703AB422DD123689B
:100A8C0013F0040F06D0174A536823F4E063E168AF
:100A9C000B435360236813F0080F07D0114A5368B7
:100AAC0023F46053216943EAC1035360FFF742FF0B
:100ABC000C4B5B68C3F303130B4AD35CD8400B4B52
:100ACC0018600B4B1868FFF7CDFB002070BD0120A0
:100ADC0070470120FAE70120F8E70120F6E700BF94
:100AEC000020024000100240EC0B00081000002017
:100AFC000C000020FEE7FEE7FEE7FEE7FEE770478E
:100B0C007047704708B5FFF7E5FB08BD704700005C
:100B1C00FFF7FCFF0B480C490C4A002302E0D458A9
:100B2C00C4500433C4188C42F9D3094A094C00232D
:100B3C0001E013600432A242FBD300F017F8FFF778
:100B4C0075FB70470000002014000020040C000806
:100B5C001400002088000020FEE703460244934264
:100B6C0000D1704703F8011BF9E7000070B50026AF
:100B7C000C4D0D4C641BA410A64209D100F01AF8C0
:100B8C0000260A4D0A4C641BA410A64205D170BD68
:100B9C0055F8043B98470136EEE755F8043B984767
:100BAC000136F2E7FC0B0008FC0B0008FC0B0008FC
:100BBC00000C0008F8B500BFF8BC08BC9E46704796
:0C0BCC00F8B500BFF8BC08BC9E4670479E
:100BD8000102000002030405060708090A0B0C0DB0
:100BE8000E0F1010000000000000000001020304B6
:040BF80006070809DB
:040BFC0031010008BB
:040C00000D010008DA
:100C04000102030405060708090A01001000000098
:040C140000127A0050
:0400000508000B1DC7
:00000001FF
