:020000040800F2
:100000000050002045170008290300082B030008B2
:100010002D0300082F030008310300080000000032
:100020000000000000000000000000003303000892
:1000300035030008000000003703000839030008FA
:100040008D1700088D1700088D1700088D17000800
:100050008D1700088D1700088D1700088D170008F0
:100060008D1700088D1700088D1700088D170008E0
:100070008D1700088D1700088D1700088D170008D0
:100080008D1700088D1700088D1700088D170008C0
:100090008D1700088D1700088D1700088D170008B0
:1000A0008D1700088D1700088D1700088D170008A0
:1000B0008D1700088D1700088D1700088D17000890
:1000C0008D1700088D1700088D1700088D17000880
:1000D0008D1700088D170008410300088D170008D0
:1000E0008D1700088D1700088D170008000000000C
:1000F0000000000000000000000000000000000000
:0C01000000000000000000005FF808F1A3
:10010C0010B5054C237833B9044B13B10448AFF345
:10011C0000800123237010BD80000020000000002F
:10012C008C2C000808B5034B1BB103490348AFF3F3
:10013C00008008BD00000000840000208C2C00080A
:10014C0010F8012B11F8013B012A28BF9A42F7D075
:10015C00D01A70470FB400B5A3B024AB53F8042BDE
:10016C000193802102A801F0C9FC002809DD802838
:10017C0000D980204FF0FF3382B202A9034800F06F
:10018C001EFA23B05DF804EB04B070479C0000200D
:10019C000268084B1B689A4200D0704710B5064C99
:1001AC00207801F031FA01222146024800F055FC7A
:1001BC0010BD00BF9C000020EC00002072B6FEE7D2
:1001CC0000B591B02822002106A801F0A5FC00235F
:1001DC000193029303930493059302230693012343
:1001EC000A9310230B9306A800F0AAFC68B90F23FE
:1001FC0001930021029103910491059101A800F053
:10020C00D1FE20B911B05DF804FBFFF7D7FFFFF763
:10021C00D5FF000008B500F059FCFFF7D1FF00F046
:10022C000FF800F01DF801220349044800F015FCFA
:10023C0001F006FAFCE700BFEC0000209C00002057
:10024C0082B0064B9A6942F004029A619B6903F0F2
:10025C0004030193019B02B0704700BF00100240E1
:10026C0008B50A480A4B03604FF4E133436000239E
:10027C008360C36003610C2242618361C36100F03F
:10028C006EF900B908BDFFF799FFFBE79C00002051
:10029C000044004030B587B00023029303930493CD
:1002AC00059302681B4B9A4201D007B030BD03F591
:1002BC00E633DA6942F40032DA61DA6902F40032C8
:1002CC000092009A9A6942F004029A619B6903F0C9
:1002DC0004030193019B042302930223039303233E
:1002EC0005930D4D02A9284600F038FF0823029310
:1002FC000024039404940DEB0301284600F02EFF18
:10030C0022462146262001F0EDF8262001F0FAF8CD
:10031C00CBE700BF0044004000080140FEE7FEE7C9
:10032C00FEE7FEE7FEE770477047704708B500F040
:10033C00DFFB08BD08B5024800F032FA08BD00BF6B
:10034C009C00002082B00E4B9A6942F001029A6127
:10035C009A6902F001020092009ADA6942F0805226
:10036C00DA61DB6903F080530193019B054A536802
:10037C0023F0E06343F00073536002B0704700BF9A
:10038C000010024000000140026802F10C0353E827
:10039C00003F23F490730C3242E800310029F3D172
:1003AC00026802F1140353E8003F23F001031432F6
:1003BC0042E800310029F3D1036B012B05D0202337
:1003CC0080F84230002303637047026802F10C038B
:1003DC0053E8003F23F010030C3242E800310029AF
:1003EC00F3D1ECE790F84130DBB2212B01D00220A5
:1003FC0070478368B3F5805F17D0036A5A1C02629A
:10040C001A7803685A60C38C9BB2013B9BB2C384BD
:10041C004BB90268D36823F08003D3600268D368B9
:10042C0043F04003D360002070470369002BE4D1F4
:10043C00036A1B880268C3F308035360036A023320
:10044C000362E0E710B504460268136923F44053D5
:10045C00C1680B43136183680269134342691A43F1
:10046C000168CB6823F4B05323F00C031343CB6027
:10047C000268536923F4407381690B43536102682A
:10048C00134B9A4220D000F049FE024602EB820246
:10049C0002EB820263689B00B2FBF3F20D48A0FBF7
:1004AC0002314909642303FB11231B013233A0FBE6
:1004BC0003035B0903F0F00202EB011203F00F03DC
:1004CC00216813448B6010BD00F038FE0246DDE756
:1004DC00003801401F85EB512DE9F04383B00546F0
:1004EC000E4617469946DDF828802B681C6836EABC
:1004FC0004040CBF01240024BC4228D1B8F1FF3FF6
:10050C00F3D000F001FBA0EB0900404523D8B8F173
:10051C00000F22D02B68DA6812F0040FE5D0802E81
:10052C00E3D0402EE1D01A6812F0080FDDD0002481
:10053C0001941A6801925B680193019B2846FFF7AE
:10054C0023FF08236B6485F84040012000E0002065
:10055C0003B0BDE8F0830320FAE70320F8E760B3AB
:10056C0010B5044690F8413013B3242384F841307D
:10057C002268D36823F40053D3602046FFF762FF50
:10058C002268136923F4904313612268536923F0A2
:10059C002A0353612268D36843F40053D3600020CC
:1005AC006064202384F8413084F84230606310BDCD
:1005BC0080F84030FFF76EFED7E7012070472DE939
:1005CC00F04182B01E4690F84130DBB2202B56D160
:1005DC0004460D469046002955D00AB901204FE03B
:1005EC0000234364212380F8413000F08DFA074644
:1005FC00A4F82480A4F82680A368B3F5805F02D009
:10060C004FF0000814E023692BB34FF000080FE003
:10061C00202384F84130032032E038F8023B226872
:10062C00C3F308035360E28C92B2013A92B2E284B3
:10063C00E38C9BB293B100963B460022802120466E
:10064C00FFF74AFF0028E3D1002DE6D015F8012B67
:10065C0023685A60E7E7A8460025E9E700963B4681
:10066C00002240212046FFF737FF18B9202384F8D9
:10067C00413005E0202384F84130032000E00220C3
:10068C0002B0BDE8F0810120FAE7704708B50168B7
:10069C00CA6822F04002CA60202280F84120FFF78D
:1006AC00F4FF002008BD704708B5406A0023C385DD
:1006BC00C384FFF7F8FF08BD704790F84230DBB2F7
:1006CC00222B69D18368B3F5805F4FD0826AB3F572
:1006DC00805F04D0002B56D10369002B53D10368E3
:1006EC005B681370836A01338362C38D9BB2013BD9
:1006FC009BB2C385002B51D100B583B00268D3687F
:10070C0023F02003D3600268D36823F48073D36092
:10071C000268536923F001035361202380F84230AF
:10072C0000234363036B012B33D100230363026863
:10073C0002F10C0353E8003F23F010030C3242E8A3
:10074C0000310029F3D103681A6812F0100F06D09B
:10075C00002201921A6801925B680193019B818DC2
:10076C00FFF7AAFF002003B05DF804FB0269002A22
:10077C00ACD1826A03685B68C3F308031380836A95
:10078C0002338362B1E703685B6803F07F03137085
:10079C00A8E7FFF7FDFCE5E7022070470020704753
:1007AC0010B582B0044602681368D068516913F022
:1007BC000F0F09D113F0200F0CD010F0200F09D01F
:1007CC002046FFF77AFF16E011F0010115D110F465
:1007DC00907F12D1216B012979D013F0800F03D0B7
:1007EC0010F0800F40F0138113F0400F03D010F085
:1007FC00400F40F0108102B010BD13F0010F06D075
:10080C0010F4807F03D0626C42F00102626413F03A
:10081C00040F04D019B1626C42F00202626413F04E
:10082C00020F04D019B1626C42F00402626413F03E
:10083C00080F07D010F0200F00D119B1626C42F0F4
:10084C0008026264626C002AD5D013F0200F02D02B
:10085C0010F0200F29D123685B6903F04003626C10
:10086C0012F0080F00D163B32046FFF78DFD23680B
:10087C005B6913F0400F20D0226802F1140353E897
:10088C00003F23F04003143242E800310029F3D139
:10089C00E36B73B1624A5A63E06B00F091FD002880
:1008AC00A9D0E06B436B9847A5E72046FFF705FFFF
:1008BC00D1E72046FFF7F7FE9DE72046FFF7F3FE52
:1008CC0099E72046FFF7EFFE0023636493E713F0EC
:1008DC00100F82D010F0100F3FF47FAF0023019364
:1008EC001368019353680193019B536913F0400FF4
:1008FC0051D0E26B13685B689BB2002B3FF47BAF6B
:10090C00A18D99427FF677AFE3859369202B37D081
:10091C00226802F10C0353E8003F23F480730C327D
:10092C0042E800310029F3D1226802F1140353E8A4
:10093C00003F23F00103143242E800310029F3D1C7
:10094C00226802F1140353E8003F23F040031432F1
:10095C0042E800310029F3D1202384F842300023EF
:10096C002363226802F10C0353E8003F23F01003C9
:10097C000C3242E800310029F3D1E06B00F0FCFCB2
:10098C0002236363A18DE38D9BB2C91A89B2204601
:10099C00FFF792FE2FE7A18DE38D9BB2C91A89B2A6
:1009AC00E38D9BB2002B3FF426AF00293FF423AF1D
:1009BC00226802F10C0353E8003F23F490730C32CD
:1009CC0042E800300028F3D1226802F1140353E806
:1009DC00003F23F00103143242E800300028F3D129
:1009EC00202384F8423000232363226802F10C0395
:1009FC0053E8003F23F010030C3242E8003000288B
:100A0C00F3D1022363632046FFF756FEF3E620463C
:100A1C00FFF7E8FCEFE62046FFF738FEEBE600BFF9
:100A2C00B506000881628285C285002343642223B7
:100A3C0080F84230036923B10268D36843F48073B1
:100A4C00D3600268536943F0010353610268D368B1
:100A5C0043F02003D3600020704708B590F8423073
:100A6C00DBB2202B08D149B10AB9012008BD002303
:100A7C000363FFF7D7FFF9E70220F7E70120F5E75B
:100A8C0010B504460E4B1A784FF47A73B3FBF2F39D
:100A9C000C4A1068B0FBF3F000F042FD68B90F2C63
:100AAC0001D901200AE0002221464FF0FF3000F06E
:100ABC0019FD054B1C60002000E0012010BD00BF9B
:100ACC0000000020080000200400002008B5074AA0
:100ADC00136843F010031360032000F0F1FC0F20A7
:100AEC00FFF7CEFFFFF72EFC002008BD00200240D0
:100AFC00034A1168034B1B780B441360704700BF0B
:100B0C00E400002000000020014B1868704700BF73
:100B1C00E400002082B0084B1B68084AA2FB0323A8
:100B2C005B0A00FB03F3019300BF019B5A1E019269
:100B3C00002BF9D102B0704708000020D34D621091
:100B4C00002800F0F18170B582B00446036813F000
:100B5C00010F2CD0994B5B6803F00C03042B1DD0B8
:100B6C00964B5B6803F00C03082B12D06368B3F54B
:100B7C00803F41D0002B55D103F1804303F5043362
:100B8C001A6822F480321A601A6822F480221A60E1
:100B9C0037E08A4B5B6813F4803FE7D0874B1B68C8
:100BAC0013F4003F03D06368002B00F0BF8123686F
:100BBC0013F0020F75D0814B5B6813F00C0F5FD0F4
:100BCC007E4B5B6803F00C03082B54D02369002B7D
:100BDC0000F08A807A4B01221A60FFF795FF0546D8
:100BEC00764B1B6813F0020F75D1FFF78DFF401B7E
:100BFC000228F5D903209EE1704A136843F4803330
:100C0C001360636843B3FFF77FFF05466B4B1B68AC
:100C1C0013F4003FCBD1FFF777FF401B6428F5D9C5
:100C2C00032088E1B3F5A02F09D0644B1A6822F495
:100C3C0080321A601A6822F480221A60E1E703F10C
:100C4C008043A3F53C331A6842F480221A601A6878
:100C5C0042F480321A60D4E7FFF756FF0546574B33
:100C6C001B6813F4003FA2D0FFF74EFF401B642813
:100C7C00F5D903205FE1514B5B6813F4803FA5D19C
:100C8C004E4B1B6813F0020F03D02369012B40F06D
:100C9C004F814A4A136823F0F803616943EAC103A0
:100CAC001360236813F0080F33D0A369002B5CD0BA
:100CBC00434B0122C3F88024FFF726FF05463F4B28
:100CCC005B6A13F0020F21D1FFF71EFF401B0228B5
:100CDC00F5D903202FE1394A136823F0F803616931
:100CEC0043EAC1031360DCE7354B00221A60FFF7BF
:100CFC000BFF0546314B1B6813F0020FD1D0FFF7E9
:100D0C0003FF401B0228F5D9032014E10120FFF753
:100D1C0001FF236813F0040F00F09680274BDB696A
:100D2C0013F0805F34D1254BDA6942F08052DA61DE
:100D3C00DB6903F080530193019B0125214B1B6858
:100D4C0013F4807F26D0E368012B3DD0002B53D1C8
:100D5C0003F1804303F504331A6A22F001021A628C
:100D6C001A6A22F004021A6233E0154B0022C3F80F
:100D7C008024FFF7C9FE0546104B5B6A13F0020F87
:100D8C00C7D0FFF7C1FE401B0228F5D90320D2E0E3
:100D9C000025D3E70B4A136843F480731360FFF705
:100DAC00B3FE0646074B1B6813F4807FCBD1FFF7CD
:100DBC00ABFE801B6428F5D90320BCE00010024078
:100DCC0000004242007000405F4A136A43F0010386
:100DDC001362E36833B3FFF797FE06465A4B1B6A60
:100DEC0013F0020F2FD1FFF78FFE801B41F28833D7
:100DFC009842F3D903209EE0052B09D0524B1A6A76
:100E0C0022F001021A621A6A22F004021A62E0E766
:100E1C004D4B1A6A42F004021A621A6A42F001023D
:100E2C001A62D6E7FFF770FE0646474B1B6A13F0B3
:100E3C00020F08D0FFF768FE801B41F288339842FE
:100E4C00F3D9032077E0E5B9E369002B72D03E4A71
:100E5C00526802F00C02082A56D0022B17D03B4BDA
:100E6C0000221A66FFF750FE0446374B1B6813F03E
:100E7C00007F47D0FFF748FE001B0228F5D903205E
:100E8C0059E0314AD36923F08053D361DCE72F4B0F
:100E9C0000221A66FFF738FE05462B4B1B6813F031
:100EAC00007F06D0FFF730FE401B0228F5D9032047
:100EBC0041E0236AB3F5803F1AD023494B6823F4F1
:100ECC007413226A606A024313434B601F4B012266
:100EDC001A66FFF719FE04461B4B1B6813F0007FC4
:100EEC000ED1FFF711FE001B0228F5D9032022E0DA
:100EFC00154A536823F40033A1680B435360DCE7B5
:100F0C00002018E0002016E0012B16D00E4B5B6879
:100F1C0003F48031226A914211D103F47013626A96
:100F2C0093420ED1002006E001207047012002E020
:100F3C00012000E0002002B070BD0120FBE7012081
:100F4C00F9E70120F7E700BF001002400000424221
:100F5C000F4B5B6803F00C02082A01D00D48704758
:100F6C00C3F383420C49885C13F4803F0BD0084BCD
:100F7C005B68C3F34043094AD35C064A02FB00F0AA
:100F8C00B0FBF3F07047064B03FB00F0704700BF5B
:100F9C000010024000127A00A82C0008A42C0008B3
:100FAC0000093D00002800F0A08070B50D460446F5
:100FBC00524B1B6803F007038B420BD24F4A13684A
:100FCC0023F007030B431360136803F007038B42F2
:100FDC0040F08D80236813F0020F17D013F0040F2C
:100FEC0004D0474A536843F4E0635360236813F01A
:100FFC00080F04D0424A536843F460535360404A8C
:10100C00536823F0F003A1680B435360236813F07B
:10101C00010F31D06368012B20D0022B25D0384A28
:10102C00126812F0020F64D035494A6822F00302AC
:10103C0013434B60FFF768FD0646314B5B6803F0CA
:10104C000C036268B3EB820F16D0FFF75DFD801BBB
:10105C0041F288339842F0D9032045E0284A1268BF
:10106C0012F4003FE0D101203EE0254A126812F054
:10107C00007FD9D1012037E0204B1B6803F0070318
:10108C00AB420AD91D4A136823F007032B431360A4
:10109C00136803F00703AB422DD1236813F0040F40
:1010AC0006D0174A536823F4E063E1680B4353609E
:1010BC00236813F0080F07D0114A536823F46053C8
:1010CC00216943EAC1035360FFF742FF0C4B5B6895
:1010DC00C3F303130B4AD35CD8400B4B18600B4B78
:1010EC001868FFF7CDFC002070BD0120704701206F
:1010FC00FAE70120F8E70120F6E700BF00200240E4
:10110C0000100240C02C0008080000200400002041
:10111C00014B1868704700BF0800002008B5FFF7A6
:10112C00F7FF044B5B68C3F30223034AD35CD8403C
:10113C0008BD00BF00100240B82C000808B5FFF72E
:10114C00E7FF044B5B68C3F3C223034AD35CD8406C
:10115C0008BD00BF00100240B82C000870B582B06A
:10116C000024A446A1E07E4DAB4214D00CD8A5F5CA
:10117C008015AB420FD005F57025AB420BD0A5F511
:10118C008015AB4210D106E0764DAB4203D005F58D
:10119C008035AB4208D18B68002B50D0012B49D045
:1011AC004261082400E0CC68BEF1FF0F49D8064626
:1011BC004FEA8C0233680F25954023EA050304FAA5
:1011CC0002F2134333604B6813F0805F6BD0664BB5
:1011DC009A6942F001029A619B6903F00103019341
:1011EC00019B4FEA9C02951C604B53F825600CF058
:1011FC000305AD000F23AB4026EA03065C4B984277
:10120C0026D003F58063984200F08C8003F5806350
:10121C00984200F0898003F58063984216D004232D
:10122C0017E0CC680434BFE7CC680834BCE7CC6862
:10123C000C34B9E702610824B6E70024B4E70424AF
:10124C00B2E7061DACF108029200B3E7032300E0FD
:10125C000023AB4033430232444D45F822304B68F7
:10126C0013F4801F62D0434A936843EA0E039360E1
:10127C004B6813F4001F5FD03E4AD36843EA0E0359
:10128C00D3604B6813F4003F5CD03A4A536843EA8E
:10129C000E0353604B6813F4803F59D0354A1368E2
:1012AC0043EA0E0313600CF1010C0B6833FA0CF2D9
:1012BC0054D0012202FA0CF203EA020E32EA0303C2
:1012CC00F1D14B68122B3FF64EAF122B3FF66CAFA1
:1012DC0001A555F823F000BFA3110008B3110008B5
:1012EC003512000847120008B5110008B5110008A6
:1012FC00B5110008B5110008B5110008B5110008AA
:10130C00B5110008B5110008B5110008B511000899
:10131C00B5110008B5110008B51100082F1200080E
:10132C003B120008012394E7022392E7114A9368C9
:10133C0023EA0E0393609BE70E4AD36823EA0E035D
:10134C00D3609EE70B4A536823EA0E035360A1E770
:10135C00084A136823EA0E031360A4E702B070BDB9
:10136C00000022100000311000100240000001406B
:10137C000008014000040140034690F82120D2B23D
:10138C00022A06D004228263002280F82020012049
:10139C00704701680A6822F00E020A6001680A6848
:1013AC0022F001020A60026CC06B012101FA02F208
:1013BC00426083F82110002083F820007047000061
:1013CC0008B590F82130DBB2022B03D004238363E1
:1013DC00012008BD0268136823F00E031360026835
:1013EC00136823F0010313600368194A934214D065
:1013FC00143293421FD0143293421ED014329342B3
:10140C001ED0143293421ED01432934202D04FF0AD
:10141C00807203E04FF4801200E001220D4B5A6001
:10142C00012380F82130002380F82030436B6BB10E
:10143C0098470020CDE71022F0E74FF48072EDE7DB
:10144C004FF48052EAE74FF48032E7E70020C0E720
:10145C000800024000000240002808DB0901C9B264
:10146C0000F1604000F5614080F80013704700F017
:10147C000F000901C9B2014B1954704714ED00E07B
:10148C0000B500F00700C0F1070CBCF1040F28BF39
:10149C004FF0040C031D062B0FD9C31E4FF0FF3E5B
:1014AC000EFA0CF021EA000199400EFA03FE22EA32
:1014BC000E0241EA02005DF804FB0023EEE7000097
:1014CC00074AD36823F4E0631B041B0C000200F4EE
:1014DC00E060034343F0BF6343F40033D3607047D1
:1014EC0000ED00E010B50446054BD868C0F30220AF
:1014FC00FFF7C6FF01462046FFF7AEFF10BD00BF49
:10150C0000ED00E0002807DB00F01F02400901237A
:10151C009340024A42F82030704700BF00E100E0DF
:10152C000138B0F1807F0BD24FF0E0235861054AAF
:10153C00F02182F823100020986107221A6170476D
:10154C000120704700ED00E07047000010B5034625
:10155C000C4A0D490D48006840B10C480068034422
:10156C00521A934206D8094A136010BD0748084C1A
:10157C000460F2E700F07AFB0C2303604FF0FF30BD
:10158C00F3E700BF0050002000040000E80000203A
:10159C00A00200200120704708B500F067FB16235D
:1015AC0003604FF0FF3008BD08B54FF0FF31FFF777
:1015BC00F3FFFEE770B50C461646002506E0AFF3C8
:1015CC000080214601F8010B01350C46B542F6DBD3
:1015DC00304670BD70B50C461646002504E014F874
:1015EC00010BAFF300800135B542F8DB304670BD1E
:1015FC004FF0FF3070474FF400534B6000207047A2
:10160C0001207047002070470D2808D00A2806D00A
:10161C00084A1378591C1170074AD0547047054B6F
:10162C001B78002BFAD0044A0021D154034B012221
:10163C001A707047EE000020F0000020ED00002032
:10164C00074B1B78012B00D0704710B5054C217847
:10165C00054800F01DF800232370014A137010BDDB
:10166C00ED000020EE000020F000002070B50646D2
:10167C00064C00E0083465682DB131462068FEF751
:10168C005FFD0028F6D1284670BD00BF0C0000207D
:10169C0010B58AB0104900F047FA00240AE00AABF2
:1016AC0003EB840343F8280C0B49002000F03CFAB0
:1016BC000134E4B20028F2D10098FFF7D7FF28B12B
:1016CC0003682146684698470AB010BD0349044890
:1016DC00FEF740FDF8E700BFEC2C0008F02C0008EA
:1016EC00F82C000810B5044602290BD801290ED994
:1016FC000C490D48FEF72EFD606800F042F80228F8
:10170C000AD010BD09490848FEF724FDF4E7084942
:10171C000548FEF71FFDEFE706490348FEF71AFDE3
:10172C00EFE700BF242D0008F82C0008FC2C000863
:10173C00102D0008382D0008FFF706FF0B480C4948
:10174C000C4A002302E0D458C4500433C4188C4211
:10175C00F9D3094A094C002301E013600432A24278
:10176C00FBD300F089FAFEF755FD7047000000200E
:10177C0080000020302F000880000020A0020020F4
:10178C00FEE70A22002100F07BB80000242B2DE993
:10179C00F0478646904601D8012B06D100F066FA38
:1017AC00162303600020BDE8F0870D4633482A4617
:1017BC0015F8014B065D16F00806F8D12D2C10D14A
:1017CC0001262C78951C33F0100215D1302C0DD13C
:1017DC002A7802F0DF02582A08D16C7802351023DF
:1017EC000AE02B2C04BF2C78951CECE7002BF6D1CF
:1017FC00302C14BF0A230823002206F1004C0CF1F4
:10180C00FF3CBCFBF3F9104603FB19CAA4F13007EB
:10181C00092F0FD83C46A3421BDD571C07D081452E
:10182C0014D301D1A24511DB012200FB034015F8B2
:10183C00014BEBE7A4F14107192F01D8373CEAE73C
:10184C00A4F16107192F04D8573CE4E74FF0FF329D
:10185C00EDE7531C08D122236046CEF80030B8F1D6
:10186C00000FA0D0691E06E006B14042B8F1000F8F
:10187C0099D0002AF6D1C8F8001094E7402D000842
:10188C0013460A46014602480068FFF77FBF00BFB7
:10189C0030000020002310B50446C0E90033C0E935
:1018AC000433836081814366C281836119460822B7
:1018BC005C3000F031F90D4B246263620C4BA36277
:1018CC000C4BE3620C4B23630C4B9C4206D003F194
:1018DC006802944202D0D0339C4205D104F15800E6
:1018EC00BDE8104000F0ECB910BD00BF251A00088F
:1018FC00471A00087F1A0008A31A00085401002098
:10190C00024A0349034800F069B800BF24000020D4
:10191C00DD2500083400002041680C4B10B59942BD
:10192C00044601D000F054FEA168094B994202D044
:10193C00204600F04DFEE168064B994204D020464B
:10194C00BDE8104000F044BE10BD00BF54010020A3
:10195C00BC0100202402002010B50B4B0B4C0C4A90
:10196C0020461A6004210022FFF794FF04F168005E
:10197C0001220921FFF78EFF04F1D0000222BDE8FD
:10198C0010401221FFF786BF8C020020540100206A
:10199C000D190008014800F094B900BF9502002011
:1019AC00014800F08FB900BF9502002010B5044625
:1019BC00FFF7F0FF236A1BB1BDE81040FFF7F0BF43
:1019CC00044B2362044B1B68002BF5D1FFF7C4FFBB
:1019DC00F2E700BF251900088C0200202DE9F8431E
:1019EC000746884614460026D4E90195B9F1010949
:1019FC0005D52468002CF7D13046BDE8F883AB89B7
:101A0C00012B07D9B5F90E30013303D029463846DE
:101A1C00C04706436835E9E710B50C46B1F90E101E
:101A2C0000F000F90028ABBF636DA3891B1823F4E9
:101A3C008053ACBF6365A38110BD2DE9F0411F46F7
:101A4C008B890546DB050C46164605D5022300227C
:101A5C00B1F90E1000F0D4F8A389324623F4805368
:101A6C00A38128463B46B4F90E10BDE8F04100F0C6
:101A7C00EBB810B50C46B1F90E1000F0C1F8431CD0
:101A8C00A38915BF606523F4805343F48053A3816D
:101A9C0018BFA38110BDB1F90E1000F0A1B830B57C
:101AAC001446002C05461A469BB005DA8B230360BE
:101ABC004FF0FF301BB030BD4FF40273ADF80C305B
:101ACC004FF0000319930CBF234604F1FF3302932C
:101ADC0005934FF6FF7300910491ADF80E306946F3
:101AEC001E9B00F069FA431CBCBF8B232B60002C9F
:101AFC00E0D00022009B1A70DCE7000007B50093D1
:101B0C0013460A46014603480068FFF7C8FF03B0B6
:101B1C005DF804FB3000002003460244934200D1E0
:101B2C00704703F8011BF9E7164B2DE9F0411F68CC
:101B3C0005467C6C0E46ECB9502000F02BF90246A1
:101B4C00786420B95B21104B104800F0BDF8C0E957
:101B5C000044C0E90244C0E90444C0E90A44C0E9B5
:101B6C000C44C0E90E44C0E91044C0E9124484613D
:101B7C0004774462314628467A6C0123BDE8F04173
:101B8C0000F006B830000020402E0008572E000848
:101B9C00F0B5044608B9146844B10F46204614F851
:101BAC00015B17F8016B1EB965B91560002005E0E3
:101BBC00B542F6D1002BF0D114600370F0BD1C4679
:101BCC000CE01DB90E46274614F8013B16F8015BD4
:101BDC00AB42F6D1002BF2D000233B701460EDE742
:101BEC0038B50023054D044608462B60FFF700FD71
:101BFC00431C02D12B6803B1236038BD9002002036
:101C0C0038B50446084611460022054D2A601A468E
:101C1C00FFF7F8FC431C02D12B6803B1236038BDDD
:101C2C009002002038B50446084611460022054DA6
:101C3C002A601A46FFF7BEFC431C02D12B6803B185
:101C4C00236038BD9002002038B504460846114682
:101C5C000022054D2A601A46FFF7BCFC431C02D13A
:101C6C002B6803B1236038BD90020020014B18682B
:101C7C00704700BF3000002070B500260C4D0D4C95
:101C8C00641BA410A64209D100F0FAFF00260A4DED
:101C9C000A4C641BA410A64205D170BD55F8043B38
:101CAC0098470136EEE755F8043B98470136F2E7C2
:101CBC00282F0008282F0008282F00082C2F000898
:101CCC0070477047704700001FB514461A46094B01
:101CDC0005461B68D8684CB1074BCDE9013400911F
:101CEC002B46064900F09CFC00F0F2FC044B1C4611
:101CFC00F3E700BF30000020B12E0008BE2E000814
:101D0C00EC2E000838B50546002940D051F8043CAB
:101D1C000C1F002BB8BFE41800F0E6F81C4A13683F
:101D2C0033B9636014602846BDE8384000F0E2B86F
:101D3C00A34208D9206821188B4201BF19685B683F
:101D4C0009182160EDE71A465B680BB1A342FAD97A
:101D5C0011685018A0420BD12068014450188342DE
:101D6C001160E0D118685B68084410605360DAE7D2
:101D7C0002D90C232B60D6E7206821188B4201BFB7
:101D8C0019685B680918216063605460CBE738BD43
:101D9C009C020020024B0146186800F025B800BFD9
:101DAC003000002070B50F4E0C463168054611B955
:101DBC0000F062FC30602146284600F05DFC431CBC
:101DCC0003D14FF0FF34204670BDC41C24F0030433
:101DDC00A042F8D0211A284600F04EFC0130F2D176
:101DEC00EFE700BF980200202DE9F843CD1C25F049
:101DFC00030508350C2D38BF0C25002D064601DBDC
:101E0C00A94204D90C2333600020BDE8F883DFF825
:101E1C00D48000F069F8D8F800301C4644BB294641
:101E2C003046FFF7BFFF431C044658D1D8F800409A
:101E3C002746002F43D1002C4BD02368394630461F
:101E4C0004EB030900F018FC814542D121683046AF
:101E5C006D1A2946FFF7A6FF01303AD023682B44B0
:101E6C002360D8F800305A6862BBC8F800700FE0E5
:101E7C002268521B20D40B2A17D96119A342256062
:101E8C0018BF5960636808BFC8F8001062514B60F6
:101E9C00304600F02FF804F10B00231D20F0070052
:101EAC00C21A1CBF1B1AA350AFE76268A3420CBF37
:101EBC00C8F800205A60EBE723466468AEE73C465E
:101ECC007F68B6E71A465B68A342FBD100235360D8
:101EDC00DEE70C233046336000F00CF894E7056025
:101EEC00D6E700BF9C0200200148FFF7EABE00BF06
:101EFC00940200200148FFF7E5BE00BF94020020C9
:101F0C002DE9F0471F468E688246BE420C4690462D
:101F1C000B682DD8B1F90C2012F4906F26D065699E
:101F2C00096905EB4505A3EB010905EBD5757B1C90
:101F3C004B446D109D4238BF1D46530527D529468D
:101F4C00FFF752FF064660B34A46216900F0B2FB28
:101F5C00A38923F4906343F08003A38126614E444C
:101F6C0026603E466561A5EB0905A560BE4200D919
:101F7C003E4632464146206800F064FB0020A368D0
:101F8C009B1BA360236833442360BDE8F0872A467B
:101F9C0000F0A5FB06460028E0D150462169FFF76A
:101FAC00B1FE0C23CAF80030A3894FF0FF3043F088
:101FBC004003A381E9E700002DE9F04F98468B8997
:101FCC0007461B060D4614469DB010D50B6973B918
:101FDC004021FFF709FF2860286130B90C233B60D2
:101FEC004FF0FF301DB0BDE8F08F40236B61002334
:101FFC00099320238DF8293030234FF00109CDF8B7
:10200C000C80DFF898818DF82A3023469A4613F815
:10201C00012B0AB1252AF9D1BAEB040B0BD05B4684
:10202C00224629463846FFF76BFF013000F0A780A7
:10203C00099A5A4409929AF80030002B00F09F80BC
:10204C0000234FF0FF32CDE905230AF1010A049376
:10205C0007938DF853301A935446052214F8011B3C
:10206C004E4800F019FB049AD8B9D00644BF20237F
:10207C008DF85330110744BF2B238DF853309AF849
:10208C0000302A2B15D0544600204FF00A0C079A2A
:10209C00214611F8013B303B092B4BD9B0B10792CB
:1020AC0014E0A0EB080309FA03F31343A2460493CC
:1020BC00D2E7039B191D1B680391002BBBBF5B422E
:1020CC0042F0020207930793B8BF049223782E2B99
:1020DC000AD163782A2B32D1039B02341A1D1B6858
:1020EC00039243EAE3730593DFF8B4A0032250464E
:1020FC00217800F0D1FA38B14022049BA0EB0A0001
:10210C00824013430134049314F8011B0622254822
:10211C008DF8281000F0C0FA002836D0224B1BBBDB
:10212C00039B073323F0070308330393099B3344C2
:10213C0009936AE70C4601200CFB0232A8E7002346
:10214C004FF00A0C194601340593204610F8012B68
:10215C00303A092A03D9002BC6D00591C4E70446AE
:10216C0001230CFB0121F0E703AB00932A46384610
:10217C000E4B04A9AFF30080421C0646D6D1AB89A6
:10218C005B063FF52DAF09982CE703AB00932A466D
:10219C003846064B04A900F07DF8EDE7ED2E00085B
:1021AC00F32E0008F72E0008000000000D1F000899
:1021BC002DE9F047164698468A680B690746934204
:1021CC00B8BF1346336091F843200C46DDF82090DD
:1021DC000AB1013333602368990642BF3368023376
:1021EC003360256815F0060506D104F1190AE36879
:1021FC0032689B1AAB422BDC94F843302268003BCC
:10220C0018BF0123920630D44146384604F14302EC
:10221C00C847013023D02368226903F00603042B3E
:10222C0014BF002533684FF0000608BFE56804F1C1
:10223C001A0408BFED1A54F8123C08BF25EAE575DC
:10224C009342C4BF9B1AED18B5421AD1002008E086
:10225C000123524641463846C847013003D14FF05E
:10226C00FF30BDE8F0870135C1E73020E11881F877
:10227C0043005A1C94F845102244023382F8431050
:10228C00C2E70123224641463846C8470130E6D012
:10229C000136D9E72DE9FF470F7E9146782F80460E
:1022AC000C469A460C9E01F1430207D8622F0AD8BD
:1022BC00002F00F0D180582F00F0B88004F14206B6
:1022CC0084F842703AE0A7F16303152BF6D801A10C
:1022DC0051F823F0392300084D230008C9220008C7
:1022EC00C9220008C9220008C92200084D23000891
:1022FC00C9220008C9220008C9220008C922000806
:10230C004B2400087723000805240008C922000884
:10231C00C92200086D240008C92200087723000890
:10232C00C9220008C92200080D24000833681A1DB0
:10233C001B68326004F1420684F8423001239CE0B1
:10234C0033682068191D3160060601D51D6803E04D
:10235C004506FBD5B3F90050002D03DA2D236D4251
:10236C0084F843300A23584811E021683368080682
:10237C0053F8045B02D4490648BFADB26F2F3360EB
:10238C0014BF0A2308235048002184F843106668C0
:10239C00002EA66005DB21682E4321F0040121608C
:1023AC004BD01646B5FBF3F103FB1157C75D06F88E
:1023BC00017D2F46BB420D46F4D9082B0BD1236867
:1023CC00DF0708D5236961689942DEBF302306F820
:1023DC00013C06F1FF36921B22614B4621464046DA
:1023EC00CDF800A003AAFFF7E3FE01304AD14FF06D
:1023FC00FF3004B0BDE8F087236843F0200323606E
:10240C007827324884F84570236831681F0651F8E4
:10241C00045B02D45F0648BFADB23160D90744BF3C
:10242C0043F0200323601DB11023ADE72648E9E7F4
:10243C00236823F020032360F6E71646BDE73368D4
:10244C002568181D616930602E061B6801D519605E
:10245C0002E06806FBD51980002316462361BCE711
:10246C00336800211A1D32601E686268304600F025
:10247C0013F908B1801B606063682361002384F842
:10248C004330AAE73246494640462369D0470130DB
:10249C00ADD023689B0713D4E068039B9842B8BF68
:1024AC001846A6E70123324649464046D04701303C
:1024BC009DD00135E36803995B1AAB42F2DCEBE784
:1024CC00002504F11906F5E7FE2E00080F2F000871
:1024DC00B1F90C20F8B5160705460C4654D44B68D8
:1024EC00002B02DC0B6C002B48DDE66A002E45D07D
:1024FC00002312F480522F68216A2B6030D0626D59
:10250C00A389590705D56368D21A636B0BB1236C89
:10251C00D21A00232846E66A216AB047431CA389D5
:10252C0006D129681D292BD8284ACA40D60727D599
:10253C00002262602269D904226004D5421C01D1B8
:10254C002B6803B96065616B2F60B9B104F144036A
:10255C00994202D02846FFF7D5FB002363630DE0B8
:10256C0001232846B0470246501CC9D12B68002BCA
:10257C00C6D01D2B01D0162B1DD12F60002021E0C1
:10258C0043F040031BB21AE00F69002FF6D09307FB
:10259C0018BF00230E6808BF4B69F61B0F608B60D9
:1025AC00002EEBDD33463A462846216AD4F828C083
:1025BC00E047002807DCB4F90C3043F040034FF03F
:1025CC00FF30A381F8BD0744361AE9E7010040202B
:1025DC0038B50B6905460C4613B90025284638BD9D
:1025EC0018B1036A0BB9FFF7E1F9B4F90C30002B01
:1025FC00F3D0626ED00704D4990502D4A06DFFF716
:10260C0060FB28462146FFF763FF636E0546DA0739
:10261C00E4D4A3899B05E1D4A06DFFF753FBDDE760
:10262C000EB403B5014603AB054853F8042B006800
:10263C00019300F0A9F802B05DF804EB03B0704709
:10264C0030000020884210B501EB020402D984420C
:10265C00234607D8431EA14208D011F8012B03F8DA
:10266C00012FF8E7014602448A4200D110BD13F84D
:10267C00014D02F8014DF7E738B50023054D04462E
:10268C0008462B60FEF762FF431C02D12B6803B196
:10269C00236038BD90020020034610B5C9B2024435
:1026AC009342184601D1002003E0047801338C4298
:1026BC00F6D110BD0A44914200F1FF3300D17047AE
:1026CC0010B511F8014B914203F8014FF9D110BD2F
:1026DC00062008B500F02CFA0120FEF765FF2DE965
:1026EC00F041074614460D4621B91146BDE8F041AC
:1026FC00FFF77ABB2AB9FFF705FB25462846BDE84C
:10270C00F08100F031FA8442064602D8B4EB500F47
:10271C00F4D821463846FFF767FB804608B9454692
:10272C00ECE7B4422246294628BF3246FFF7C2FFE7
:10273C0029463846FFF7E6FAF1E7936810B4013BF7
:10274C00002B936007DA9469A34201DB0A2902D1BA
:10275C0010BC00F031B91368581C10601970084691
:10276C0010BC7047F8B506460F461446D518AC4257
:10277C0001D1002007E03A46304614F8011BFFF760
:10278C00DCFF431CF3D1F8BD2DE9F04F0D46144688
:10279C00984606469DB018B1036A0BB9FFF706F9C7
:1027AC006B6ED90705D4AB899A0502D4A86DFFF7D7
:1027BC0088FAAB891B0701D52B699BB92946304692
:1027CC0000F038F970B16B6EDC0704D54FF0FF30B8
:1027DC001DB0BDE8F08FAB899805F7D4A86DFFF755
:1027EC0071FAF3E70023099320238DF82930302365
:1027FC004FF00109CDF80C80DFF8A8818DF82A3054
:10280C0023469A4613F8012B0AB1252AF9D1BAEBC3
:10281C00040B0BD05B46224629463046FFF7A2FF3D
:10282C00013000F0A780099A5A4409929AF80030B6
:10283C00002B00F09F8000234FF0FF32CDE90523E1
:10284C000AF1010A049307938DF853301A935446F6
:10285C00052214F8011B5348FFF71EFF049AD8B940
:10286C00D10644BF20238DF85330130744BF2B23CC
:10287C008DF853309AF800302A2B15D0544600208E
:10288C004FF00A0C079A214611F8013B303B092BFB
:10289C004BD9B0B1079214E0A0EB080309FA03F38B
:1028AC001343A2460493D2E7039B191D1B680391A3
:1028BC00002BBBBF5B4242F0020207930793B8BFE9
:1028CC00049223782E2B0AD163782A2B32D1039BC6
:1028DC0002341A1D1B68039243EAE3730593DFF875
:1028EC00C8A0032250462178FFF7D6FE38B140220B
:1028FC00049BA0EB0A00824013430134049314F8A8
:10290C00011B062229488DF82810FFF7C5FE002868
:10291C003FD0274B1BBB039B073323F00703083324
:10292C000393099B3B4409936AE70C4601200CFB7B
:10293C000232A8E700234FF00A0C19460134059324
:10294C00204610F8012B303A092A03D9002BC6D0A7
:10295C000591C4E7044601230CFB0121F0E703AB0E
:10296C0000932A463046134B04A9AFF30080074668
:10297C00781CD6D16B6ED90705D4AB899A0502D4D5
:10298C00A86DFFF79FF9AB895B063FF51FAF099860
:10299C001EE703AB00932A463046064B04A9FFF70B
:1029AC0079FCE4E7ED2E0008F32E0008F72E000862
:1029BC000000000071270008F8B50E4614460546C5
:1029CC0018B1036A0BB9FEF7F1FFA369A360A389E1
:1029DC001A0701D5236943B92146284600F02AF885
:1029EC0018B14FF0FF373846F8BD23682269F6B2AC
:1029FC00981A63693746834205DC21462846FFF75F
:102A0C00E7FD0028EDD1A368013BA36023685A1CA5
:102A1C0022601E706269431C9A4204D0A389DB07B2
:102A2C00E1D50A2EDFD121462846FFF7D1FD00283B
:102A3C00D9D0D6E738B5294B054618680C4618B1DD
:102A4C00036A0BB9FEF7B2FFB4F90C30190722D4A4
:102A5C00DA0607D409222A6043F040034FF0FF3016
:102A6C00A38133E0580712D5616B41B104F14403E3
:102A7C00994202D02846FFF745F900236363A389E6
:102A8C0023F02403A3810023636023692360A389BB
:102A9C0043F00803A38123694BB9A38903F4207382
:102AAC00B3F5007F03D02146284600F08AF8B4F92C
:102ABC000C3013F001020AD00022A260626952426B
:102ACC00A261226942B913F08000C5D138BD9907C3
:102ADC0058BF6269A260F4E70020F7E730000020DD
:102AEC001F2938B505460C4604D9162303604FF050
:102AFC00FF3038BDC26B12B152F821304BB92846A9
:102B0C0000F030F8224601462846BDE8384000F077
:102B1C0017B8012B0AD0591C03D1162303600120CE
:102B2C00E7E70021204642F8241098470020E0E710
:102B3C00024B01461868FFF7D3BF00BF30000020DE
:102B4C0038B50023064D0446084611462B60FEF7A7
:102B5C0023FD431C02D12B6803B1236038BD00BF99
:102B6C0090020020FEF716BD51F8043C181F002BF4
:102B7C00BCBF0B58C018704770B50C46B1F90E109D
:102B8C00154600291E4696B00CDAA389002113F0D5
:102B9C00800F14BF40234FF48063002031602B6002
:102BAC0016B070BD6A4600F049F80028EDDB0199BB
:102BBC0001F47041A1F50053594259414FF480631F
:102BCC00EBE78B89F7B59D0706460C4607D504F154
:102BDC004703236023610123636103B0F0BD6A46A0
:102BEC0001ABFFF7C9FF009F054639463046FFF79A
:102BFC00FBF848B9B4F90C309A05EED423F0030372
:102C0C0043F00203A381E2E7A389C4E9040743F07C
:102C1C008003A381019B20605BB13046B4F90E1098
:102C2C0000F01EF828B1A38923F0030343F001033D
:102C3C00A381A3891D43A581CFE7000038B50023EC
:102C4C00064D0446084611462B60FEF7D4FC431C87
:102C5C0002D12B6803B1236038BD00BF9002002065
:102C6C0038B50023054D044608462B60FEF7C8FC1A
:102C7C00431C02D12B6803B1236038BD90020020A5
:102C8C00F8B500BFF8BC08BC9E467047F8B500BF4D
:082C9C00F8BC08BC9E4670471D
:102CA4000102000002030405060708090A0B0C0DC3
:102CB4000E0F1010000000000102030400000000C9
:102CC40000000000010203040607080947455444B4
:102CD4004154410067657420646174612066756EB7
:102CE40074696F6E000000002000000045524F52CE
:102CF4005200000025730000546F206D7563682036
:102D0400616772756D656E74000000004E6F74200B
:102D1400656E6F756E6720616772756D656E7400A0
:102D240047657420646174612073756363657373AC
:102D34002000000048454C4C4F200000202020205B
:102D44002020202020282828282820202020202057
:102D54002020202020202020202020208810101037
:102D6400101010101010101010101010040404048F
:102D74000404040404041010101010101041414104
:102D8400414141010101010101010101010101016F
:102D94000101010101010110101010101042424202
:102DA400424242020202020202020202020202023F
:102DB40002020202020202101010102000000000A1
:102DC40000000000000000000000000000000000FF
:102DD40000000000000000000000000000000000EF
:102DE40000000000000000000000000000000000DF
:102DF40000000000000000000000000000000000CF
:102E040000000000000000000000000000000000BE
:102E140000000000000000000000000000000000AE
:102E2400000000000000000000000000000000009E
:102E34000000000000000000000000005245454E64
:102E440054206D616C6C6F63207375636365656496
:102E54006564002F6275696C642F676E752D746FDD
:102E64006F6C732D666F722D73746D33325F3133F3
:102E74002E332E72656C312E323032343039323684
:102E84002D313731352F7372632F6E65776C69621C
:102E94002F6E65776C69622F6C6962632F7374722D
:102EA400696E672F737472746F6B2E63002C2066C7
:102EB400756E6374696F6E3A200061737365727422
:102EC400696F6E2022257322206661696C65643AFD
:102ED4002066696C6520222573222C206C696E653E
:102EE400202564257325730A00232D302B200068C8
:102EF4006C4C0065666745464700303132333435E3
:102F04003637383941424344454600303132333450
:0C2F140035363738396162636465660049
:082F20002CD2FF7F010000002C
:042F2800310100086B
:042F2C000D0100088B
:102F3000010000001000000000127A00D02C0008F0
:102F40001C0000200000000000000000F116000836
:102F5000D82C0008000000000300000054010020ED
:102F6000340000200000000054010020BC010020BB
:102F7000240200200000000000000000000000000B
:102F80000000000000000000000000000000000041
:102F90000000000000000000000000000000000031
:102FA0000000000000000000000000000000000021
:040000050800174593
:00000001FF
