:020000040800F2
:1000000000000220355000082B2F00082D2F00087B
:100010002F2F0008312F0008332F000800000000A8
:10002000000000000000000000000000352F000864
:10003000372F000800000000392F00083B2F000870
:10004000855000088550000885500008855000083C
:10005000855000088550000885500008855000082C
:10006000855000088550000885500008855000081C
:10007000855000088550000885500008855000080C
:1000800085500008855000088550000885500008FC
:1000900085500008855000088550000885500008EC
:1000A00085500008855000088550000885500008DC
:1000B00085500008855000088550000885500008CC
:1000C00085500008855000088550000885500008BC
:1000D00085500008855000088550000885500008AC
:1000E000855000088550000885500008855000089C
:1000F000855000088550000885500008855000088C
:10010000855000088550000885500008855000087B
:10011000855000088550000885500008855000086B
:10012000855000088550000885500008855000085B
:10013000855000088550000885500008855000084B
:10014000855000088550000885500008452F00089C
:10015000855000088550000885500008855000082B
:10016000855000088550000885500008855000081B
:1001700085500008855000088550000800000000E8
:080180008550000885500008BD
:1001880010B5054C237833B9044B13B10448AFF3C9
:1001980000800123237010BD7C00002000000000B7
:1001A8002053000808B5034B1BB103490348AFF3BC
:1001B800008008BD000000008000002020530008D7
:1001C80053B94AB9002908BF00281CBF4FF0FF31B6
:1001D8004FF0FF3000F088B9ADF1080C6DE904CE9E
:1001E80000F006F8DDF804E0DDE9022304B070470A
:1001F8002DE9F047089D8E4604468846002B4AD1D3
:100208008A42174662D9B2FA82F64EB1C6F1200385
:1002180001FA06F820FA03F3B74043EA0808B440A5
:100228004FEA174E1FFA87FCB8FBFEF1230C0EFBB2
:10023800118843EA084301FB0CF29A4209D9FB18DA
:1002480001F1FF3080F0EA809A4240F2E7800239FB
:100258003B449A1AA3B2B2FBFEF00EFB102243EA0B
:10026800024300FB0CFC9C4509D9FB1800F1FF3246
:1002780080F0D6809C4540F2D3803B44023840EA67
:100288000140A3EB0C0300211DB1F3400022C5E996
:100298000032BDE8F0878B4205D90DB1C5E90001F0
:1002A80000210846F5E7B3FA83F1002946D17345E2
:1002B80002D3824200F20581841A6EEB0302012008
:1002C8009046002DE5D0C5E90048E2E7002A00F095
:1002D8009080B2FA82F6002E40F0A4808A1A030CAD
:1002E8004FEA174E80B2BCB20121B2FBFEFC0EFBF6
:1002F8001C2243EA024304FB0CF29A4207D9FB187A
:100308000CF1FF3802D29A4200F2E080C4469B1AF0
:10031800B3FBFEF20EFB123340EA034302FB04F484
:100328009C4207D9FB1802F1FF3002D29C4200F22E
:10033800CA8002461B1B42EA0C40A5E7C1F1200611
:100348008B4022FA06F71F430EFA01F420FA06F34F
:100358002EFA06FE4FEA1749234300FA01F81FFA5E
:1003680087FCBEFBF9F01C0C09FB10EE44EA0E44B6
:1003780000FB0CFEA64502FA01F209D93C1900F16E
:10038800FF3A80F09C80A64540F2998002383C44B0
:10039800A4EB0E041FFA83FEB4FBF9F309FB134424
:1003A8004EEA044403FB0CFCA44508D93C1903F1AC
:1003B800FF3E80F08280A4457FD9023B3C4443EA5B
:1003C8000040A4EB0C04A0FB02EC64457346E14634
:1003D80062D35FD05DB1B8EB030264EB090404FAA1
:1003E80006F622FA01F31E43CC40C5E90064002159
:1003F8004FE7B1FBF2FC010C41EA0E4180B240EA42
:1004080001423B4638463C46B846BE462026B1FB2C
:10041800F7F1A2EB080241EA0C4166E7014618E74A
:1004280010462CE7C6F120022EFA02F3B740B1407D
:1004380020FA02F24FEA174E0A43B3FBFEF8BCB2A9
:100448000EFB1833110C41EA034108FB04F9B040D4
:1004580089454FEA104380B23ED9791808F1FF3C2C
:1004680001D289451FD8A1EB0901B1FBFEF909FBAF
:1004780004F80EFB191192B242EA0142424529D210
:10048800BA1809F1FF31C4D24245C2D2A9F102011A
:100498003A44BEE7F0459DD2BEEB02036CEB070C75
:1004A8000138E14696E7A7EB09094944A8F1020C8F
:1004B800B1FBFEF909FB04F8DBE773467FE750461A
:1004C80066E70846FDE63B44023A33E7ACF1020C26
:1004D8003B441CE749469CE7A1EB0901C446B1FB34
:1004E800FEF909FB04F8C4E7704700BF2DE9F04F97
:1004F8008DB000240794089409940A940B940194ED
:10050800564B1A6B42F010021A631A6B02F0100273
:100518000192019A02941A6B42F004021A631A6B50
:1005280002F004020292029A03941A6B42F08002CB
:100538001A631A6B02F080020392039A04941A6BEE
:1005480042F001021A631A6B02F001020492049A43
:1005580005941A6B42F002021A631A6B02F0020247
:100568000592059A06941A6B42F008021A631B6BEF
:1005780003F008030693069B394E224608213046AD
:1005880000F01AFBDFF8E09001221146484600F01F
:1005980013FBDFF8D88022464FF21001404600F0E6
:1005A8000BFB082707970125089509940A9407A9C2
:1005B800304600F00BFA0795089509940A9407A9A4
:1005C800484600F003FA07970227089709940A9407
:1005D8004FF0050ACDF82CA007A9484600F0F6F917
:1005E80007954FF49019CDF82090099407A91D4854
:1005F80000F0ECF90423079308940994DFF870B02D
:1006080007A9584600F0E2F94FF48063079308976A
:1006180009940A94CDF82CA007A9584600F0D6F9F9
:100628004FF210030793089509940A9407A94046C6
:1006380000F0CCF9202307930894099407A94046B1
:1006480000F0C4F90797CDF82090099407A930461F
:1006580000F0BCF90DB0BDE8F08F00BF00380240D3
:10066800001002400000024000080240000C024056
:100678000004024072B6FEE708B50A480A4B036058
:100688000A4B436000238360C3604FF480420261D9
:1006980043618361C361036201F008FB00B908BDCF
:1006A800FFF7E8FF3801002000540040A086010051
:1006B80008B50A480A4B03604FF4007242600023F1
:1006C8008360C3600261074A42618361C361036258
:1006D80001F0CAFB00B908BDFFF7CCFFF00000200D
:1006E800003C00400077010008B50D480D4B036041
:1006F8004FF48273436000238360C36003614361E6
:100708004FF400728261C3610362436283620A2309
:10071800C36202F0A7FB00B908BDFFF7ABFF00BF3B
:10072800980000200030014000B595B0302200212B
:1007380008A804F063FD002303930493059306932C
:1007480007930193214A116C41F080511164126C96
:1007580002F080520192019A02931D4B1A6842F4EA
:1007680080421A601B6803F480430293029B0123B2
:1007780008934FF48033099302230E934FF48002B9
:100788000F92082210924FF4A87211921293072325
:10079800139308A801F054FF98B90F230393022379
:1007A8000493002305934FF4A05306934FF480530A
:1007B8000793052103A802F0ADF920B915B05DF83B
:1007C80004FBFFF757FFFFF755FF00BF0038024053
:1007D8000070004008B500F03DF8FFF7A5FFFFF7EF
:1007E80085FEFFF749FFFFF763FFFFF77DFF03F083
:1007F800FDF803F01BF901224FF48051014800F085
:10080800DBF9F6E7000C024010B504460E4B1A78E7
:100818004FF47A73B3FBF2F30C4A1068B0FBF3F0B1
:1008280000F0C0F868B90F2C01D901200AE00022B5
:1008380021464FF0FF3000F0A1F8054B1C60002066
:1008480000E0012010BD00BF0000002008000020CB
:100858000400002008B50B4B1A6842F400721A60B5
:100868001A6842F480621A601A6842F480721A6048
:10087800032000F071F80020FFF7C6FF01F0F2FD39
:10088800002008BD003C0240034A1168034B1B7856
:100898000B441360704700BF8C010020000000204B
:1008A800014B1868704700BF8C01002038B504461A
:1008B800FFF7F6FF0546B4F1FF3F02D0044B1B7863
:1008C8001C44FFF7EDFF401BA042FAD338BD00BF20
:1008D80000000020002807DB00F01F024009012368
:1008E8009340024A42F82030704700BF00E100E020
:1008F800002808DB0901C9B200F1604000F5614039
:1009080080F80013704700F00F000901C9B2014BCD
:100918001954704714ED00E000B500F00700C0F16D
:10092800070CBCF1040F28BF4FF0040C031D062B65
:100938000FD9C31E4FF0FF3E0EFA0CF021EA00015A
:1009480099400EFA03FE22EA0E0241EA02005DF81F
:1009580004FB0023EEE70000074AD36823F4E063B2
:100968001B041B0C000200F4E060034343F0BF6368
:1009780043F40033D360704700ED00E010B504463F
:10098800054BD868C0F30220FFF7C6FF0146204692
:10099800FFF7AEFF10BD00BF00ED00E008B5FFF7A0
:1009A80099FF08BD0138B0F1807F0BD24FF0E023EA
:1009B8005861054AF02182F8231000209861072227
:1009C8001A6170470120704700ED00E000230F2BEB
:1009D80000F2E98070B582B065E085684FEA430EA1
:1009E800032404FA0EF425EA0405CC6804FA0EF48C
:1009F8002C438460446824EA02044A68C2F3001263
:100A08009A40224342605CE0DC08083450F8242015
:100A180003F00705AD004FF00F0E0EFA05FE22EAAF
:100A28000E0E0A69AA4042EA0E0240F824205CE051
:100A3800072200E0002202FA0EF22A4302345A4D3D
:100A480045F82420594A94686FEA0C0224EA0C05F8
:100A58004E6816F4801F01D04CEA0405534CA5607B
:100A6800E46802EA04054E6816F4001F01D04CEA57
:100A780004054E4CE560646802EA04054E6816F405
:100A8800003F01D04CEA0405484C656024682240C8
:100A98004D6815F4803F01D04CEA0402434C2260B3
:100AA80001330F2B7DD801229A400C6804EA020C0E
:100AB80032EA0404F4D14C6804F00304013C012C2C
:100AC8008BD94A6802F00302032A09D0C4685D0082
:100AD8000322AA4024EA02048A68AA402243C26088
:100AE8004A6802F00302022A8ED004684FEA430ED5
:100AF800032202FA0EF224EA02044A6802F0030210
:100B080002FA0EF2224302604A6812F4403FC7D04C
:100B180000220192264A546C44F480445464526C76
:100B280002F480420192019A9C08A51C1E4A52F8C0
:100B3800255003F0030E4FEA8E0E0F2202FA0EF232
:100B480025EA02051B4A90423FF474AF02F5806221
:100B580090421AD002F58062904218D002F5806265
:100B6800904216D002F58062904214D002F580625D
:100B7800904212D002F58062904210D002F5806255
:100B880090423FF455AF082255E7012253E702226D
:100B980051E703224FE704224DE705224BE70622DF
:100BA80049E702B070BD704700380140003C014081
:100BB80000380240000002400AB181617047090410
:100BC80081617047F8B50668346A04F00F07C4F30A
:100BD8004343C4F30A14022B00D0F8BD0546002C89
:100BE800FBD0C7EB071300EB8303D96A0029F4D0C5
:100BF800C7EB071300EB83039A6B22445B6B9A42A3
:100C080007D9C7EB071700EB8705042385F84C3095
:100C1800E3E72246304602F079FAC7EB071305EB03
:100C28008303DA6A2244DA629A6B22449A6306EBF7
:100C38004716D6F810251B8DA342CED10B4B134077
:100C4800002BCAD0D6F8003523F0804343F0004388
:100C5800C6F80035C7EB071305EB830393F83C2070
:100C680082F0010283F83C20B7E700BF0000F81FBC
:100C780090F8D433012B0BD010B50446012380F82B
:100C8800D433006802F039FC002084F8D40310BD86
:100C980002207047002842D030B583B0044605686A
:100CA80090F8D533BBB1032384F8D533B5F1A04F01
:100CB80016D0206802F0C5F9237C8DF80030231D7A
:100CC8000ECB206802F06EF968B1022384F8D533A0
:100CD800012003B030BD80F8D43303F0A9F8E2E76F
:100CE8000023A371E5E70121206802F043FA20B14F
:100CF800022384F8D5330120EBE7237C8DF80030FC
:100D0800231D0ECB206802F067FA18B9012384F876
:100D1800D533DEE7022384F8D5330120D9E7012053
:100D2800704738B59DF81040BDF81850C1EB011C4C
:100D380000EB8C0C8CF817208CF8263094B9C1EB9A
:100D4800011C00EB8C0C4FF0030E8CF82AE09DF888
:100D58001CE08CF819E0032B00F2B180DFE803F007
:100D68000BA84C7AC1EB011C00EB8C0C4FF0020E67
:100D78008CF82AE0EFE7012C40F0A180F2B935B9F0
:100D8800C1EB011300EB8303012283F83D20C1EB83
:100D9800011300EB830393F83D303BB9C1EB01131A
:100DA80000EB8303002283F82A2088E0C1EB0113BB
:100DB80000EB8303022283F82A2080E0C1EB0113B1
:100DC80000EB83039B7E012B79D1C1EB011300EB70
:100DD800830393F83C303BB9C1EB011300EB830369
:100DE800002283F82A206AE0C1EB011300EB830399
:100DF800022283F82A2062E0AAB9C1EB011300EBB2
:100E0800830393F83D3033B9C1EB011300EB83033F
:100E180083F82A2053E0C1EB011300EB830302227D
:100E280083F82A204BE0C1EB011300EB830393F80E
:100E38003C303BB9C1EB011300EB8303002283F87C
:100E48002A203CE0C1EB011300EB8303022283F864
:100E58002A2034E0AAB9C1EB011300EB830393F80D
:100E68003D3033B9C1EB011300EB830383F82A202B
:100E780025E0C1EB011300EB8303022283F82A204B
:100E88001DE0C1EB011300EB830393F83C303BB941
:100E9800C1EB011300EB8303002283F82A200EE044
:100EA800C1EB011300EB8303022283F82A2006E03A
:100EB800C1EB011300EB8303002283F82A20C1EB66
:100EC800011300EB8303059ADA625D63002283F85D
:100ED8004C209A63597583F84D20C1EB01118900A4
:100EE8001031014482790431006802F097FB38BD63
:100EF80030B583B004460568D5F840340193D5F879
:100F080040340093009B23F02E030093019B13F0C1
:100F1800020F07D0019B13F0010F25D1009B43F06E
:100F280002030093019B13F0080F10D0009B43F0BD
:100F380008030093019B13F0040F2DD0637A022B52
:100F480015D0E379012B22D0204602F0CEFF019B79
:100F580013F0200F03D0009B43F020030093009B65
:100F6800C5F8403403B030BD02F0B2FFD6E7019BAC
:100F780003F4C023B3F5802F04D00121206802F0C8
:100F8800ABF9E1E70221206802F0A6F9DCE74EF6AA
:100F98006022C5F80424D7E7204602F0ACFFD6E764
:100FA800F8B505460C460668304602F0D6F810F04B
:100FB800040F21D006EB44130422C3F80825C4EB20
:100FC800041305EB8303072283F84D202146286884
:100FD80002F093FA2146286802F0BFF810F4007F67
:100FE8006CD02146286802F088FA06EB44164FF4C4
:100FF8000073C6F80835F8BD2146286802F0ADF838
:1010080010F4807F11D006EB44134FF48072C3F8BC
:101018000825C4EB041305EB8303082283F84D204D
:101028002146286802F069FAD4E72146286802F0C8
:1010380094F810F0080F10D006EB44130822C3F8F8
:101048000825C4EB041305EB8303062283F84D201F
:101058002146286802F051FABCE72146286802F0C8
:101068007CF810F4806F11D006EB44134FF48062C3
:10107800C3F80825C4EB041305EB8303092283F89E
:101088004D202146286802F038FAA3E7214628684F
:1010980002F063F810F0800F9CD006EB4413802216
:1010A800C3F80825C4EB041305EB8303072283F870
:1010B8004D202146286802F020FA8BE7214628684F
:1010C80002F04BF810F0010F7CD006EB441606F541
:1010D800A0672023BB60C4EB041305EB8303DB7E0E
:1010E800012B1DD0AB794BB1C4EB041305EB830383
:1010F8001A6B3969C1F31201521A9A63C4EB0413CB
:1011080005EB8303012283F84D2000215964BA605E
:1011180093F82630032B14D8DFE803F00D250D25AE
:10112800C4EB041305EB83030022DA767B6823F40F
:1011380080337B60D6E72146286802F0DEF9102369
:10114800BB60AB79012B20D0C4EB041305EB830300
:1011580093F83C30C4EB041405EB840483F00103DA
:1011680084F83C3047E7D6F8003543F00053C6F81A
:101178000035C4EB041305EB8303012283F84C20EC
:101188002146284602F0B0FEDBE7C4EB041205EB6B
:101198008202936B128D1344013BB3FBF2F313F0FD
:1011A800010F3FF428AFC4EB041305EB830393F856
:1011B8003C30C4EB041405EB840483F0010384F889
:1011C8003C3018E72146286801F0C7FF10F0200FCF
:1011D8001ED006EB44162023C6F80835C4EB0413CA
:1011E80005EB83039B7E012B7FF405AFC4EB04134F
:1011F80005EB83030122DA76C4EB041305EB8303C2
:10120800032283F84D202146286802F076F9F2E699
:101218002146286801F0A1FF10F0020F00F022819A
:1012280006EB441606F5A06202239360C4EB041390
:1012380005EB830393F84D30013B082B1ED801A121
:1012480051F823F071120008FF0F0008C9130008B5
:1012580021140008291300089B120008B112000885
:1012680051140008B1120008C4EB041305EB830302
:10127800022283F84D20012283F84C20C4EB04138A
:1012880005EB830393F84C202146284602F02CFEF8
:10129800B1E6C4EB041305EB8303022283F84D2067
:1012A800052283F84C20E9E7C4EB041305EB83031C
:1012B800022183F84D10596C0131596402291AD959
:1012C800C4EB041305EB8303002159649B7E012BB7
:1012D80007D0C4EB041305EB8303042283F84C20E6
:1012E800CCE73C2303FB0453D9761977536823F4DE
:1012F80080335360EDE7C4EB041305EB830302224C
:1013080083F84C2093F826300BB19342B6D1D6F827
:10131800003523F0804343F00043C6F80035ADE7BD
:10132800C4EB041305EB8303022183F84D10DB7E25
:10133800012BA3D1C4EB041305EB830393F82630E8
:10134800032B17D03C2303FB0453022283F84C20C1
:10135800C4EB041305EB830393F826300BB1022B7F
:101368008CD1D6F8003523F0804343F00043C6F80B
:10137800003583E73C2101FB04518B6C01338B64FE
:10138800022B16D90B4600219964D9765B6C022B87
:1013980004D83C2303FB045301211977536823F431
:1013A800803353603C2303FB0453042283F84C200E
:1013B800CEE73C2303FB0453022283F84C20C7E703
:1013C800C4EB041305EB8303022183F84D10DB7E85
:1013D800012B7FF453AFC4EB041305EB830383F8AD
:1013E8004C10516841F480315160D16841F040019E
:1013F800D160D16821F02001D16093F8263013B173
:10140800022B7FF43BAFD6F8003523F0804343F03E
:101418000043C6F8003531E7C4EB041305EB83033A
:10142800022283F84D2083F84C2093F8263013B11C
:1014380093427FF423AFD6F8003523F0804343F07E
:101448000043C6F8003519E7C4EB041305EB830322
:10145800022283F84D205A6C01325A64042283F820
:101468004C200BE72146286801F077FE10F0400F6A
:1014780018D006EB44134022C3F80825C4EB041324
:1014880005EB8303052283F84D209B7E2BB9C4EB23
:10149800041305EB830300225A642146286802F0EE
:1014A8002CF8A8E52146286801F057FE10F0100F27
:1014B8003FF4A1ADC4EB041305EB830393F8263086
:1014C800032B28D00BB1022B18D1C4EB041305EB66
:1014D800830300225A64AB7933B1C4EB041305EBE0
:1014E8008303DB7E012B09D13C2303FB0453042235
:1014F80083F84D202146286801F0FFFFC4EB041350
:1015080005EB8303DB7E012B12D006EB441310227C
:10151800C3F808256FE53C2303FB045300225A64F3
:10152800042283F84D202146286801F0E6FFE5E70C
:10153800C4EB041305EB83050023EB7606EB441399
:10154800D3F8042522F48032C3F80425D3F80C25F7
:1015580042F02002C3F80C25D7E700BF70B5054656
:101568000C460668304601F0F8FD10F0040F10D064
:1015780006EB44160423C6F80835C4EB041305EB40
:101588008303072283F84D202146286801F0B5FF20
:1015980070BD2146286801F0E0FD10F0200F4AD008
:1015A80006EB44162023C6F80835C4EB041305EBF4
:1015B80083035B7E012B2DD0C4EB041305EB83035F
:1015C8009B7E012BE4D1C4EB041305EB8303DB7E84
:1015D800002BDDD1C4EB041305EB830393F826300D
:1015E800012B05D0C4EB041305EB83030122DA7643
:1015F8002601C4EB041305EB8303032283F84D2073
:101608002146286801F079FF361B05EB8606002382
:101618007364BDE7C4EB041305EB830300225A7619
:10162800022283F84C20032283F84D2021462868A3
:1016380001F063FFC0E72146286801F08EFD10F431
:10164800007F0AD006EB44164FF40073C6F808353D
:101658002146286801F051FF9AE72146286801F0E1
:101668007CFD10F0010F3BD0C4EB041305EB8303A2
:1016780000225A642146286801F06FFD10F0400FDF
:101688000AD0C4EB041305EB830301225A7606EB58
:1016980044134022C3F80825C4EB041305EB830365
:1016A800DB7E6BB1C4EB041305EB83030022DA760F
:1016B80006EB4413D3F8042522F48032C3F804253A
:1016C80006EB44160122C6F80825C4EB041305EB03
:1016D800830383F84D202146286801F00EFF57E761
:1016E8002146286801F039FD10F0400F1ED0C4EBE8
:1016F800041305EB8303052283F84D209B7E2BB949
:10170800C4EB041305EB830301225A76C4EB0413DC
:1017180005EB830300225A642146286801F0EDFE98
:1017280006EB44164023C6F8083531E721462868F9
:1017380001F013FD10F0080F10D006EB4413082237
:10174800C3F80825C4EB041305EB8303062283F8CA
:101758004D202146286801F0D0FE19E72146286867
:1017680001F0FBFC10F0100F20D0C4EB041305EBC4
:10177800830300225A64042283F84D205B7E5BB900
:10178800C4EB041305EB83031B7E2BB9C4EB0413D2
:1017980005EB830301225A762146286801F0ADFE45
:1017A80006EB44131022C3F80825F1E62146286801
:1017B80001F0D3FC10F0800F38D0AB79F3B1C4EB53
:1017C800041205EB8202536C01335364022B20D8B8
:1017D8003C2303FB0453022283F84C2006EB4412FB
:1017E800D2F8003523F0804343F00043C2F80035B7
:1017F80006EB44138022C3F80825C9E63C2303FB03
:101808000453072283F84D202146286801F075FE0D
:10181800EEE73C2303FB045300225A64042283F8B6
:101828004C202146284602F05FFBE1E72146286864
:1018380001F093FC10F4806F10D03C2303FB045399
:10184800092283F84D202146286801F056FE06EB50
:1018580044134FF48062C3F8082599E621462868A6
:1018680001F07BFC10F0020F3FF492AE06EB441639
:1018780006F5A062022393603C2303FB045393F80C
:101888004D30013B082B3FF683AE01A151F823F000
:10189800BD180008991500082B19000849190008F7
:1018A8007319000897190008AB1900089915000862
:1018B800AB1900083C2303FB0453022283F84D2094
:1018C800012283F84C2093F82630023BDBB2934286
:1018D80053D8A97941B93C2303FB045393F83D201D
:1018E80082F0010283F83D20012946D13C2303FB05
:1018F80004535B6B002B40D03C2202FB0452128D38
:101908001344013BB3FBF2F313F0010F35D03C2332
:1019180003FB045393F83D2082F0010283F83D2035
:101928002BE03C2303FB0453022283F84D20DB7E8B
:10193800012B22D13C2303FB045383F84C201CE0E9
:101948003C2303FB0453022183F84D1083F84C1009
:10195800DB7E012B11D13C2303FB04530021D976F4
:10196800536823F48033536007E03C2303FB04539C
:10197800022283F84D2083F84C203C2303FB0453B8
:1019880093F84C202146284602F0AEFA00E63C23A4
:1019980003FB0453022283F84D20052283F84C20D0
:1019A800EBE73C2303FB0453022283F84D205A6CD7
:1019B80001325A64022A08D93C2303FB045300224B
:1019C8005A64042283F84C20D7E73C2303FB0453D2
:1019D800022283F84C20D6F8003523F0804343F0E8
:1019E8000043C6F80035C8E7F8B504460568284638
:1019F80001F0BCFB012800D0F8BD206801F0A9FB6C
:101A08000028F9D0206801F0A4FB10F4001F03D0CF
:101A180023684FF400125A61206801F09AFB10F411
:101A2800801F03D023684FF480125A61206801F0A8
:101A380090FB10F0806F03D023684FF080625A61EA
:101A4800206801F086FB10F0020F02D02368022202
:101A58005A61206801F07DFB10F0005F08D0236810
:101A68004FF000525A61D5F8403413F0010F25D0D9
:101A7800206801F06EFB10F0807F32D1206801F001
:101A880068FB10F0080F30D1206801F062FB10F0FD
:101A9800007F31D1206801F05CFB10F0100FABD053
:101AA8002268936923F0100393612046FFF78AF8B0
:101AB8002268936943F0100393619DE7102128463B
:101AC80001F0C5FA284601F0E7FA637A022B03D041
:101AD800204602F003FACBE70121206801F0FCFB65
:101AE800F6E72046FFF704FAC8E7204602F0EAF9CD
:101AF800236808225A61C7E7206801F0F9FC074605
:101B0800002604E0F1B22046FFF728FD013663798C
:101B1800B34212D906F00F0327FA03F313F0010FAB
:101B2800F4D005EB4613D3F8003513F4004FE9D091
:101B3800F1B22046FFF734FAE8E723684FF0007265
:101B48005A61A7E790F8D433012B0ED010B504469C
:101B5800012180F8D413006801F0FEFB206801F031
:101B68006AFA002084F8D40310BD0220704790F868
:101B7800D433012B0BD010B50446012380F8D4339D
:101B8800006801F0A5FE002084F8D40310BD0220EF
:101B9800704708B5006801F0C0FB08BDC1EB011132
:101BA80000EB810090F84C007047C1EB011100EB8D
:101BB8008100806B704708B5006801F0FBFB08BD29
:101BC80008B5006801F0EBFB08BDC1EB011200EBA2
:101BD800820200209076D07682F8250082F82400D0
:101BE80070472DE9F04F85B01F469DF838A09DF845
:101BF8003C90BDF840B090F8D433012B54D0054642
:101C08000C461646D846012380F8D433C1EB01139D
:101C180000EB830300225A761F75597583F82690C6
:101C280006F07F029A75FFF7D0FF16F0800F29D1D2
:101C3800C4EB041305EB83030022DA75286801F06E
:101C4800AEFBB9F1010F24D0C4EB041305EB8303F9
:101C580083F818A01FFA88F3C4EB041205EB82027C
:101C680013850293CDF80490CDF800A03B46324688
:101C78002146286801F0A4FB002385F8D43305B079
:101C8800BDE8F08FC4EB041305EB83030122DA757A
:101C9800D4E7BAF1010FD7D10028D5D1BBF1BC0FD9
:101CA800D2D94FF0BC08CFE70220E8E7002800F0BF
:101CB800CC8070B5044690F83D30002B77D02423B3
:101CC80084F83D302268136823F00103136022680A
:101CD800136843F4004313602268136823F4004335
:101CE800136000F0CDFF62685A4B9A4264D85A4B91
:101CF80098428CBF00230123002B40F0A88057494D
:101D0800A1FB00318B0C25686A6822F03F0242EA89
:101D180091426A6021680A6A22F03F0266684D4D66
:101D2800AE424FD8013313430B622168CA6922F4CB
:101D38004F4222F0FF026568464B9D424CD8431E35
:101D48006D00B3FBF5F3013340F6FC70034278D025
:101D5800C3F30B031A43CA6121680B6823F0C0035D
:101D6800E269206A024313430B6021688B6823F4FD
:101D7800034323F0FF032269E068024313438B60A7
:101D88002168CB6823F0FF036269A069024313430B
:101D9800CB602268136843F00103136000202064BD
:101DA800202384F83D30206384F83E0070BD80F81D
:101DB8003C3000F077FB82E7294B98428CBF002328
:101DC800012399E74FF4967505FB03F3254DA5FB11
:101DD80003539B090133A6E7A668BEB9431E05EB6A
:101DE800450CB3FBFCF30133C3F30B03B3FA83F3E2
:101DF8005B0943BBC6B9431E05EB4505B3FBF5F3C9
:101E08000133C3F30B0343F40043A3E7431E05EB7D
:101E1800850C0CEB8C0CB3FBFCF30133C3F30B0305
:101E2800B3FA83F35B09E4E7431E05EB850505EB8D
:101E38008505B3FBF5F30133C3F30B0343F44043C8
:101E480088E7042386E7012384E7012070470120FF
:101E5800ACE700BFA08601007F841E0083DE1B4321
:101E6800FF083D00D34D6210002800F0BE8038B551
:101E7800044690F84130002B51D0022284F84120CA
:101E88002168CB6923F47B6323F00F03CB612368BC
:101E98001A626369934269D0E368002B46D1102522
:101EA800A368202B00D86D00012000F0A3FF236950
:101EB800B3F5007F3CD0B0FBF5F000EB80004300A9
:101EC8006269B3FBF2F30533494AA2FB0323C3F368
:101ED800C002C2EBD3035B0811029A1EFD2A3FD849
:101EE80022690A4321681A430A622168CB6923F4EC
:101EF8007B6323F00F036268A0680243E068024333
:101F0800A0690243134343F40063CB61236A012BA6
:101F18002ED000206064012384F8413038BD80F859
:101F28004030344B436300F0F5FAA6E72025B7E7C5
:101F3800E36853B1AD00B0FBF5F000EB800043005F
:101F48006269B3FBF2F30533BEE7ED00B0FBF5F0D1
:101F580000EB800043006269B3FBF2F30533B3E79B
:101F6800636C43F0100363640120D7E70021B7E7EF
:101F7800214B63632268214B9A421FD04FF04022C5
:101F8800D36923F47B6323F00F03D36122681B4BCF
:101F98009A4215D04FF04022022313622268174B51
:101FA8009A420FD04FF04025EB699BB26268B2F5B8
:101FB800007F09D0BAB94FF4807007E0104ADFE714
:101FC8000F4AE9E70E4DEFE74FF48070B4F808C008
:101FD800A189228B40EA0C0001430A43134343F4CE
:101FE8000063EB6195E70020F0E70120704700BF30
:101FF800CDCCCCCC832000089522000800380040C6
:1020080000340040704708B5426A03681288DA60F5
:10201800436A02334362438D9BB2013B9BB24385C3
:10202800438D9BB203B108BD0268536823F0A00337
:102038005360012380F84130FFF7E4FFF3E770476E
:1020480008B50368DA68C36A1A80C36A0233C362D0
:10205800438E9BB2013B9BB24386438E9BB203B136
:1020680008BD0268536823F060035360012380F8B9
:102078004130FFF7E4FFF3E7704710B584B004463A
:1020880002689368039390F84130DBB2042B06D0C2
:1020980094F84130DBB2032B2CD004B010BD039B65
:1020A80013F0010F03D0536813F0400F1FD1039BA7
:1020B80013F0400FECD023685A6812F0200FE7D0D5
:1020C8005A6822F060025A60002301932368DA6894
:1020D80001929B680193019B012384F84130636C52
:1020E80043F0020363642046FFF7C6FFD0E7FFF71B
:1020F800A7FFDCE7039B13F0020F04D023685B689B
:1021080013F0800F1DD1039B13F0080FC5D023686F
:102118005A6812F0200FC0D05A6822F0A0025A6004
:102128000023029323689B680293029B012384F88F
:102138004130636C43F0040363642046FFF79CFF5F
:10214800ABE72046FFF75FFFDDE7704708B5436A56
:102158009A1C426202681B88D360438D9BB2013B84
:102168009BB24385438D9BB23BB90268536823F009
:10217800A0035360438E9BB203B108BD012380F8CE
:102188004130FFF7E2FFF8E708B50268154B9A42BD
:102198001CD04FF04023DA68C36A991CC1621A80C8
:1021A800438E9BB2013B9BB24386438E9BB263B97D
:1021B80002680C4B9A420CD04FF04022536823F02F
:1021C80060035360438D9BB22BB108BDA3F58063B8
:1021D800E1E7054AF2E7012380F84130FFF7B5FF50
:1021E800F3E700BF003800400034004008B5436AF8
:1021F8009A1C42621A880168134B994218D04FF012
:102208004023DA60438D9BB2013B9BB24385438DEB
:102218009BB263B902680C4B9A420CD04FF0402233
:10222800536823F0A0035360438E9BB22BB108BDC3
:10223800A3F58063E5E7054AF2E7012380F841301A
:10224800FFF783FFF3E700BF003800400034004089
:1022580008B50368DA68C36A991CC1621A80438E9C
:102268009BB2013B9BB24386438E9BB23BB902684B
:10227800536823F060035360438D9BB203B108BDDC
:10228800012380F84130FFF760FFF8E710B586B00A
:10229800044603689A680592704A93426FD04FF0DB
:1022A8004022916804915B680393536802936368C2
:1022B800B3F5007F01D0002B70D1059B13F0020FFE
:1022C80003D0039B13F0800F5CD1049B13F0010F24
:1022D80003D0029B13F0400F58D1049B13F0400F1A
:1022E80024D0029B13F0200F20D022685B4B9A4227
:1022F80050D04FF04022536823F0600353602268A7
:10230800536823F0A0035360002300932368DA681E
:1023180000929B680093009B012384F84130636C12
:1023280043F0020363642046FFF7A6FE059B13F003
:10233800080F22D0039B13F0200F1ED02268536889
:1023480023F0A00353602268444B9A4224D04FF0F4
:102358004022536823F060035360002301932368ED
:102368009B680193019B012384F84130636C43F01F
:10237800040363642046FFF77FFE06B010BDA2F594
:1023880080628EE72046FFF7E1FE9EE72046FFF7D2
:10239800FBFEA2E7324AAEE7314ADAE7049B13F0C4
:1023A800020F03D0029B13F0800F4AD1059B13F054
:1023B800010F03D0039B13F0400F46D1059B13F088
:1023C800400F1CD0039B13F0200F18D022685368CD
:1023D80023F0600353602268204B9A4239D04FF0B3
:1023E8004022536823F0A0035360012384F841304E
:1023F800636C43F0020363642046FFF73DFE049BD1
:1024080013F0080FB9D0029B13F0200FB5D0226843
:10241800124B9A421FD04FF04022536823F0A0037A
:1024280053602268536823F060035360012384F8E3
:102438004130636C43F0040363642046FFF71CFEDD
:102448009BE72046FFF7D2FEB0E72046FFF700FFE4
:10245800B4E7034AC5E7024ADFE700BF0038004097
:102468000034004000B583B0002100910C4B5A6C39
:1024780042F480425A645A6C02F480420092009AF4
:1024880001911A6C42F080521A641B6C03F080535D
:102498000193019B0720FEF75FFA03B05DF804FB88
:1024A8000038024030B589B00023039304930593A4
:1024B800069307930268144B9A4201D009B030BDC5
:1024C80000250195114C236B43F002032363236B12
:1024D80003F002030193019B4FF41073039312233B
:1024E8000493012305930423079303A90848FEF7DF
:1024F8006DFA0295236C43F400132364236C03F4F0
:1025080000130293029BD9E70054004000380240B0
:102518000004024070B58CB0002307930893099318
:102528000A930B9303930493059306930268254B30
:102538009A4201D00CB070BD01230393C0230493C9
:102548000223059303A800F0ABFB002837D1002431
:1025580000941D4B1A6C42F400421A641A6C02F47F
:1025680000420092009A01941A6B42F001021A6329
:102578001A6B02F001020192019A02941A6B42F05E
:1025880004021A631B6B03F004030293029B1023DB
:1025980007930226089609940A9406250B9507A91D
:1025A8000A48FEF713FA4FF4A453079308960994C0
:1025B8000A940B9507A90648FEF708FABAE7FEF74A
:1025C80059F8C4E7003C00400038024000000240CF
:1025D8000008024000B589B00023039304930593D3
:1025E800069307930268144B9A4202D009B05DF82B
:1025F80004FB0021019103F584335A6C42F48052A4
:102608005A645A6C02F480520192019A02911A6B30
:1026180042F001021A631B6B03F001030293029B51
:10262800E0230393022304930523079303A9034894
:10263800FEF7CCF9DAE700BF0030014000000240A5
:10264800002800F0E08170B582B00446036813F0FA
:10265800010F3BD09F4B9B6803F00C03042B2CD03D
:102668009C4B9B6803F00C03082B21D06368B3F5DF
:10267800803F4FD0B3F5A02F52D0964B1A6822F462
:1026880080321A601A6822F480221A606368002B6C
:1026980050D0FEF705F905468E4B1B6813F4003F32
:1026A80014D1FEF7FDF8401B6428F5D90320B1E1E9
:1026B800884B5B6813F4800FD8D0864B1B6813F4E3
:1026C800003F03D06368002B00F09F81236813F05C
:1026D800020F54D07F4B9B6813F00C0F3ED07D4BFC
:1026E8009B6803F00C03082B33D0E368002B68D0F9
:1026F800794B01221A60FEF7D3F80546754B1B6823
:1027080013F0020F54D1FEF7CBF8401B0228F5D97D
:1027180003207FE16F4A136843F480331360B5E701
:102728006C4B1A6842F480221A601A6842F48032AC
:102738001A60ABE7FEF7B4F80546664B1B6813F45E
:10274800003FC3D0FEF7ACF8401B6428F5D903203E
:1027580060E1604B5B6813F4800FC6D15D4B1B686A
:1027680013F0020F03D0E368012B40F05081594A5F
:10277800136823F0F803216943EAC103136023684F
:1027880013F0080F42D063696BB3534B0122C3F8AF
:10279800802EFEF785F805464E4B5B6F13F0020F4F
:1027A80034D1FEF77DF8401B0228F5D9032031E12A
:1027B800484A136823F0F803216943EAC103136008
:1027C800DDE7454B00221A60FEF76AF80546414BE3
:1027D8001B6813F0020FD2D0FEF762F8401B0228E4
:1027E800F5D9032016E13C4B0022C3F8802EFEF7F2
:1027F80057F80546374B5B6F13F0020F06D0FEF70C
:102808004FF8401B0228F5D9032003E1236813F091
:10281800040F77D02F4B1B6C13F0805F33D100234C
:1028280001932C4B1A6C42F080521A641B6C03F013
:1028380080530193019B0125284B1B6813F4807F6B
:1028480023D0A368012B34D0052B38D0214B1A6F25
:1028580022F001021A671A6F22F004021A67A368AD
:10286800002B3DD0FEF71CF806461A4B1B6F13F0E1
:10287800020F46D1FEF714F8801B41F288339842C4
:10288800F3D90320C6E00025D6E7144A136843F4B9
:1028980080731360FEF704F80646104B1B6813F4A8
:1028A800807FCED1FDF7FCFF801B0228F5D90320DD
:1028B800B0E0084A136F43F001031367CFE7054BF5
:1028C8001A6F42F004021A671A6F42F001021A677F
:1028D800C5E700BF003802400000474200700040D2
:1028E800FDF7DEFF0646524B1B6F13F0020F08D0B0
:1028F800FDF7D6FF801B41F288339842F3D90320B5
:1029080088E0EDB9A369002B00F08380484A9268FB
:1029180002F00C02082A51D0022B17D0454B002296
:102928001A66FDF7BDFF0446414B1B6813F0007F94
:1029380042D0FDF7B5FF001B0228F5D9032069E056
:102948003B4A136C23F080531364DBE7394B0022B6
:102958001A66FDF7A5FF0546354B1B6813F0007F87
:1029680006D0FDF79DFF401B0228F5D9032051E052
:10297800E369226A1343626A43EA8213A26A52082D
:10298800013A43EA0243E26A43EA0263284A53608F
:10299800284B01221A66FDF783FF0446244B1B6867
:1029A80013F0007F06D1FDF77BFF001B0228F5D945
:1029B80003202FE000202DE000202BE0012B2BD05E
:1029C8001B4B5B6803F48001E269914226D103F056
:1029D8003F02216A8A4223D1616A47F6C0721A40CF
:1029E800B2EB811F1ED103F44031A26A5208013AAA
:1029F800B1EB024F18D103F07063E26AB3EB026FD8
:102A080014D1002006E001207047012002E00120D7
:102A180000E0002002B070BD0120FBE70120F9E7CB
:102A28000120F7E70120F5E70120F3E70120F1E7AE
:102A3800003802400000474208B5334B9B6803F05A
:102A48000C03042B5BD0082B5BD12F4B5A6802F088
:102A58003F025B6813F4800F2CD02B4B5868C0F3EF
:102A680088104FEA401CBCEB000C6EEB0E0E4FEAD0
:102A78008E1343EA9C634FEA8C11B1EB0C0163EBB4
:102A88000E03DB0043EA5173C90011EB000C43F15C
:102A98000003590200234FEA4C2041EADC51FDF7BC
:102AA8008FFB194B5B68C3F3014301335B00B0FB39
:102AB800F3F008BD144B5868C0F388104FEA401C67
:102AC800BCEB000C6EEB0E0E4FEA8E1343EA9C63D0
:102AD8004FEA8C11B1EB0C0163EB0E03DB0043EA08
:102AE8005173C90011EB000C43F100039902002354
:102AF8004FEA8C2041EA9C51FDF762FBD1E703487D
:102B0800D7E70348D5E700BF0038024000127A0033
:102B18000024F400002800F09B8070B50D460446A0
:102B28004F4B1B6803F007038B4208D2CBB24C4AC9
:102B38001370136803F007038B4240F08B802368FF
:102B480013F0020F17D013F0040F04D0454A93680E
:102B580043F4E0539360236813F0080F04D0414A0C
:102B6800936843F4604393603E4A936823F0F0030C
:102B7800A1680B439360236813F0010F32D0636898
:102B8800012B21D09A1E012A25D9364A126812F043
:102B9800020F61D033498A6822F0030213438B6025
:102BA800FDF77EFE06462F4B9B6803F00C03626818
:102BB800B3EB820F16D0FDF773FE801B41F288330A
:102BC8009842F0D9032042E0264A126812F4003FE6
:102BD800E0D101203BE0234A126812F0007FD9D1EE
:102BE800012034E01E4B1B6803F00703AB4207D9F2
:102BF800EAB21B4B1A701B6803F00703AB422DD1D6
:102C0800236813F0040F06D0164A936823F4E053A0
:102C1800E1680B439360236813F0080F07D0114A4B
:102C2800936823F46043216943EAC1039360FFF783
:102C380003FF0C4B9B68C3F303130B4AD35CD840C8
:102C48000A4B18600A4B1868FDF7DEFD002070BDBE
:102C5800012070470120FAE70120F8E70120F6E794
:102C6800003C0240003802404053000808000020A1
:102C780004000020014B1868704700BF08000020BE
:102C880008B5FFF7F7FF044B9B68C3F38223034A99
:102C9800D35CD84008BD00BF003802403853000854
:102CA80030B583B00446036813F0050F06D12368D6
:102CB80013F0020F2ED1002003B030BD4A4B002282
:102CC8009A66FDF7EDFD0546484B1B6813F0006F4B
:102CD80006D0FDF7E5FD431B022BF5D90320EBE7F2
:102CE8006268A3681B0743EA8213404AC2F884302B
:102CF8003D4B01229A66FDF7D3FD05463B4B1B6809
:102D080013F0006FD3D1FDF7CBFD431B022BF5D990
:102D18000320D1E700230193344B1A6C42F0805210
:102D28001A641B6C03F080530193019B304A1368AB
:102D380043F480731360FDF7B3FD05462C4B1B6805
:102D480013F4807F06D1FDF7ABFD431B022BF5D9A9
:102D58000320B1E7254B1B6F13F4407314D0E268CE
:102D680002F440729A420FD0204B1A6F22F440723C
:102D78001D490120C1F8400E0020C1F8400E1A6715
:102D88001B6F13F0010F13D1E36803F44072B2F51F
:102D9800407F1ED0154A936823F4F81393601349B3
:102DA8000B6FE268C2F30B0213430B67002083E743
:102DB800FDF776FD05460D4B1B6F13F0020FE3D1AF
:102DC800FDF76EFD401B41F288339842F3D903208A
:102DD80072E706498A6822F4F81223F0704323F454
:102DE800407313438B60DAE7000047420038024023
:102DF80000700040012801D000207047154B9B68E7
:102E080013F4000302D01BB313487047114B5B68DF
:102E180013F4800F14D00F4B5A6802F03F020F4B87
:102E2800B3FBF2F30B4AD2F88400C0F3881003FB1B
:102E380000F0D2F88430C3F30273B0FBF3F07047AC
:102E4800044B5A6802F03F02054BB3FBF2F3E9E783
:102E580000207047003802400080BB0000127A0052
:102E68000024F40000285AD010B50446436A33B948
:102E78004368B3F5827F05D00023C36102E00023D5
:102E8800036143610023A36294F85130002B40D0C2
:102E9800022384F851302268136823F0400313603A
:102EA800636803F48273A26802F404421343E2687D
:102EB80002F400621343226902F0020213436269BA
:102EC80002F001021343A26902F400721343E2699B
:102ED80002F038021343226A02F080021343A26A06
:102EE80002F40052216813430B60638B03F0040360
:102EF800626A02F01002216813434B602268D369AA
:102F080023F40063D36100206065012384F8513005
:102F180010BD84F850302046FFF75CFBB8E701206D
:102F28007047FEE7FEE7FEE7FEE7FEE770477047FB
:102F3800704708B5FDF7A8FC08BD000008B50248B1
:102F4800FEF752FD08BD00BF7005002082B00023C7
:102F58000193019B01330193019BB3F1706F1CD85E
:102F68000369002BF5DA0A23019302E0019B013B78
:102F78000193019B002BF9D1036943F0010303611D
:102F8800019B01330193019BB3F1706F08D803696A
:102F980013F0010FF4D1002000E0032002B07047C5
:102FA8000320FBE784B010B5044603A880E80E00B0
:102FB8009DF81130012B21D1A36B23F48033A36337
:102FC800E36823F4840323F04003E360E36823F415
:102FD8004013E3609DF81830012B0AD02046FFF714
:102FE800B5FF9DF80E30012B1CD0BDE8104004B091
:102FF8007047E36843F48013E360EFE7E36843F066
:103008004003E3602046FFF7A1FF9DF8153023B980
:10301800A36B43F48033A363E3E7A36B23F4803308
:10302800A363DEE7A36843F00603A360A36843F045
:103038002003A360D9E7836843F00103836000207D
:103048007047836823F0010383600020704782B0D3
:1030580000230193019B01330193019BB3F1706F2E
:1030680015D80369002BF5DA00230193890141F093
:1030780020010161019B01330193019BB3F1706F42
:1030880008D8036913F0200FF4D1002000E00320D2
:1030980002B070470320FBE782B000230193019B35
:1030A80001330193019BB3F1706F13D80369002BAF
:1030B800F5DA0023019310230361019B0133019387
:1030C800019BB3F1706F08D8036913F0100FF4D1A6
:1030D800002000E0032002B070470320FBE710B592
:1030E8009DF8084084B903334FEA930E4FF0000C63
:1030F80008E000EB023303F5805351F8044B1C60E1
:103108000CF1010CF445F4D3002010BD10B5844631
:1031180008464FEA920E02F00302002305E00CF580
:103128008051096840F8041B01337345F7D37AB11D
:103138000CF5805CDCF800400021CBB2DB0024FAFF
:1031480003F300F8013B0131013A92B2002AF4D1AD
:1031580010BD426980691040704700EB411000F5CE
:10316800A063D0F80805DB6818407047406900F094
:103178000100704738B50546C36823F0C043C360F3
:10318800012913D019BBC36843F08043C3600024EE
:103198000A20FDF78BFB0A342846FFF7E7FF08B142
:1031A800C72CF5D9C82C14D0002038BDC36843F00B
:1031B8000053C36000240A20FDF778FB0A34284630
:1031C800FFF7D4FF0128EDD0C72CF4D9EAE7012096
:1031D800EBE70120E9E7000084B038B5044605A80C
:1031E80080E80E000023C4F8003EA36B43F40013EC
:1031F800A363A36B23F40023A363A36B23F48023AB
:10320800A363E36813F0400F11D19DF81730012B29
:1032180006D0D4F8003423F00403C4F800340CE0DA
:10322800D4F8003443F00403C4F8003405E0D4F8BB
:10323800003423F00403C4F8003410212046FFF7BB
:1032480006FF054600B101252046FFF725FF00B11E
:103258000125002209E004EB42134FF0FF31C3F8C7
:1032680008150021C3F80C1501329DF8153093425A
:10327800F1D80023A3614FF0FF336361124B9C42E6
:1032880017D08023636203F5C003A3620F4BC4F811
:1032980000319DF816301BB9A36943F01003A361F0
:1032A800A2690B4B1343A3612846BDE8384004B01C
:1032B80070474FF40073636203F18073A362054B98
:1032C800C4F80031E5E700BF00000440E00040001A
:1032D800080020A30003E00000F5806CD0F800345B
:1032E80023F00303C0F80034D0F8003401F00302DF
:1032F8001343C0F80034012907D002290BD141F249
:103308007073CCF80430002070474BF68033CCF84B
:103318000430002070470120704730B583B0044660
:1033280000250195D0F840340193019B23F02E032A
:103338000193019B43F48073C0F840346420FDF787
:10334800B5FA019B23F48073C4F840340A20FDF7D2
:10335800ADFA284603B030BD82B000230193D0F8FF
:1033680040340193019B23F02E030193019B13F436
:10337800805F01D101290CD0019B13F4805F05D037
:1033880021B9019B23F48053C0F84034002002B0D7
:103398007047019B43F48053C0F84034ECE782B097
:1033A80000230193D0F8403401930198C0F34140C1
:1033B80002B0704700F58060806880B270470000F6
:1033C8002DE9F84391461C469DF8245000EB411620
:1033D80006F5A0634FF0FF329A60032D7AD8DFE834
:1033E80005F0026B021940F29D42DA6019F0800F75
:1033F80004D13E4A904207D0002712E0DA6842F42E
:103408008072DA6000270CE0DA6842F06002DA6065
:10341800002706E040F29D62DA6019F0800F45D17E
:10342800002700225A60DA6842F00202DA60D0F817
:10343800183401F00F0101228A401343C0F81834F0
:10344800836943F00073836119F0800F44D14FF012
:103458000008FFF7A4FF9DF82030022B3FD0002280
:10346800A30503F0FE534FEAC92909F4F04943EADA
:103478000903A90401F440210B43BDF82810C1F346
:103488000A010B4343EA0803134343F48013C6F8C5
:103498000035032D01D0012D05D1D6F8003543F0B4
:1034A8000053C6F800353846BDE8F883DA6842F4B8
:1034B8008072DA600027B4E740F22522DA6019F05A
:1034C800800F01D10027ACE7DA6842F4C072DA60F5
:1034D8000027A6E70127A4E74FF40048B9E7022828
:1034E80002D04FF40032BBE70022B9E700000440E5
:1034F80000F58060406980B2704770B483B00023E3
:10350800019300EB411101F5A062D1F80035C3F336
:103518008143D1F800555468866816F0200F08D00A
:10352800ED0FE40F2CB9002D5AD0012B58D0032BE6
:1035380056D01BB3022B21D0D1F8003543F080437D
:10354800C1F80035D0F8103413F47F0F4CD1D1F8FE
:10355800003523F00043C1F80035D1F8003543F0B9
:103568000043C1F80035019B01330193019BB3F57A
:103578007A7F35D81368002BF5DB31E0D1F80035B8
:1035880043F08043C1F80035836813F0200F21D140
:10359800C36A13F47F0F16D1D1F8003523F0004326
:1035A800C1F80035D1F8003543F00043C1F80035C3
:1035B800019B01330193019BB3F57A7F10D81368FF
:1035C800002BF5DB0CE0D1F8003543F00043C1F8DF
:1035D800003505E0D1F8003543F00043C1F8003567
:1035E800002003B070BC7047D1F8003543F00043A9
:1035F800C1F80035F4E7000000EB4110064AC0F8B6
:103608001025D0F8003523F0804343F00043C0F87C
:1036180000350020704700BF0000088070B584B0F6
:103628004B78A34CA04216D08C79012C2DD00D6A72
:10363800002D5ED0B1F814C005EB0C04013CB4FBBE
:10364800FCF4A4B2B4F5807F54D94FEA0C24CC61C1
:103658004FF480744EE0012A07D08C88B4F5807F3F
:10366800E2D11946FFF7C8FF1EE18C7C0CB1022C91
:10367800DAD18C79002CD7D100EB4314D4F80C554F
:1036880025F07005C4F80C55CEE7CC781CB18C8AAF
:10369800CC61012435E08C7C012C05D0012A21D095
:1036A8000C6ACC6101242CE00C6ABC2C0DD98C8AE4
:1036B800CC610C62CC68013C012C02D90124CC609D
:1036C8001FE00224CC6001241BE0CC61CC68013CE3
:1036D800012C03D90424CC60012412E00324CC601B
:1036E80001240EE00D6A8C8AA542D9D9CC61012447
:1036F80007E00124CE78002E60D08D8A04FB05F502
:10370800CD61CD69C5F3120C6A4D05EAC4444CEA93
:10371800040C8C7D640704F0C04400EB431303F5EC
:10372800A06E4CEA0404CEF8104012B18C69CEF8B1
:10373800144000F58065AC6814F0010F0CBF4FF021
:10374800010C4FF0000CD3F8004524F00054C3F8E6
:103758000045D3F8004544EA4C74C3F800458C7919
:10376800012C2DD00024CEF80440D3F80045039452
:10377800039C24F080440394CC78002C7DD0039CD7
:1037880044F400440394039C44F000440394039CD1
:10379800C3F80045002A40F08780CB78002B40F022
:1037A80083800B6A002B7FD0CA79002A7CD18A7C5F
:1037B800032A72D8DFE802F066806680CD61A0E750
:1037C8004E7C0C7C44EAC61444F00044CEF8044015
:1037D800DEF80C4044F06004CEF80C40CC79012CA3
:1037E80012D08C7C012C1FD0032C1DD08C7C012C7A
:1037F800BBD1CC78002CB8D1CC68013C032CB4D810
:10380800DFE804F01F262D34CC78002CE9D1DEF84F
:10381800044044F48034CEF80440DEF80C4044F010
:103828004004CEF80C40DCE7CC79012CDED1CC7812
:10383800012CDBD1DEF8044044F48034CEF8044097
:10384800D4E7DEF8044044F40044CEF804408CE7A2
:10385800DEF8044044F00E04CEF8044085E7DEF8B4
:10386800044044F48044CEF804407EE7DEF8044087
:1038780044F44044CEF8044077E7039C24F4004421
:10388800039480E70333C26A92B2C3F38F0393426F
:1038980003D9836943F020038361002300930B8CD1
:1038A8004A788969FFF71BFC002004B070BD00BF8F
:1038B800000004400000F81F03332A6992B2C3F3E2
:1038C8008F039A42E9D2836943F080638361E4E716
:1038D80030B583B0044600230193FFF7B2FB1021F3
:1038E8002046FFF7B4FB054600B101252046FFF747
:1038F800D3FB00B1012500220AE004EB4211D1F804
:10390800003523F0802343F08043C1F800350132AD
:103918000F2AF2D9002100E001310F2916D804EB53
:10392800411000F5A062D0F8003523F4004343F0BD
:103938004043C0F80035019B01330193019BB3F567
:103948007A7FE9D81368002BF5DBE5E74FF0FF3302
:10395800C4F8143463612046FFF76DFB284603B0B2
:1039680030BD000010B503460C4A0D490D480068EB
:1039780040B10C4800680344521A934206D8094AD9
:10398800136010BD0748084C0460F2E701F04EFCD4
:103998000C2303604FF0FF30F3E700BF0000022064
:1039A8000004000090010020980A0020034AD2F881
:1039B800883043F47003C2F88830704700ED00E0A7
:1039C80004290CD0052902D0022904D07047064BDF
:1039D80003221A707047044B02221A707047024B78
:1039E80001221A70704700BF9401002008B5012217
:1039F8000B490C4800F0D5FC48B90B49094800F0C0
:103A0800EFFC38B9074800F030FD30B908BDFCF7C5
:103A180031FEF2E7FCF72EFEF4E7FCF72BFEF5E7A4
:103A2800C9390008980100200C00002008B5024898
:103A380000F025FD08BD00BF980100200020704758
:103A480008B5212202742022427400224282828216
:103A58000722C28201F05FF908BD08B5A1220274ED
:103A6800212242740022428282820722C28201F00D
:103A780052F908BD38B50446D0F87C33D9694031CD
:103A8800FFF7EBFF054620B9D4F8D43302212046CE
:103A98009847284638BD38B50446D0F87C33DD69E8
:103AA800297879B9297BB1B9697BF1B9D4F87C3324
:103AB800D86928B101F0ECFAD4F87C330022DA6135
:103AC800002038BD01F083FA2978204601F097FAE2
:103AD80000232B70E6E7204601F079FA297B20467F
:103AE80001F08DFA00232B73DEE7204601F06FFA10
:103AF800697B204601F083FA00236B73D6E7F0B5A3
:103B080085B0044601230222114600F084FC0128F6
:103B180000F2AE8006460146204600F072FC0746D9
:103B2800002840F0A980D4F87C53502001F0A8FA6E
:103B3800E861D4F87C33DD69002D00F09F805022C5
:103B48000021284601F05AFB1A2303FB064393F889
:103B58004E2393F94E33002B72DB6978204601F02F
:103B68003BFA014628706A786B8902930323019314
:103B780094F81D33009394F81C33204601F017FA8B
:103B880000222978204600F011FA00231A460A215B
:103B9800204600F040FC012872D81A2303FB00439A
:103BA80093F84E2393F94E33002B51DBAA731A2353
:103BB80003FB0043B3F850332B831A2303FB004362
:103BC80093F8562393F95633002B49DBAA731A232B
:103BD80003FB0040B0F858332B83A97B204601F043
:103BE800FBF96873E97B204601F0F6F92873AA7B94
:103BF800697B2B8B02930226019694F81D33009360
:103C080094F81C33204601F0D2F9EA7B297B6B8BB0
:103C18000293019694F81D33009394F81C332046C0
:103C280001F0C5F9002685F84C603246697B2046CC
:103C380000F0BCF93246297B204600F0B7F918E0BD
:103C48006A701A2303FB0646B6F850336B8184E783
:103C5800EA731A2303FB0043B3F850336B83ACE7D2
:103C6800EA731A2303FB0043B3F858336B83B4E7B2
:103C78000227384605B0F0BD0227FAE70227F8E721
:103C88000227F6E7704730B583B00546D0F87C3395
:103C9800DC6994F84D30012B0CD0022B18D1617BD4
:103CA80000F070F901281ED0022811D1012384F8F0
:103CB8004D300DE0606A228B90420BD9637BE1693D
:103CC80001200090284601F039F9022384F84D308C
:103CD80003B030BD637BE1690122009282B22846BD
:103CE80001F02CF9F1E7636A228B93420AD99B1AF7
:103CF8006362E3691344E361636A33B1012384F8BF
:103D08004D30E5E700236362F6E7002384F84D3081
:103D18002846FFF7B7FFDBE7704738B50446D0F809
:103D28007C33DD6995F84E30032B17D0042B1DD159
:103D3800297B00F027F9012818D1297B204600F0BB
:103D48001BF9AB6A834202D06A8B82420FD00023F0
:103D580085F84E302046FFF7DFFF07E02B7B6A8BA4
:103D6800296A01F001F9042385F84E3038BD1B1A81
:103D7800AB622B6A03442B62032385F84E30F5E7C8
:103D8800704770B50446D0F87C33DE6996F84C501D
:103D9800042D04D8DFE805F03B0513353D00012567
:103DA80035E0B16CFFF74CFE18B9022386F84C30A9
:103DB8002DE0012836D0042386F84C3027E006F1A0
:103DC8004001FFF74AFE0546A0B9002386F84C30AB
:103DD800736CB26C51684B4033F07F4324D1316C23
:103DE8001368994201D0012511E02046FFF7C8FF6A
:103DF80001250CE001280AD0042386F84C3001255F
:103E080005E0FFF740FF2046FFF787FF012528461A
:103E180070BD002101F049F840B9002386F84C3004
:103E28000125F4E70546F2E70125F0E70125EEE76D
:103E380070B588B000230393049305930693079302
:103E48000368B3F1A04F01D008B070BD00250195FB
:103E58001A4C236B43F001032363236B03F0010324
:103E68000193019B4FF400730393154E03A9304649
:103E7800FCF7ACFD4FF4E05303930223049305953C
:103E880006950A23079303A93046FCF79FFD636B49
:103E980043F0800363630295636C43F48043636477
:103EA800636C03F480430293029B2A46294643200D
:103EB800FCF764FD4320FCF771FDC5E700380240BC
:103EC8000000024008B5D0F8DC0300F023FC08BD70
:103ED80008B5D0F8DC0300F031FC08BD08B5D0F80F
:103EE800DC0300F035FC08BD704708B5D0F8DC03EA
:103EF80000F019FC08BD08B5D0F8DC0300F017FC89
:103F080008BD000090F8CC33012B01D00020704789
:103F180010B504460F48C0F8DC43C4F8D0034FF08E
:103F2800A0430360082343710123C37100238371F5
:103F3800022242728372FCF7ADFE40B90548FDF7D4
:103F48003AFE0146204600F0E2FB002010BDFCF7D7
:103F580091FBF3E77005002008B5D0F8D003FDF712
:103F68002FFE012804D0022804D020B1012002E04D
:103F7800012000E0022008BD08B5D0F8D003FDF705
:103F880014FE08BD08B5D0F8D003FDF707FE08BD3C
:103F980008B590F8CC33012B04D0C820FCF786FC78
:103FA800002008BD084601F035F8F6E7D0F8D03310
:103FB800C1EB011003EB8000C07D38B1C1EB0111EA
:103FC80003EB810383F83C2000207047C1EB01110B
:103FD80003EB810383F83D20F6E708B5FCF766FCA0
:103FE80008BD022805D8DFE800F00504020001201A
:103FF80070470220704708B5D0F8D003FDF7A2FD3E
:10400800FFF7EFFF08BD08B5D0F8D003FDF7AFFD07
:10401800FFF7E7FF08BD08B5D0F8D003FDF7B9FDF5
:10402800FFF7DFFF08BD10B584B0D0F8D003BDF8A6
:10403800204002949DF81C4001949DF8184000947B
:10404800FDF7CFFDFFF7CDFF04B010BD08B5D0F8E0
:10405800D003FCF70DFEFFF7C4FF08BD10B584B010
:10406800D0F8D0039DF824400394BDF82040029472
:10407800079C01949DF818400094FCF752FEFFF746
:10408800B0FF04B010BD08B50378DBB20B2B00D02D
:1040980008BDD0F87C33002BFAD09B699847F7E726
:1040A80038B50446002306E003F1E00204EB82027F
:1040B8000021516001330F2BF6D9002304E0E218E8
:1040C800002182F81C110133B3F5007FF7D30025D6
:1040D800257065700123A370C4F8C4532376402269
:1040E800A271657684F81C5384F81D3384F81F5335
:1040F80084F81E534FF48072294604F11C0001F025
:104108007DF84FF40072294604F58E7001F076F8B8
:10411800C4F82653C4F82A53C4F82E53C4F83253AB
:10412800A4F836533E22294604F54E7001F066F88D
:10413800284638BD70B584B004464578072D00F28E
:104148002C81DFE815F00800480069009A00BF00DC
:10415800E500FE001701082100F01EFE18B1032833
:1041680021D0012509E194F82D33A371012565704B
:1041780002930026019694F81D33009394F81C339B
:1041880080222179204600F012FFA379029301963C
:1041980094F81D33009394F81C3332466179204615
:1041A80000F005FFE9E094F81E330133DBB284F830
:1041B8001E33032B03D90D2323700125DDE061791C
:1041C800204600F01CFF2179204600F018FF00234C
:1041D80023700125D1E0122100F0DEFD10B9022381
:1041E8006370CAE0032840F0C88094F81E33013396
:1041F800DBB284F81E33032B02D90D232370BCE0F5
:104208006179204600F0FBFE2179204600F0F7FE98
:10421800002363702370B0E0012100F013FE18B191
:10422800032824D00125A8E00220FFF7D6FE0125A7
:1042380084F81C5303236370A37902930026019624
:1042480094F81D3300932B4680222179204600F0F4
:10425800AEFEA3790293019694F81D33009394F867
:104268001C3332466179204600F0A1FE85E00D231B
:1042780023700023637001257FE0092100F0A7FD6A
:1042880018B904236370012577E0032801D00125BC
:1042980073E094F81E330133DBB284F81E33032B2A
:1042A80003D90D232370012567E06179204600F0CA
:1042B800A6FE2179204600F0A2FE00236370237039
:1042C80001255AE0B0F83A1300F081FD18B905232A
:1042D8006370012551E0032801D001254DE094F8D1
:1042E8001E330133DBB284F81E33032B03D90D23AD
:1042F8002370012541E06179204600F080FE217994
:10430800204600F07CFE002363702370012534E012
:1043180090F8341319B90623437001252DE0FF23C3
:1043280000F58E7200F06EFD18B906236370012542
:1043380023E0032801D001251FE00623637001252F
:104348001BE090F8351319B907234370012514E0D1
:10435800FF2300F58E7200F055FD18B9072363702E
:1043680001250AE0032801D0012506E00723637030
:10437800012502E090F8365315B9284604B070BDFF
:10438800FF2300F58E72294600F03CFD0546002803
:10439800F3D0032803D00125EFE70125EDE7002539
:1043A800EBE7D8B170B50E46044680F8CC2300255B
:1043B800C0F87C53C0F88053FFF772FE84F823538B
:1043C80084F8205384F8215384F822530EB1C4F89A
:1043D800D4632046FFF796FD002070BD0220704789
:1043E8000A4651B1D0F880334BB9591CC0F8801334
:1043F800DE3340F823200020704702207047022057
:10440800704790F83C338B4203D980F8241300207E
:1044180070470220704710B5044600200BE04FF0AB
:104428001A0C0CFB0E4E9EF849C39C451CD0FF2B62
:104438001AD00130C0B2012815D886464FF01A0CA0
:104448000CFB004C9CF847C38C4501D0FF29F0D1E8
:104458004FF01A0C0CFB0E4C9CF848C39445DED068
:10446800FF2AE6D1DBE7FF2010BD10B50446FFF7B1
:10447800C2FD01212046FFF78BFD002010BD30B59D
:1044880087B0044602238DF8173090F82133DBB249
:10449800012B11D02378DBB20B2B7CD8DFE813F08B
:1044A8000F002100460012017B007E00EF00930000
:1044B8009D00A700C300090103230370EAE794F8ED
:1044C8002033002B67D001232370C820FFF785FD18
:1044D8002046FFF7A0FD002384F81C33C4F8C83336
:1044E80059E094F82333DBB2012B0FD0D4F8C8334A
:1044F800B3F57A7F13D994F81F330133DBB284F80C
:104508001F33032B08D90D23237044E0002384F8BC
:104518001F33022323703EE0002323703BE00A335D
:10452800C4F8C8330A20FFF758FD34E0D4F8D43370
:1045380013B10421204698476420FFF74EFD20461A
:10454800FFF70AFD84F81D03052323700021204688
:1045580000F042FD60718021204600F03DFD0146DB
:104568002071A37902930025019594F81D330093D7
:1045780094F81C338022204600F019FDA379029399
:10458800019594F81D33009394F81C332A466179F9
:10459800204600F00CFD002007B030BD2046FFF794
:1045A800C9FD8DF817009DF81730002BF3D184F85A
:1045B800243394F83733012B02D007232370EAE71A
:1045C80008232370E7E7D4F8D433002BE3D0012184
:1045D8002046984708232370DDE794F83D132046CA
:1045E80000F041FC0028D6D109232370D3E794F8C2
:1045F8003F3313F0200F02D10A232370CBE70121A8
:10460800204600F041FC8DF817009DF8173013B9CB
:104618000A232370BFE79DF81730DBB2032BBAD10A
:104628000A232370B7E7D4F88033002BB3D00023D4
:10463800C4F87C3373B1D4F87C33EBB19B68204663
:104648009847B0B906232370D4F8D4330321204601
:104658009847A0E703F1DE0254F82220107994F875
:104668004713884202D00133DBB2E3E7C4F87C2366
:10467800E1E70D2323708EE70D2323708BE7D4F831
:104688007C339BB11B69204698478DF817009DF82D
:10469800173013B90B2323707DE79DF81730DBB271
:1046A800022B7FF478AF0D23237074E70D2323705A
:1046B80071E7D4F87C33002B3FF46DAF5B6920467B
:1046C800984768E7002384F821332046FFF7E8FC81
:1046D800D4F87C332BB1DB68204698470023C4F814
:1046E8007C33D4F8D43313B105212046984794F885
:1046F8002233DBB2012B03D02046FFF77CFC4AE7CC
:10470800002384F822332046FFF7AFFE43E7C0F8C2
:10471800C413704708B5D0F8C4230132C0F8C423C5
:10472800FFF7B1FC08BD012380F82333704700234D
:1047380080F82333012380F8213370470346012290
:1047480080F82023002083F8210383F82203704790
:1047580038B50446012380F82133002580F820531A
:1047680080F82353FFF74FFC2179204600F047FCDF
:104778006179204600F043FC284638BD03468C4644
:10478800002970D0097880F826139CF8011080F869
:1047980027139CF802109CF8030041EA0021A3F8B3
:1047A80028139CF8041083F82A139CF8051083F842
:1047B8002B139CF8061083F82C139CF8071083F829
:1047C8002D1393F81D0301282DD9022840D003206A
:1047D800082A49D99CF808209CF8091042EA0122C5
:1047E800A3F82E239CF80A209CF80B1042EA012219
:1047F800A3F830239CF80C209CF80D1042EA012203
:10480800A3F832239CF80E2083F834239CF80F2059
:1048180083F835239CF8102083F836239CF8112060
:1048280083F83723704720290BD808290BD3083978
:10483800C9B20E4820FA01F111F0010F03D000208F
:10484800C6E740290BD0082183F82D130020BFE7C5
:10485800082906D0082183F82D130020B8E7002086
:10486800B6E70020B4E70220704700BF010100014D
:104878000B7803704B7843708B788370CB78C37058
:104888000B7903714B7943718B798371CB79C37140
:104898000B7A0372704710B5864613780B705378FD
:1048A8004B7093788B7092F803C081F803C013792A
:1048B800507943EA00238B8094798C715A1E92B206
:1048C800B2F5007F0CD200209EF81D23CAB90CF067
:1048D800030CBCF1030F46D8DFE80CF0090D040DFA
:1048E8000320F1E7B3F5007F10D903200EE0402B39
:1048F8000CD903200AE0013CE4B20F2C06D90320AE
:1049080004E0012A03D0022A1CD0032010BD0CF0B9
:10491800030CBCF1030F28D8DFE80CF00206020EE6
:10492800402BF3D90320F1E7013CE4B20F2C1ED849
:10493800402BEBD90320E9E7DCB1B3F5806FE5D371
:104948006046E3E71CF0030C03D1082BDED00320FC
:10495800DCE7BCF1030F01D00320D7E75CB1082BDB
:10496800D4D96046D2E70320D0E70320CEE703205E
:10497800CCE76046CAE76046C8E74378032B00D017
:1049880070470378023B9A4228BF1A4692B2002326
:1049980007E000EB030C9CF802C001F801CB0233DE
:1049A8009BB29342F5D300230B70E9E730B583B08F
:1049B8000446057E6B1E0A2B00F2DD80DFE803F05B
:1049C8000610354155627D899CA9C000427900F1E5
:1049D800100100F07CFA02232376284603B030BD8C
:1049E8004179FFF7CFFA0546012805D0042818D0E9
:1049F800022816D00125F0E7237CE28A42B113F0A1
:104A0800800F02D105232376E7E703232376E4E723
:104A180013F0800F02D107232376DEE709232376DC
:104A2800DBE70B2323760125D7E7D0F8C433C3810E
:104A380003798289816800F071FA042323760125BD
:104A4800CBE70179FFF79EFA0546012806D005282D
:104A580000F09380042804D00125BEE709232376BB
:104A6800BBE70B2323760125B7E70125009543799A
:104A78008289816800F03CFAD4F8C433E3810623C4
:104A88002376AAE74179FFF77DFA0546431E042BF2
:104A980075D8DFE803F0030A740E060007232376AF
:104AA8009BE70C232376032597E705232376012527
:104AB80093E70B23237602258FE70379002211461B
:104AC80000F02CFAD4F8C433E381082323760125B7
:104AD80083E70179FFF756FA012805D0042807D0A3
:104AE80005284ED0012578E70D232376002574E7A5
:104AF8000B232376012570E70125009543790022D1
:104B0800114600F0F5F9D4F8C433E3810A2323767B
:104B180063E74179FFF736FA012805D0022807D064
:104B2800042809D0012558E70D232376002554E7EA
:104B380009232376012550E70B23237601254CE72B
:104B4800437E0133DBB24376022B03D80125057679
:104B5800857042E7D0F8D43306219847002565765A
:104B68006179204600F04BFA2179204600F047FA97
:104B78002570022531E701252FE703252DE70125BB
:104B88002BE7032529E70B88027813440B80037869
:104B9800184470472DE9F04383B0002900F0B28033
:104BA80005460C460B78092B01D009230B70237896
:104BB80085F83833637885F83933A378E17843EAA0
:104BC8000123B3F5807F28BF4FF48073A5F83A33EB
:104BD800237985F83C33637985F83D33A37985F8E3
:104BE8003E33E37985F83F33237A85F84033092A41
:104BF80040F28A800923ADF8063000263746012E98
:104C080077D8B5F83A23BDF806309A4271D90DF134
:104C180006012046FFF7B7FF04464378042BEED180
:104C28000378092B01D009230370B14605F54E70AE
:104C38001A2306FB03F30833184421460230FFF712
:104C480017FE4FF0000814E00723237005F54E7196
:104C580008F101081A2303FB09F303EBC80308331F
:104C68001944224604312846FFF715FE07465FFA25
:104C780088F8B8F1010F32D81A2303FB095393F8C7
:104C8800463343452BD9B5F83A23BDF806309A4246
:104C980025D90DF106012046FFF775FF0446437834
:104CA800052BE6D11A2303FB095393F84733012B4D
:104CB800CAD11A2303FB095393F84833023BDBB2EA
:104CC800012BC1D81A2303FB095393F84933002B4E
:104CD800BCD10378092BB9D009230370B6E71A238E
:104CE80003FB095999F84633434512D80136F6B201
:104CF80085E795F83C33022B28BF0223B34204D939
:104D0800032702E0022700E00027384603B0BDE889
:104D1800F0830327F9E710B504468078012803D00B
:104D2800022808D0012005E0A160A2810123237692
:104D38000223A37010BD2046FFF738FE30B10328C8
:104D480004D00228F6D10123A370F3E70123A3704E
:104D580000232376EEE708B58E4694461946BDF83B
:104D680008208378012B02D0FFF7D5FF08BD6EF02D
:104D78007F0E80F810E006234374A0F812C00CF4EC
:104D88007F4CBCF5407F03D000238382C282EBE7CF
:104D980040F209438382F9E7B1F5007F15D870B571
:104DA80082B005460C4600F58E76009133464FF4E6
:104DB80080720021FFF7CFFF08B102B070BD224614
:104DC80031462846FFF7DAFCF7E703207047B1F5CC
:104DD800807F15D870B582B004460D4600F11C06D8
:104DE800009133464FF400720021FFF7B4FF08B179
:104DF80002B070BD2A4631462046FFF7CBFEF7E7E2
:104E080003207047F0B583B0B3F5007F16D8154678
:104E18001C46AAB100F58E7700933B4641F44072D8
:104E28000021FFF798FF064610B1304603B0F0BDE9
:104E3800224629463846FFF7A0FDF6E70326F4E7A1
:104E48000326F2E708B58378012B04D00022114627
:104E5800FFF761FF08BD00230374052242744182F5
:104E68008382C382F2E708B58378012B04D000223D
:104E78001146FFF750FF08BD00230374092242744E
:104E880041828382C382F2E708B58378012B04D07C
:104E980000221146FFF73FFF08BD002303740322D9
:104EA800427441828382C382F2E708B58378012B7A
:104EB80004D000221146FFF72EFF08BD0223037419
:104EC80001234374002343828182C382F1E710B532
:104ED80084B00B46114600240394082202920193E1
:104EE800009423462246FFF7B9F8204604B010BDC7
:104EF80030B585B00C4619469DF8203090F81D5302
:104F080005B1002303930292019401230093002327
:104F18001A46FFF7A3F8002005B030BD30B585B0BC
:104F28000D4619460024039402920195012200922D
:104F38002346FFF793F8204605B030BD30B585B05D
:104F48000C4619469DF8203090F81D5305B10023F2
:104F58000393029201940123009302230022FFF796
:104F68007DF8002005B030BD30B585B00D46194636
:104F78000024039402920195012200920223FFF774
:104F88006DF8204605B030BD00230F2B0CD803F177
:104F9800E00200EB8202526812F4004F02D00133A3
:104FA800DBB2F2E7184670474FF6FF70704710B54E
:104FB80084B0BDF8204002949DF81C4001949DF8EF
:104FC80018400094FFF72FF8002004B010BD08B572
:104FD800FFF73CF8002008BD38B504460D46FFF73A
:104FE800D3FF4FF6FF73984207D000F00F0345F444
:104FF8000045E03304EB83046560C0B238BD0F2977
:1050080006D8E03100EB81004368C3F30E03436028
:105018000020704708B5024600B10122012102486C
:10502800FBF7CAFD08BD00BF00080240DFF834D016
:10503800FEF7BCFC0C480D490D4A002302E0D45889
:10504800C4500433C4188C42F9D30A4A0A4C0023CA
:1050580001E013600432A242FBD300F0EDF8FBF745
:10506800B9FB704700000220000000207C000020EF
:10507800645300087C000020980A0020FEE7000026
:10508800024B0146186800F02DB800BF2C00002024
:10509800024B0146186800F0F5B800BF2C0000204C
:1050A80070B50F4E0C463168054611B900F0AEF8E0
:1050B80030602146284600F0A9F8431C03D14FF080
:1050C800FF34204670BDC41C24F00304A042F8D06D
:1050D800211A284600F09AF80130F2D1EFE700BF14
:1050E800500900202DE9F843CD1C25F003050835AB
:1050F8000C2D38BF0C25002D064601DBA94204D92A
:105108000C2333600020BDE8F883DFF8D48000F07A
:1051180069F8D8F800301C4644BB29463046FFF7EA
:10512800BFFF431C044658D1D8F800402746002F3B
:1051380043D1002C4BD023683946304604EB030991
:1051480000F064F8814542D121686D1A294630463D
:10515800FFF7A6FF01303AD023682B442360D8F824
:1051680000305A6862BBC8F800700FE02268521B12
:1051780020D40B2A17D96119A342256018BF59609A
:10518800636808BFC8F8001062514B60304600F0F1
:105198002FF804F10B00231D20F00700C21A1CBFD2
:1051A8001B1AA350AFE76268A3420CBFC8F80020DF
:1051B8005A60EBE723466468AEE73C467F68B6E78B
:1051C8001A465B68A342FBD100235360DEE70C2339
:1051D8003360304600F00CF894E70560D6E700BF6E
:1051E80054090020014800F04BB800BF940A002081
:1051F800014800F046B800BF940A00200244034664
:10520800934200D1704703F8011BF9E738B5064D02
:105218000023044608462B60FEF7A4FB431C02D17A
:105228002B6803B1236038BD900A0020014B186831
:10523800704700BF2C00002070B50D4D0D4C641B4D
:10524800A4100026A64209D10B4D0C4C00F064F8BE
:10525800641BA4100026A64205D170BD55F8043B76
:1052680098470136EEE755F8043B98470136F2E7D0
:105278005C5300085C5300085C5300086053000846
:105288007047704738B50546002941D051F8043CAD
:105298000C1F002BB8BFE418FFF7A4FF1D4A1368C2
:1052A80033B9636014602846BDE83840FFF7A0BFF3
:1052B800A34208D9206821188B4201BF19685B688E
:1052C80009182160EDE71A465B680BB1A342FAD9C9
:1052D80011685018A0420BD120680144501883422D
:1052E8001160E0D118685B68536008441060DAE721
:1052F80002D90C232B60D6E7206821188B4204BF03
:1053080019685B68636004BF091821605460CAE7C4
:1053180038BD00BF54090020F8B500BFF8BC08BC70
:105328009E467047F8B500BFF8BC08BC9E4670475B
:10533800000000000102030400000000000000005B
:0C53480001020304060708094344430067
:08535400A4AEFF7F0100000080
:04535C00AD01000897
:0453600089010008B7
:1053640001000000100000000024F4005053000865
:1053740002000000073B00089F3A00087D3A00083D
:105384008B3D0008453A0008000000003000002072
:105394000000000058090020C0090020280A00204D
:1053A40000000000000000000000000000000000F9
:1053B40000000000000000000000000000000000E9
:1053C40000000000000000000000000000000000D9
:0C53D400000000000000000000000000CD
:04000005080050356A
:00000001FF
